:100000000C941B050C94AA2C0C94832C0C94430583
:100010000C9443050C9443050C9443050C94430540
:100020000C9443050C9443050C9443050C94430530
:100030000C9443050C9443050C9443050C94430520
:100040000C94392C0C9443050C94072C0C94E12B44
:100050000C9443050C9443050C9443050C94430500
:100060000C94D12C0C94430507634236B79BD8A758
:100070001A39685618AEBAAB558C1D3CB7CC5763CD
:10008000BD6DEDFD753EF6177231BF000000803F7B
:1000900005A84CCDB2D44EB93836A9020C50B9914E
:1000A0008688083CA6AAAA2ABE000000803F080055
:1000B0000000BE922449123EABAAAA2ABECDCCCCE7
:1000C0004C3E00000080BEABAAAAAA3E0000000081
:1000D000BF000000803F0000000000084178D3BB53
:1000E0004387D1133D190E3CC3BD4282AD2B3E6800
:1000F000EC8276BED98FE1A93E4C80EFFFBE01C4F1
:10010000FF7F3F0000000000000000000000000032
:10011000000000000000000000000000700000006F
:1001200000000000FE010000000000C0FF0300000E
:10013000000000F8FF030000000000FFFF070000C0
:100140000000E0FFFF0F00000000FCFFFF1F0000A9
:1001500000C0FFFFFF1F000000F8FFFFFF3F00008F
:1001600000FFFFFFFF7F0000C0FFFFFFFFFF000059
:10017000E0FFFFFFFFFF0000F0FFFFFFFFFF0100B8
:10018000F0FFFFFFFFFF0300F8FFFF00F8FF030091
:10019000F8FF3F00E0FF0700F8FF0F0080FF0F00AF
:1001A000F8FF070000FF1F00F8FF030000FE1F001C
:1001B000F8FF010000FC3F00F8FF000000F87F009E
:1001C000F87F000000F8FF00F87F000000F0FF005B
:1001D000F83F000000E0FF01F83F000000E0FF03EF
:1001E000F83F000000E0FF03F81F000000C0FF0719
:1001F000F81F000000C0FF0FF81F000000C0FF0F35
:10020000F81F000000C0FF0FF81F000000C0FF0F24
:10021000F81F000000C0FF0FF81F000000C0FF0F14
:10022000F81F000000C0FF07F83F000000E0FF03D8
:10023000F83F000000E0FF03F83F000000E0FF018E
:10024000F87F000000F0FF00F87F000000F8FF00DA
:10025000F8FF000000F87F00F8FF010000FC3F00FD
:10026000F8FF030000FE1F00F8FF070000FF1F005B
:10027000F8FF0F0080FF0F00F8FF3F00E0FF0700CE
:10028000F8FFFF00F8FF0300F0FFFFFFFFFF030090
:10029000F0FFFFFFFFFF0100E0FFFFFFFFFF000097
:1002A000C0FFFFFFFFFF000000FFFFFFFF7F000018
:1002B00000F8FFFFFF3F000000C0FFFFFF1F00002E
:1002C0000000FCFFFF1F00000000E0FFFF0F000028
:1002D000000000FFFF070000000000F8FF0300001F
:1002E000000000C0FF03000000000000FE0100004D
:1002F000000000007000000000000000000000008E
:1003000000000000000000000000000024002700A2
:100310002A0000000000250028002B00000000003B
:100320002300260029000404040404040404020237
:100330000202020203030303030301020408102064
:10034000408001020408102001020408102000006F
:100350000008000201000003040700000000000084
:1003600000001202040304050103050E1500FC1031
:10037000FC11FC00000000019D20095EC33FFEFF50
:1003800097002A1A5EC33F2E66D78D48CC1C905525
:10039000564ACCC988CD8C45C5E335002B105EC3C9
:1003A0003F2E66B73BA039A09BDD3D3E2C0F5EC3C0
:1003B0003FFE9FC992D2CECACE0A022D0E5EC33F27
:1003C0007E793074308FFF0C002E0D5EC33FFE9F90
:1003D000C992D2CA63042F195EC3A7F0E8ECE8EC17
:1003E000ACECACECACECACECACECACB03C760030D7
:1003F000245EC33FD0E41905D5CC94D09A9A999A3B
:100400001189990991999A999A19A2355314649767
:10041000F4B800310F5EC33FD464DD61C8ECFEEF79
:10042000710132175EC33F10E14114C958D4ECA6E4
:10043000FB56F660E8601E6B00331C5EC33F0CE1A8
:100440004198CCF0ACEC60652DB1F0EC54941405FF
:10045000D9613D4E00341B5EC33F9CEC28CB4289E2
:1004600041893991B1913199A9039A03CAD9ED71A2
:10047000351F5EC33FC481D481D4ECDABB83B01195
:10048000B2A061E15929A12112AA83C07A5C003689
:100490001C5EC33F50E1198998EC8AB9032992A9DF
:1004A000A1FD4A686A64EE901E170037175EC33FCD
:1004B000C4C1D0C1ACECD2D959D959D9B5B26BE5C8
:1004C000710438225EC33F4CDD41D808D1AE66A628
:1004D0002806EB26C88456094DCD4C09D14C1D0485
:1004E000D6E30200391E5EC33F10E1DDC8D490D4CC
:1004F000D01E91501D881DC4AE1513A13A08A4C783
:1005000009003A125EC33F9ECB92D2CAE350969442
:10051000561E230000000004FFFF00005F020302DC
:100520000304010204060D00FE09FE0AFF01A803F0
:100530006E04FA2007EEF8F95F00210AEEF8F1B434
:10054000EF604E01220CEEF8E1244BB224E71700D5
:100550002311EEF8A9499644839444839464494E48
:10056000062411EEF8F170486A49382659920C6158
:100570004E01250FEEF8E128694AD2B09A4449535A
:100580004E2610EEF8A961922561258B94285372AE
:10059000182709EEF8F1B4CE4F00280DEEF8A1307F
:1005A0000DD3CE699C2300290CEEF8E3344E3BA614
:1005B000618E012A0CEEF8F12C294D492DE7112B03
:1005C0000BEEF8596B8396E6CC002C09EEF8F95D3A
:1005D000AC63002D09EEF87919749E002E09EEF82F
:1005E000F93D1C73082F0DEEF849699886D530CD7A
:1005F00069003013EEF8F13089B2244BB2244BB2CB
:100600002809730A00310CEEF8F1504BD2DE061DBA
:1006100006320EEEF8E1294BB234EC3AE830003302
:100620000DEEF8D1410D8B739A64D14E340FEEF874
:100630002969A8255912950631CD09350EEEF8D154
:1006400041492B929456B268273610EEF8E1294BB7
:10065000D27488B2244BB26827370DEEF8D1410D21
:10066000D3300DD33A093811EEF8E1294BB2248B7F
:10067000A62CC9922CDA093910EEF8E1294BB224E4
:100680008B86B492453B013A0CEEF859C331A785ED
:10069000630E013B0BEEF859C331A789750C3C0A78
:1006A000EEF84961E7EE30003D0BEEF8390D3A3CCB
:1006B000E88C003E0AEEF8D1B863771A003F0EEEE0
:1006C000F8E1294BB234ACE6604E014010EEF8E19F
:1006D000294BB22452FA458A871C064113EEF8F1E1
:1006E0003089B2244BB26450B2244BB21C06420E85
:1006F000EEF8D1218B7ADAA25E869C00430CEEF8EC
:10070000E1294BD2DEA29D00440CEEF8D1218BFAF8
:100710007F197202450EEEF8D14149AB439456075A
:100720001D06460DEEF8D14149AB4394B6D30047C0
:100730000EEEF8E1294BD226254BB268274814EE7D
:10074000F8D12CC9922CC99241C9922CC9922C87FC
:10075000014909EEF8E131EDE34E4A0BEEF8F131D3
:10076000EDA9A653004B12EEF8D12CC992A892899C
:100770004916D5922C87014C0AEEF8D1FE3AE830A2
:10078000004D11EEF8D12CC9124BBF2559922559B5
:100790000E034E12EEF8D12C911229E9272552B200
:1007A00024CB61004F12EEF8E1294BB2244BB22466
:1007B0004BB2248B76025010EEF8D121CA922CC98C
:1007C00092214ADB69005112EEF8E1294BB2244B29
:1007D000B2244BB2A469CE015213EEF8D121CA92D1
:1007E0002CC992214AB2A89664390C530EEEF8E156
:1007F000294BD2784E932CDA09540AEEF8D1414BAA
:10080000FB9D025513EEF8D12CC9922CC9922CC92C
:10081000922CC9A29D005613EEF8D12CC9922CC976
:10082000A2244BB2244C730A00570FEEF8D12CC906
:10083000922CC992FE4F494E5813EEF8D12CC9A202
:10084000244BC24A96445992E53000590EEEF8D135
:100850002CC9A2244BC2B43B055A0EEEF8D1410D6F
:10086000D3B01AA6830E035B0AEEF8B7B4BFEE0846
:10087000005C0CEEF8D1721A57E33487015D09EE83
:10088000F8D7FE6D47005E0AEEF8F13089B29C1F82
:100890005F08EEF8F9B741076009EEF89138E7CF45
:1008A00000610EEEF8B9CDD190644964C96100626F
:1008B00010EEF8D1D621CA922CC9922C197202637B
:1008C0000CEEF8B94D5992D6A29D006411EEF8498C
:1008D000696948B2244BB2248B861C06650DEEF87C
:1008E000B94D5932286916ED04660DEEF8712DAA3E
:1008F000864396B693006710EEF8B94D5992255984
:1009000034A449164D006810EEF8D12E9294644933
:1009100096644996C300690AEEF8C939A676DC09DF
:100920006A0BEEF8E939A676EAA6016B0EEEF8D16D
:100930004E954C4CB2A896C3006C09EEF861B51FF9
:1009400077026D0CEEF8392951D2FF2D87016E1018
:10095000EEF839259294644996644996C3006F0E67
:10096000EEF8B94D5992255992453B01700FEEF8BA
:10097000390D51966449960C515A05710FEEF8B92C
:100980000D49966449160D690B00720CEEF8392575
:100990009294A4ED3400730CEEF8B94D59244759E4
:1009A000B413740CEEF8A9C5214B9B329D00750F52
:1009B000EEF83965499664499644961C06760FEE22
:1009C000F83965499664519225614E01770CEEF82D
:1009D00039654996F44F494E780EEEF83965511253
:1009E000A6611265390C7910EEF8396549966449AB
:1009F0006449932C9A007A0BEEF8390D62D741873F
:100A0000017B0BEEF8212D6D93D3661D7C09EEF86A
:100A1000F1B4BF53007D0BEEB8E5B4594BDB740C59
:100A20007E0BEEF8E128E994F30B0000000004FFD0
:100A3000FF000000F02D11241FBECFEFD8E0DEBF75
:100A4000CDBF12E0A0E0B1E0E4E6F5E702C005901A
:100A50000D92AE33B107D9F727E0AEE3B2E001C0A3
:100A60001D92A734B207E1F715E0CBE1D5E004C051
:100A70002197FE010E94B138CA31D107C9F70E94FF
:100A800083310C94B03A0C940000662329F06A304C
:100A900019F0862F90E008958FEF9FEF0895AF92A1
:100AA000BF92CF92DF92EF92FF920F93CF93DF939B
:100AB000EC01DA017901942F9770E1E0F0E09F01F9
:100AC000092E01C0220F0A94EAF7522F6E018AE81C
:100AD000C80ED11CF601808140E0823018F4422F0C
:100AE000813049F15D01F8EFAF22E8ADF9AD288121
:100AF0003981D90150968C918A9D90018B9D300D42
:100B00001124620F731FDF01A60FB71F01111AC056
:100B1000EA0EFB1E8C91842B85278D93AE15BF05A5
:100B2000C9F7DF91CF910F91FF90EF90DF90CF90B9
:100B3000BF90AF90089550E0D5CF440F550FE1140A
:100B4000F10479F33C91342B35273C939F5F9770E8
:100B5000E1E0EE1AF1089111F0CF2CAD3DADA20FFE
:100B6000B31FF6018081823028F4813009F051E012
:100B700041E0E5CF51E0E3CF80E0089590E080E0F0
:100B800008959B01DC011896ED91FC9141E067E12D
:100B900009940895AF92BF92CF92DF92EF92FF92A5
:100BA0000F931F93CF93DF936C017B018B01040F95
:100BB000151FEB015E01AE18BF08C017D10759F031
:100BC0006991D601ED91FC910190F081E02DC60173
:100BD0000995892B79F7C501DF91CF911F910F916D
:100BE000FF90EF90DF90CF90BF90AF900895FC0101
:100BF000538D448D252F30E0842F90E0821B930B82
:100C0000541710F0CF96089501970895FC01918D27
:100C1000828D981761F0A28DAE0FBF2FB11D5D962A
:100C20008C91928D9F5F9F73928F90E008958FEFCC
:100C30009FEF0895FC01918D828D981731F0828D80
:100C4000E80FF11D858D90E008958FEF9FEF0895D7
:100C5000FC01918D228D892F90E0805C9F4F821B3B
:100C600091098F739927089580E393E00E942806E5
:100C700021E0892B09F420E0822F089580E090E0A4
:100C8000892B29F00E94340681110C9400000895EC
:100C9000FC01A48DA80FB92FB11DA35ABF4F2C91F1
:100CA000848D90E001968F739927848FA689B789E8
:100CB0002C93A089B1898C91837080648C93938DDF
:100CC000848D981306C00288F389E02D80818F7D82
:100CD00080830895EF92FF920F931F93CF93DF933A
:100CE000EC0181E0888F9B8D8C8D98131AC0E88968
:100CF000F989808185FF15C09FB7F894EE89FF8937
:100D00006083E889F98980818370806480839FBFD4
:100D100081E090E0DF91CF911F910F91FF90EF90D4
:100D20000895F62E0B8D10E00F5F1F4F0F731127E4
:100D3000E02E8C8D8E110CC00FB607FCFACFE8891F
:100D4000F989808185FFF5CFCE010E944806F1CF59
:100D5000EB8DEC0FFD2FF11DE35AFF4FF0829FB793
:100D6000F8940B8FEA89FB8980818062CFCFCF9383
:100D7000DF93EC01888D8823B9F0AA89BB89E889C3
:100D8000F9898C9185FD03C0808186FD0DC00FB669
:100D900007FCF7CF8C9185FFF2CF808185FFEDCFE7
:100DA000CE010E944806E9CFDF91CF9108958330AC
:100DB00081F028F4813099F08230A9F008958730CD
:100DC000A9F08830C9F08430B1F4809180008F7D23
:100DD00003C0809180008F7780938000089584B550
:100DE0008F7784BD089584B58F7DFBCF8091B0004F
:100DF0008F778093B00008958091B0008F7DF9CFF8
:100E0000CF93DF93282F30E0F901E25BFC4F849110
:100E1000F901E65CFC4FD491F901EA5DFC4FC49105
:100E2000CC23A1F081110E94D706EC2FF0E0EE0F49
:100E3000FF1FE45EFC4FA591B491EC91ED2381E09E
:100E400090E009F480E0DF91CF91089580E090E098
:100E5000FACFCF93DF9382E00E940007EC0183E09A
:100E60000E940007CC0FDD1F8C2B9D2B2091DD03F2
:100E70003091DE03220F331F220F331F282B392B13
:100E80002D30310549F02430310531F02230310563
:100E900019F02B303105A1F44091D9035091DA03B8
:100EA0006091DB037091DC034F5F5F4F6F4F7F4FAB
:100EB0004093D9035093DA036093DB037093DC0310
:100EC0002E30310549F0A9014750510942305105F2
:100ED00018F021303105A1F44091D9035091DA0383
:100EE0006091DB037091DC03415051096109710984
:100EF0004093D9035093DA036093DB037093DC03D0
:100F00009093DE038093DD03DF91CF9108951F93CB
:100F1000CF93DF93282F30E0F901E25BFC4F8491FF
:100F2000F901E65CFC4FD491F901EA5DFC4FC491F4
:100F3000CC23A9F0162F81110E94D706EC2FF0E0E8
:100F4000EE0FFF1FEE5EFC4FA591B4918FB7F894A2
:100F5000EC91111108C0D095DE23DC938FBFDF9197
:100F6000CF911F910895DE2BF8CFCF93DF9390E0C0
:100F7000FC01E65CFC4F24918A5D9C4FFC0184914E
:100F80008823C9F090E0880F991FFC01E85FFC4FAF
:100F9000A591B491FC01EE5EFC4FC591D491611115
:100FA0000DC09FB7F8948C91209582238C938881F3
:100FB000282328839FBFDF91CF910895623051F499
:100FC0009FB7F8943C91822F809583238C93E8817E
:100FD0002E2BEFCF8FB7F894EC912E2B2C938FBF45
:100FE000EACF1F93CF93DF93182FEB0161E00E94AC
:100FF000B507209739F460E0812FDF91CF911F91E1
:101000000C948707CF3FD10511F461E0F5CFE12FB4
:10101000F0E0E25BFC4FE491E33031F140F4E13089
:10102000B1F0E230E1F0C038D1057CF7E4CFE73031
:1010300029F1E83059F1E430B1F780918000806205
:1010400080938000D0938B00C0938A0004C084B545
:10105000806884BDC7BDDF91CF911F91089584B58D
:10106000806284BDC8BDF7CF809180008068809386
:101070008000D0938900C0938800EDCF8091B000AC
:1010800080688093B000C093B300E5CF8091B0003A
:1010900080628093B000C093B400DDCF8E3008F042
:1010A0008E508770806480937C0080917A00806489
:1010B00080937A0080917A0086FDFCCF8091780041
:1010C0009091790008953FB7F89480912203909110
:1010D0002303A0912403B091250326B5A89B05C046
:1010E0002F3F19F00196A11DB11D3FBFBA2FA92FA7
:1010F000982F8827BC01CD01620F711D811D911DA4
:1011000042E0660F771F881F991F4A95D1F708950F
:101110002FB7F89460911E0370911F0380912003F4
:10112000909121032FBF08958F929F92AF92BF920B
:10113000EF92FF920F931F93CF93DF937B018C016C
:10114000D0E0C0E00E9488086093380370933903B0
:1011500080933A0390933B0380E393E00E9406065A
:1011600097FF27C00E948808809038039090390329
:10117000A0903A03B0903B03681979098A099B094A
:101180008090340390903503A0903603B0903703DD
:10119000681579058A059B05F8F2CE01DF91CF919C
:1011A0001F910F91FF90EF90BF90AF909F908F9005
:1011B0000895F80181938F012196EC16FD0611F632
:1011C000ECCF08952091D102260F3327331F21320F
:1011D0003105ECF42091F702FC0190E080E024302E
:1011E00069F082E00895A091D1022191AC014155AE
:1011F0005D4FA40FB52FB11D2C930196861798F360
:101200008091D102680F6093D10280E0089581E05F
:1012100008951092F70281E08093F9021092F8028B
:1012200061E082E10E94870761E083E10E94870715
:10123000E9EBF0E080818E7F808380818D7F8083E9
:1012400088E48093B80085E48093BC000895CF9330
:10125000DF9391E09093AE028823B9F0C091B8007B
:10126000D091BA008091BC008A7B8093BC0060E082
:1012700082E10E94870760E083E10E9487070E9465
:101280000909D093BA00C093B800DF91CF910895B7
:10129000089508950895E091A6028091A502E817A7
:1012A00030F4F0E0EB57FD4F808190E008958FEF30
:1012B0009FEF08959091A6028091A5022FEF3FEF36
:1012C000981748F4E92FF0E0EB57FD4F208130E00C
:1012D0009F5F9093A602C90108958091A502909105
:1012E000A602891B990B0895CF92DF92EF92FF928D
:1012F0000F931F93CF93DF937C01CB018A01209141
:101300008402222389F0EB016B01C40ED51ECC159B
:10131000DD0569F06991D701ED91FC910190F081B3
:10132000E02DC7010995F3CF642F0E94E208C801A0
:10133000DF91CF911F910F91FF90EF90DF90CF90B1
:101340000895CF93DF931F92CDB7DEB769832091C5
:1013500084022223F9F02091A702203258F021E0E4
:1013600030E0FC013383228390E080E00F90DF9136
:10137000CF9108958091A802E82FF0E0EC59FD4F3D
:10138000998190838F5F8093A8028093A70281E068
:1013900090E0ECCF61E0CE0101960E94E208F7CF29
:1013A000DC011A96ED91FC9130E020E00994DC011B
:1013B0001696ED91FC9130E020E040E069E109945F
:1013C000DC011696ED91FC9130E020E040E068E110
:1013D00009949A01DC011696ED91FC91462F67E184
:1013E0000994EF92FF920F931F93CF93DF931F9275
:1013F000CDB7DEB77C018B01D8016C91673129F143
:1014000050F46531A0F40F90DF91CF911F910F91AF
:10141000FF90EF9008956A3118F16E3FA1F7F8013F
:101420004181498369E2C7010E94D0090BC0F801DC
:1014300041814983D7011696ED91FC9130E020E07F
:10144000C70109950E5F1F4FD7CFF80181818983AE
:10145000AE014F5F5F4F61E0C7010E94E909F2CF23
:101460000F5F1F4FD7011696ED91FC9130E020E001
:1014700040E0C7010995C0CF462FDC011696ED91DB
:10148000FC9130E020E066E10994462FDC011696DD
:10149000ED91FC9130E020E065E10994EF92FF923C
:1014A0000F931F93CF93DF93EC01042F79016D30DD
:1014B00009F446C050F46B30C9F1693009F49FC09B
:1014C0006A3009F465C080E05CC06E3009F44BC03E
:1014D0006F3099F70E94E009F7011381110F110F86
:1014E000110F6C89160F60E4CE010E94450A612F2E
:1014F00062956F706061CE010E94450A612F6F7026
:10150000CE010E943C0AF7016481606BCE010E940B
:101510003C0AF701408151816281660F660F660FB8
:10152000CE010E94E9090150A1F727C061E271E0F4
:10153000442311F06CE171E0CE010E94F10920C05A
:10154000411109C065E171E00E94F109E881F9816A
:1015500082898C8B15C06EE071E00E94F109E881F0
:10156000F9818389F6CF0E94E00961E8CE010E94EB
:10157000450A602FCE010E943C0ACE010E94D70985
:1015800081E0DF91CF911F910F91FF90EF9008952F
:10159000EA85FB8530E020E040E068E2CE01099575
:1015A000EE81FF8130E020E040E064E1CE0109956A
:1015B00041E06BE4CE010E94D009E881F9814481C9
:1015C00069E2CE010E94D00940E06BE4CE010E94A6
:1015D000D009E881F981448169E2CE010E94D009F5
:1015E00041E06BE4CE010E94D009E881F981458198
:1015F00069E2CE010E94D00966E271E09DCF8BE5E1
:1016000091E09983888382E0A4CFDC011896ED9164
:10161000FC9130E020E040E069E10994DC0118969B
:10162000ED91FC9130E020E040E068E10994CF9337
:10163000DF931F92CDB7DEB76983BE016F5F7F4F27
:101640000E94C1050F90DF91CF910895EF92FF9214
:101650001F93CF93DF93EC01162F7A010E940E0B9C
:1016600060E4CE010E94170BE885F9859701412FB0
:1016700067E1CE010995CE01DF91CF911F91FF90D7
:10168000EF900C94050BEF92FF921F93CF93DF9393
:10169000EC01142F7901663181F138F4643109F4D9
:1016A0004BC0653179F080E022C06831C9F150F15A
:1016B0006931C9F780916302882391F1CE010E94BC
:1016C000050B2EC080916302882319F0CE010E9481
:1016D000050BCE010E940E0B60E0CE010E94170B9D
:1016E000612FCE010E94170B81E080936302DF918E
:1016F000CF911F91FF90EF900895642F0E94170BD8
:1017000081E0F5CF80916302882319F0CE010E9419
:10171000050BA701193138F4612FCE010E94260B69
:1017200010926302EDCF68E1CE010E94260B1851A2
:1017300088E1E80EF11CEDCF8E898F3F11F488E728
:101740008E8BE885F9859701412F64E1CE01DF9109
:10175000CF911F91FF90EF900994FC016623D9F17E
:101760006A30C9F1808D811125C06C3F48F085E059
:10177000808F617070E0738B628B2EEF3FEF29C01A
:10178000683F20F084E0808F6370F4CF603F20F0EA
:1017900083E0808F6770EECF603E20F082E0808F24
:1017A0006F70E8CF262F30E0603C98F081E0808FAA
:1017B0006F71E0CF8150808F2289338996E0220FAC
:1017C000331F9A95E1F76F73262B338B228B811190
:1017D000D4CFC90108952FEF3FEFFBCF0F93FC014A
:1017E000E85BFF4F0190F081E02DDF01A41BB50BFA
:1017F000AD01FC01EA5BFF4F0190F081E02DDF01BC
:10180000A61BB70BBD01011113C041505109621B4A
:10181000730BFC01E05CFF4F0190F081E02D4E1B4B
:101820005F0BDC01D496ED91FC9109950F91089521
:10183000013079F761507109421B530BEACFCF9306
:10184000DF93FC01A081B18182AD90E09C0143E077
:10185000220F331F4A95E1F737AF26AF50962C91F0
:10186000509748E0249F9001112435AF24AF23AD59
:1018700030E0B90153E0660F771F5A95E1F7EF01A9
:10188000C05CDF4F7983688351964C915197E90191
:10189000C80FD91F50E04C175D0718F4CA01821B0E
:1018A000930BEF01CE5BDF4F79836883229623E0B1
:1018B000880F991F2A95E1F7860F971F99838883D0
:1018C000229654968D919C91559799838883E85BD5
:1018D000FF4F56968D919C9191838083DF91CF919C
:1018E00008950F931F93FC01E25BFF4F0190F0817D
:1018F000E02DDC01A05BBF4F0D90BC91A02D4A17DD
:101900005B0740F4E017F10748F00417150730F0C3
:1019100080E019C0E017F107C0F3FACFFC01E65BE5
:10192000FF4F40815181845B9F4FFC0180819181F9
:101930006817790758F481E04217530720F081E0D7
:101940002617370728F71F910F910895421753075D
:10195000B0F3DECF2F923F924F925F926F927F92C1
:101960008F929F92AF92BF92CF92DF92EF92FF92AF
:101970000F931F93CF93DF93CDB7DEB728970FB6A2
:10198000F894DEBF0FBECDBF98878F83865B9F4FD5
:101990009A838983FC0111821082EF81F885EA5BCA
:1019A000FF4F208031802F813885245B3F4F3C835F
:1019B0002B83F90131822082EF80F884FEE4EF0E60
:1019C000F11CF70111821082EF81F885E85BFF4F6F
:1019D00040805180EF81F885EC5BFF4F20813181A1
:1019E0004216530630F0C201821B930BF70191831C
:1019F0008083EF81F885EE5BFF4F20813181421AB1
:101A0000530A2F813885205B3F4F3E832D83F90198
:101A100051824082EF81F885E85AFF4F60807180E3
:101A2000EF81F885EC5AFF4FA080B180EF81F885F7
:101A3000EA5AFF4FC080D180EF81F885EE5AFF4F00
:101A40008080918083019501A601B4018F819885E2
:101A50000E94710C2F8138852C573F4F38872F8378
:101A600081111BC0F901108228960FB6F894DEBFD1
:101A70000FBECDBFDF91CF911F910F91FF90EF90DF
:101A8000DF90CF90BF90AF909F908F907F906F909E
:101A90005F904F903F902F90089581E0EF81F885FF
:101AA00080838114910421F0E981FA8191828082FE
:101AB000A214B30420F4EB81FC81B182A082F7016F
:101AC000808191818C159D0510F4D182C0826414AF
:101AD000750450F6ED81FE8171826082C5CF865714
:101AE0009F4FFC01608308950F93CF93DF93E02F06
:101AF000DC01AC57BF4FFC91FF2309F460C02115F6
:101B0000310509F45CC02230310538F0023009F0AB
:101B10004AC06F5F7F4F621B730B0E2F0170E0FD99
:101B200052C0FC01E25BFF4F0190F081E02D4E17A7
:101B30005F0708F444C0FC01E05BFF4F0190F081B7
:101B4000E02D4E175F07D8F5FC01E45BFF4F0190D5
:101B5000F081E02DDC01A65BBF4F0D90BC91A02D64
:101B6000260F371F2617370738F56E177F0718F52A
:101B70009F0121503109A217B30708F56A177B07A7
:101B800008F4BD012E173F0708F4F901E61BF70B17
:101B9000EC01AEA9BFA914960D90BC91A02D9F0198
:101BA000FD0109950CC0033009F0B7CF4F5F5F4FBF
:101BB000421B530BB2CFBD016E177F07E0F2DF91DE
:101BC000CF910F910895FC01E65BFF4F0190F081EA
:101BD000E02D6E177F0798F3FC01E45BFF4F019047
:101BE000F081E02D6E177F0750F7FC01E05BFF4F9F
:101BF0000190F081E02DDC01A25BBF4F0D90BC9104
:101C0000A02D240F351F24173507A8F44E175F07A2
:101C100088F49F0121503109A217B30780F64A17B3
:101C20005B0708F4AD012E173F0708F4F901E41B28
:101C3000F50BAECFAD014E175F0708F6EDCFAF92B3
:101C4000BF92CF92DF92EF92FF920F931F93CF93A9
:101C5000DF935C016B01EA017A01E20EF31E9B0146
:101C60002A5F3F4F87010E94710C811114C0DF91E0
:101C7000CF911F910F91FF90EF90DF90CF90BF9089
:101C8000AF90089500E026E030E0AE01B601C50156
:101C90000E94740D2196EC16FD06A1F7E8CFEF9295
:101CA000FF920F931F93CF93DF937C01EB019B0176
:101CB0002A5F3F4F02E210E042E050E00E94710CC8
:101CC000882329F100E026E030E042E050E0BE0148
:101CD000C7010E94740D01E02EE130E043E050E0C6
:101CE000BE01C7010E94740DBE016B5F7F4F2EE1E4
:101CF00030E043E050E0C7010E94740D00E026E0B0
:101D000030E041E250E0BE01C7010E94740DDF9156
:101D1000CF911F910F91FF90EF9008950F93FC01C9
:101D2000E25BFF4F2081318142175307B8F03296B2
:101D3000208131814217530788F436972081318101
:101D40006217730758F0329620813181621773074A
:101D500028F400E021E030E00E94740D0F91089516
:101D60002F923F924F925F926F927F928F929F92AB
:101D7000AF92BF92CF92DF92EF92FF920F931F9399
:101D8000CF93DF93EC018B017A0187E2C82ED12C2F
:101D90004601841A950A3B018CE3680E711CA4016C
:101DA000B301CE010E948E0EC01AD10A27018CE326
:101DB000480E511CA601B201CE010E948E0E9CE37A
:101DC000A92EB12C1501201A310AA401B101CE01AE
:101DD0000E948E0EAE18BF08A601B501CE010E946A
:101DE0008E0E87E2E80EF11CA701B301CE010E941E
:101DF0008E0E095D1F4FA801B201CE010E948E0E0A
:101E0000A701B101CE010E948E0EA801B501CE013D
:101E1000DF91CF911F910F91FF90EF90DF90CF90C6
:101E2000BF90AF909F908F907F906F905F904F90FA
:101E30003F902F900C948E0E213069F038F02230B4
:101E400079F0840F911D47FD9A950895860F911D95
:101E500067FD9A950895841B910947FD9395089510
:101E6000861B910967FD93950895213069F038F03C
:101E7000223079F0861B910967FD93950895840FB0
:101E8000911D47FD9A950895860F911D67FD9A95BE
:101E90000895841B910947FD939508953F924F92B1
:101EA0005F926F927F928F929F92AF92BF92CF92EA
:101EB000DF92EF92FF920F931F93CF93DF937C01FA
:101EC000162F442EEC01C25ADF4F5E806F806C01EA
:101ED0008AE8C80ED11C78847518312E711608F462
:101EE000372C8C809D800E85202F462D652D8A8174
:101EF0009B810E941C0F5C01202F462D652DC40183
:101F00000E94350FAC01442079F08C85F601808366
:101F1000232D30E0B501C7010E94740D171548F05C
:101F200017196394512CD7CF8B858111F7CF8D85ED
:101F3000EDCF150D1E836F82DF91CF911F910F9111
:101F4000FF90EF90DF90CF90BF90AF909F908F90D9
:101F50007F906F905F904F903F900895DC011A96AC
:101F60004C911A97ED91FC911197249130E0042E39
:101F700002C0359527950A94E2F7842F860F8830A2
:101F800068F031961196FC93EE93E49198E0941BDF
:101F900001C0EE0F9A95EAF72E2B88501A968C9373
:101FA0008FEF9FEF01C0880F6A95EAF78095822333
:101FB00008950F931F93CF93DF938C01EC01C25AC6
:101FC000DF4F798368831A86FC01EF58FF4F6081E9
:101FD000CE010E94AE0F8887F801EE58FF4F608156
:101FE000CE010E94AE0F8987F801E657FF4F90811E
:101FF0009C8781E0911180E08D87DF91CF911F91C7
:102000000F910895CF93C62F0E94AE0FC15021E0CB
:1020100030E001C0220FCA95EAF7821BCF910895E4
:10202000FC01E60FF11D849190E0982F88273196EE
:10203000E4918E0F911D0895CF92DF92EF92FF925F
:102040000F931F93CF93DF936C012AE5C20ED11C2F
:10205000D6012D913C9111972617370709F4A2C09C
:10206000EB017C016D937C93FB0184918701035903
:102070001F4FD8018C933196E4911196EC931197F0
:10208000FB013296E4911296EC931297FB01339682
:10209000E4911396EC931397FB013496E491149614
:1020A000EC931497FB013596E4911596EC931597F4
:1020B000FB013696E4911696EC931697FB01379642
:1020C000E4911796EC931797FB013896E4911896D4
:1020D000EC931897FB013996E4911996EC931997B4
:1020E000FB013A96E4911A96EC931A97FB013B9602
:1020F000E4911B96EC931B97FB013C96E4911C9694
:10210000EC931C97FB013D96E4911D96EC931D9773
:10211000FB013E96E4911E96EC931E97FB013F96C1
:10212000E4911F96EC931F97FB017096E4915096F3
:10213000EC9361E1CE010E941010F801928B818B2B
:1021400063E1CE010E941010D80154969C938E93A7
:10215000539765E1CE010E941010F801968B858B94
:10216000D6018D919C911197892BE1F03D9680814C
:10217000E701CA57DF4F8883319640819D964C9383
:102180003A969081992371F09130A9F43997908112
:1021900089170CF49883F701E358FF4F8081841767
:1021A0000CF48C93DF91CF911F910F91FF90EF90E2
:1021B000DF90CF900895F701E958FF4F30813296B4
:1021C0002081082E000C990B622F022E000C770B39
:1021D000630F711D37FD7A958617970714F4320F38
:1021E00038832417FCF62C93DDCFEF92FF920F93E8
:1021F0001F93CF93DF93FC01E65AFF4F208131817B
:10220000295E3F4F6F3F710509F048F56136710552
:10221000D8F080589F4FFC0180819181280F391F91
:10222000C9010196FC014491442309F447C0F90116
:1022300044914617170671F40196DF91CF911F91D3
:102240000F91FF90EF9008956134710548F3825823
:102250009F4FE1CFFC018491280F311DE1CF8B010D
:10226000FC01EE57FF4FC081D181C20FD31F7E0109
:1022700060E0C7010E941010C80FD91F62E0C701BB
:102280000E941010F4E0EF0EF11C8017910780F30C
:10229000FE01849190E0982F88273196E4918E2B4F
:1022A000009761F00817190719F4CE010396C5CFFE
:1022B000FE013296E491CE0FD11DEACF90E080E08E
:1022C000BCCF3F924F925F926F927F928F929F927C
:1022D000AF92BF92CF92DF92EF92FF920F931F9334
:1022E000CF93DF9300D000D000D0CDB7DEB79E8370
:1022F0008D833C0126E6620E711CD3011C92FC0109
:10230000108E6B0120EC322EF12CE12C10E000E05D
:102310004C01F8E88F0E911C5C012EE5A20EB11C59
:102320008D589F4F9A838983AD81BE81AC58BF4F32
:10233000BC83AB834D805E80B5E74B0E511CF6012C
:1023400061916F01AD81BE811296ED91FC91139761
:10235000CD0109958F3F980781F18E3FEFEF9E07E2
:1023600071F3BC018D819E810E94F510009719F1D7
:10237000BC018D819E810E94D90FA981BA816C9187
:10238000C5010E940210F4018083AB81BC816C9175
:10239000C5010E940210F2016081C5010E94021075
:1023A000E82E880FFF08F0EC3F1202C0D4013C90E9
:1023B0000E0D1F1DC4CF80E0F3CFF3018081882371
:1023C000B9F02D813E8128573F4FD9012C91082E1D
:1023D000000C990B820F911D27FD9A95080F191F6C
:1023E0000E191F09131424F4030D111D37FC1A953F
:1023F000C80126960FB6F894DEBF0FBECDBFDF91A1
:10240000CF911F910F91FF90EF90DF90CF90BF90F1
:10241000AF909F908F907F906F905F904F903F9084
:1024200008952DEA3BE0FC01338322830C94611173
:102430008F929F92AF92BF92CF92DF92EF92FF92D4
:102440000F931F93CF93DF93EC017B018A01690106
:10245000FC01E459FF4F8081813009F46FC008F41A
:1024600062C0823009F475C0833009F47DC0FE017A
:10247000E05AFF4FF182E082329611830083B60169
:10248000CE010E94F510009709F4FFC07E012EE5F1
:10249000E20EF11CBC01CE010E94D90FFE01E959E8
:1024A000FF4FB0803C966081C7010E940210882EC9
:1024B000FE01EC58FF4F6081C7010E940210082FF7
:1024C000FE01EB58FF4F6081C7010E940210A82E49
:1024D000F701908419140CF090C016850B0D01952E
:1024E000212F402F682D828193810E941C0F6C0147
:1024F000F70193838283212F402F682D848195815A
:102500000E94350FAC01F70195838483113009F4E3
:1025100084C0A8F1123009F491C0133009F4A4C0AA
:102520008C01960136C0FE01E45AFF4F0190F08104
:10253000E02DCE010995080F191F99CFFE01E45A2D
:10254000FF4F0190F081E02DCE010995E81AF90ABC
:102550008ECFFE01E45AFF4F0190F081E02DCE01B5
:102560000995081B190B83CFFE01E45AFF4F019018
:10257000F081E02DCE010995E80EF91E78CF960185
:10258000290D311D97FC3A958C010B0D111DB7FCDF
:102590001A95B601CE010E94710C882371F1F701E2
:1025A000168217828E0101591F4F6E01F0E7CF0E80
:1025B000D11CF8016081C7010E94AE0F882EF60180
:1025C0006081C7010E94AE0F982E40E0682DCE01B9
:1025D0000E944E0F41E0692DCE010E944E0F61E036
:1025E000C7010E94AE0F8111F0CFF70187818B15D3
:1025F00004F3C657DF4F848588838A2DAA0C990B74
:10260000DF91CF911F910F91FF90EF90DF90CF90CE
:10261000BF90AF909F908F90089581E090E08B19CC
:102620009109B7FC939596012F5F3F4F8A01090DE1
:10263000111D97FC1A95C80ED91EABCF81E090E012
:10264000BC016919710997FC739596012F5F3F4F83
:102650008B199109B7FC93958A010F5F1F4F480FA3
:10266000591FC60ED71E95CF96012B0D311DB7FCF5
:102670003A9581E090E08919910997FC93958A0138
:102680000F5F1F4F480F591F84CF90E080E0B8CFF5
:102690008F929F92AF92BF92CF92DF92EF92FF9272
:1026A0000F931F93CF93DF93EC018B017A01188E68
:1026B0006901B12CA12C4C012CE6820E911CF60173
:1026C00061916F01EA81FB81CE0109958F3F9807E7
:1026D00011F18E3F2FEF920791F39C01A701B801F2
:1026E000CE010E941812F4012081213059F038F0F7
:1026F000223059F0233061F0A80EB91EE0CF080F48
:10270000191FFACFE80EF91EF7CF081B190BF4CFEB
:10271000E81AF90AF1CFC501DF91CF911F910F910E
:10272000FF90EF90DF90CF90BF90AF909F908F90F1
:102730000895CF93DF93EC016BAFEEA9FFA9019051
:10274000F081E02D0995EEA9FFA90280F381E02D2B
:10275000CE01DF91CF910994AF92BF92CF92DF92D9
:10276000EF92FF920F931F93CF93DF9300D000D08F
:102770001F92CDB7DEB78C01DC01DA96AC90DA9708
:10278000DB96EC90DB97ED91FC91B188FE2CD12C7F
:10279000C12CD801ED91FC9111978089D8962D918B
:1027A0003C911C82FD828B83B8E08B9FC001112479
:1027B0008C9DA0018D9D500D9C9D500D1124240FCA
:1027C000351F3A832983D8011496ED91FC919E011F
:1027D0002F5F3F4F41E06FE0C8010995F3948F2DC3
:1027E0008E198A1528F4BFEFCB1ADB0AFB1488F286
:1027F0000F900F900F900F900F90DF91CF911F913E
:102800000F91FF90EF90DF90CF90BF90AF90089521
:10281000CF92DF92EF92FF920F931F93CF93DF93AC
:10282000EC01962F683109F44BC0B901993130F4AD
:102830009431C9F0973189F080E006C0993109F4EC
:1028400061C09032C9F781E0DF91CF911F910F9164
:10285000FF90EF90DF90CF90089550E08DEC93E0E3
:102860000E947409F0CF8C859D85AE85BF85892B2C
:102870008A2B8B2B71F4E881F981A585B0E020EAE1
:1028800036E841E050E00E940F356C877D878E87E7
:102890009F871092A6021092A5021092A802109291
:1028A000A7020E94090988E499E09093D0028093DE
:1028B000CF0289E499E09093D4028093D302C3CFEE
:1028C0002C853D854E855F8560E074E284EF90E065
:1028D0000E945935205131094109510956954795B2
:1028E000379527952093B8008E8990E09595879528
:1028F00091E090938402809362021092A802109259
:10290000A702A1CFD091A702D13208F093C0C09105
:1029100062020E9463086B017C018091F7028111C1
:1029200064C082E08093F70281E08093F9028FEF28
:102930008093F60210921B03D0931A03A4E6B2E030
:10294000EAEFF2E080E0D8137CC010921C03809183
:102950001C03CC0FC82BC0931C038091F80281305C
:1029600009F073C01092F8020E9463086B017C01A9
:1029700080911C038093BB008091AA029091AB02CE
:10298000A091AC02B091AD02892B8A2B8B2B99F0D0
:102990000E9463080091AA021091AB022091AC0240
:1029A0003091AD026C197D098E099F090617170732
:1029B00028073907D8F18091BC0083FDD9CF85EC79
:1029C0008093BC000E9463086B017C018091F70238
:1029D0008230E9F18091F6028F3F61F18091F60239
:1029E000803241F18091F60225C08091AA02909137
:1029F000AB02A091AC02B091AD02892B8A2B8B2B3C
:102A000009F48BCF0E9463080091AA021091AB02D7
:102A10002091AC023091AD026C197D098E099F099D
:102A2000061717072807390708F077CF8091A90202
:102A30000E9427091092A8021092A7021092840205
:102A400002CF9D9191938F5F7ECF85EEB9CF80911C
:102A5000AA029091AB02A091AC02B091AD02892B79
:102A60008A2B8B2B09F4B2CF0E9463080091AA0233
:102A70001091AB022091AC023091AD026C197D092E
:102A80008E099F09061717072807390708F09ECFF8
:102A9000CDCF8F929F92AF92BF92CF92DF92EF9263
:102AA000FF92CF93DF937C01C62F6C32B0F46A3271
:102AB000E8F5683249F1693209F444C080E0C03475
:102AC000B0F1CF73F701EC0FF11D868D8F3F71F1DF
:102AD000C03108F06DC0642F14C06D3209F456C0C7
:102AE00068F384EB860F823048F7CF73CE0DDF2D6D
:102AF000D11D8E8D411158C061E00E94B50760E084
:102B00008E8D0E94870712C02EE1E20EF11CD0E0EC
:102B1000F70181917F018F3F31F061E0D03108F002
:102B200062E00E94B507DF5FD63191F781E0DF9167
:102B3000CF91FF90EF90DF90CF90BF90AF909F909C
:102B40008F900895C42ED12CF12CE12C0E946308A3
:102B50004B015C01C114D104E104F10439F30E947A
:102B60006308681979098A099B09683E73408105E1
:102B7000910580F3F1E0CF1AD108E108F10828EEC1
:102B8000820E23E0921EA11CB11CE4CF85E090E0F0
:102B9000433010F082E090E0880F991F880F991F52
:102BA00005970197F1F7C2CF62E00E94B507BECF4B
:102BB0000E94000721E0892B09F420E0F701218F12
:102BC000B5CFFC0184859585662309F444C097FF41
:102BD0000AC0828593850196608571850E94893837
:102BE000938782870895892BA9F50480F581E02DCC
:102BF000E356FF4F80819181A281B3810597A105A2
:102C0000B10541F48AE090E0A0E0B0E080839183D8
:102C1000A283B38380819181A281B3810197A105B1
:102C2000B10541F485E090E0A0E0B0E080839183BD
:102C3000A283B38380819181A281B381892B8A2B66
:102C40008B2B41F481E090E0A0E0B0E080839183A1
:102C5000A283B383089597FF0BC082859385019764
:102C60009387828797FFF6CF808591850197B8CFAC
:102C7000892B81F70480F581E02DE356FF4F808199
:102C80009181A281B3810597A105B10541F481E04D
:102C900090E0A0E0B0E080839183A283B383808141
:102CA0009181A281B3810A97A105B10541F485E024
:102CB00090E0A0E0B0E080839183A283B383808121
:102CC0009181A281B3810B97A105B10518F28AE029
:102CD00090E0A0E0B0E0BACFDC011496ED91FC9159
:102CE0001597EF54FF4F21E0208312968D919C9110
:102CF0000895BF92CF92DF92EF92FF920F931F93AE
:102D0000CF93DF938C01B62EFC0184819581EC0179
:102D1000CF5BDF4FC880D980EA80FB8083569F4F0E
:102D2000FC0160817181828193810E94BB339B0190
:102D3000AC01C701B601BB2011F10E948B356B01BC
:102D40007C0120E030E042E553E40E94443718164D
:102D500014F1C882D982EA82FB820E948808F801B5
:102D6000C481D581CF55DF4F28EE33E040E050E0FD
:102D70000E945935288339834A835B830CC00E94A3
:102D80008A356B017C0120E030E040EA51E40E948A
:102D9000B63387FFDECFDF91CF911F910F91FF9068
:102DA000EF90DF90CF90BF900895EDEAFBE0DC015B
:102DB0001796FC93EE93169704960C9448132F9253
:102DC0003F924F925F926F927F928F929F92AF92BB
:102DD000BF92CF92DF92EF92FF920F931F93CF9308
:102DE000DF9300D000D01F92CDB7DEB79A838983DE
:102DF000DC011D960D90BC91A02DBD83AC83FC0120
:102E0000F385FB83FD01EB56FF4F80819181A28109
:102E1000B3810C811D810F561F4F892B8A2B8B2B61
:102E200009F5D8016D917D918D919C910E94A836F4
:102E30008B810F900F900F900F900F90DF91CF919B
:102E40001F910F91FF90EF90DF90CF90BF90AF90C8
:102E50009F908F907F906F905F904F903F902F90BA
:102E60000C94F107EC81FD81E359FF4F8081918142
:102E7000A281B381892B8A2B8B2B09F4DEC0EC81D4
:102E8000FD81FD962081318142815381EC81FD815C
:102E9000EF5BFF4F60817181828193810E948A354F
:102EA0006B017C01E981FA8163817481858196815E
:102EB0000E94BB339B01AC01C701B6010E941C34C8
:102EC0006B017C01EC81FD81EB58FF4F208131814A
:102ED000428153810E941C342B013C01EC81FD8115
:102EE000EF57FF4F4082518262827382EC81FD81F5
:102EF000E758FF4F2081318142815381C701B601DC
:102F00000E941C342C803D80F5E82F0E311CD1012D
:102F10002D913D914D915C910E948B354B015C014F
:102F200020E030E0A9010E94B633F10187FD8EC098
:102F300080829182A282B382EC81FD81E357FF4FB0
:102F40002081318142815381C701B6010E948A35B7
:102F5000EC81FD81E358FF4F208131814281538113
:102F60000E941C344B015C018C819D8187579F4FCF
:102F7000DC018D929D92AD92BC921397F10120815C
:102F8000318142815381C301B2010E948B35A50179
:102F900094010E948B354B015C0120E030E0A901D7
:102FA0000E94B63387FD57C0D8018D929D92AD9295
:102FB000BC92139720E030E04FE753E4D8016D91C5
:102FC0007D918D919C910E94443718164CF480E0BD
:102FD00090E0AFE7B3E4F80180839183A283B383E9
:102FE000D8016D917D918D919C910E94A8368B8125
:102FF0000E94F107A981BA811D96ED91FC91E357DA
:10300000FF4FC082D182E282F3820F900F900F9027
:103010000F900F90DF91CF911F910F91FF90EF9044
:10302000DF90CF90BF90AF909F908F907F906F90E8
:103030005F904F903F902F900895D8011D921D9260
:103040001D921C92139770E060E0F2CE1082118204
:103050001282138271CFF8011082118212821382C0
:10306000A9CFFC01258536858385F901E359FF4FFA
:103070004081518162817381452B462B472B39F06A
:103080002F583F4FF901608171810C94F10770E076
:1030900060E0FBCFCF92DF92EF92FF920F931F93EE
:1030A000CF93DF936C01EB017B01E40EF51E10E082
:1030B00000E0CE15DF0561F06991D601ED91FC913C
:1030C0000190F081E02DC6010995080F191FF1CF7D
:1030D000C801DF91CF911F910F91FF90EF90DF908A
:1030E000CF900895CF92DF92EF92FF920F931F93AC
:1030F000CF93DF93EC016C0124E0C20ED11CFC01E4
:10310000E057FF4F0190F081E02DC60109958E3FF9
:10311000EFEF9E07D8F48E010C561F4FF801408147
:1031200051817E01F2E9EF0EF11CF701608171819E
:103130009C01C6010E941812C059DF4F288121301E
:10314000C1F078F02230B9F02330E9F081E090E06E
:10315000DF91CF911F910F91FF90EF90DF90CF9073
:103160000895F70120813181820F931F918380831D
:10317000EDCFF801F7CFF70120813181281B390B02
:1031800031832083E3CFF801F7CF90E080E008950A
:103190000F931F93CF93DF938C01EB01FC01808190
:1031A00091810097E1F06881798161157105A9F03D
:1031B000428153812C813D814217530770F00E9458
:1031C000A93A8C819D81F801958384831D821C829C
:1031D000DF91CF911F910F9108950E9453398881FB
:1031E0009981F801918380838A819B819383828373
:1031F0008C819D8195838483198218821B821A8217
:10320000E5CFCF93DF93EC0188819981009711F08E
:103210000E945339198218821D821C821B821A82D5
:10322000DF91CF910895FC0180819181009711F089
:103230000C94533908950F931F93CF93DF93EC01B0
:1032400088819981009759F02A813B812617370799
:1032500030F081E0DF91CF911F910F9108958B01A4
:103260006F5F7F4F0E94DC39009759F09983888304
:103270001B830A832C813D81232B59F7FC0110828B
:10328000E8CF80E0E7CFEF92FF920F931F93CF93A9
:10329000DF936115710541F480E0DF91CF911F91BB
:1032A0000F91FF90EF90089541155105B1F07B010A
:1032B000EC010C811D81040F151FB8010E941B1920
:1032C000882351F3288139818C819D81B701820F38
:1032D000931F0E94A93A1D830C8381E0DECFCF9318
:1032E000DF93EC01FB0144815581608171810E9473
:1032F0004319811103C0CE010E940119CE01DF9153
:10330000CF910895EF92FF920F931F93CF93DF9386
:10331000EC017B018A01BA010E941B1981110BC0CB
:10332000CE010E940119CE01DF91CF911F910F9123
:10333000FF90EF9008951D830C83B70188819981D8
:103340000E94A93AF0CFFB0101900020E9F73197E4
:10335000AF01461B570B0C9482190F931F93CF9309
:10336000DF93CDB7DEB7A2970FB6F894DEBF0FBEDE
:10337000CDBF8C01CB01BA01F801118210821382FA
:103380001282158214822AE0AE014F5F5F4F0E94C5
:103390005B33BE016F5F7F4FC8010E94A319A296E5
:1033A0000FB6F894DEBF0FBECDBFDF91CF911F9156
:1033B0000F9108950F931F93CF93DF93CDB7DEB78F
:1033C00062970FB6F894DEBF0FBECDBF8C01CB0164
:1033D000F8011182108213821282158214824AE04F
:1033E000BE016F5F7F4F0E945033BE016F5F7F4F02
:1033F000C8010E94A31962960FB6F894DEBF0FBEF3
:10340000CDBFDF91CF911F910F910895CF93DF939F
:10341000EC01FB018617970749F060817181611506
:10342000710541F0448155810E948219CE01DF91DE
:10343000CF9108950E940119F9CFFC0111821082E9
:103440001382128215821482FB0101900020E9F799
:103450003197AF01461B570B0C94821985ED809371
:10346000BC008091AA029091AB02A091AC02B091F5
:10347000AD020796A11DB11D23E0B695A7959795BE
:1034800087952A95D1F72091BC0024FD03C01092A6
:10349000F70208954091AA025091AB026091AC02EC
:1034A0007091AD02452B462B472B69F30097A10580
:1034B000B10541F025E32A95F1F700000197A10934
:1034C000B109E1CF8091A9020C942709FC01A081E8
:1034D000B18150962C9182AD38E0839FC0011124B8
:1034E000289FA001299F500D112470E060E080AD5D
:1034F00091AD0C94A23A1F93CF93DF93EC010E94FD
:10350000AC131BAD8AAD180FE881F98181891817BA
:1035100068F0EC81FD8130E020E040E060E1CE0128
:10352000099580E0DF91CF911F910895FE01E55745
:10353000FF4F8081882319F0CE010E94661A612F07
:10354000CE010E94991381E0EDCFCF93DF93EC0180
:10355000FC01E557FF4F8081882319F0CE010E94BE
:10356000661A60E0CE01DF91CF910C9499132F92EF
:103570003F924F925F926F927F928F929F92AF9203
:10358000BF92CF92DF92EF92FF920F931F93CF9350
:10359000DF93CDB7DEB76D970FB6F894DEBF0FBEE1
:1035A000CDBF1C01DC0114968D919C911597FC01F7
:1035B000EB55FF4F4081518162817381452B462B32
:1035C000472B09F499C016968D919C9104960E9400
:1035D000A51AF101C680D7805601F4E0AF0EB11CE8
:1035E00000E410E020E630E050E040E060E270E00F
:1035F000C5010E94710C882309F450C038E0832E65
:1036000031E0932EF12CE12C26012EE8420E511CC4
:10361000A60143575F4F5D8F4C8FC70101969B8F6B
:103620008A8F8C0120E630E0A70160E270E0C501DE
:103630000E94710C882341F1D201BC91B98F3401F1
:1036400020E2C22ED12C11E0F3018491812309F4F0
:1036500047C0E98DD201EC9300E021E030E0A70102
:10366000B601C5010E94740DFFEFCF1ADF0A110FDA
:1036700021F42FEF621A720A11E030E6C316D1046A
:1036800019F7E98DD201EC93F8E08F0E911CEA8CCA
:10369000FB8C20E4E216F10409F0BFCFD1011696AD
:1036A0008D919C9104960E947B1A811192CF6D9608
:1036B0000FB6F894DEBF0FBECDBFDF91CF911F9143
:1036C0000F91FF90EF90DF90CF90BF90AF909F90C1
:1036D0008F907F906F905F904F903F902F900895C4
:1036E000AC8DBD8D8C918111BFCF81E0B98DB111B1
:1036F00080E0F2018083B0CF8F549F4F21E0FC0126
:10370000208361E272E0CE0143960E941D1AD1012E
:1037100016968D919C9104960E94A51AF1018681BE
:1037200097816CE175E004960E941C10D1011696F9
:103730008D919C9161E004960E946F0D6FED71E098
:10374000CE0143960E94A319F10106811781EB88EF
:10375000FC88B701C80104960E94111264E370E06E
:10376000681B790B97014BE050E0C8010E94D51609
:1037700064EE71E0CE0143960E94A3192B893C8927
:103780004BE050E06CE470E0D10116968D919C9175
:103790000E94D516F1018681978168E370E0049656
:1037A0000E944F0ED1011496ED91FC91FD96C080C0
:1037B000D180E280F38020E030E040EA51E4C701AC
:1037C000B6010E94B63387FD4CC220E030E042E5EE
:1037D00053E4C701B6010E944437181634F4C12CD3
:1037E000D12C92E5E92E93E4F92E20E030E040EA76
:1037F00051E4C701B6010E948A3520E030E040E084
:1038000052E40E941C3420E030E04EE353E40E9476
:10381000FC354B015C0120E030E0A9010E944437F7
:1038200020E030E040E05FE387FD22C2C501B40143
:103830000E948B350E94A83642E250E0461B570B8F
:10384000F101868197819B0168E370E004960E94F4
:103850001F0ED10116968D919C9162E470E0049642
:103860000E944F0ED1011496ED91FC91EF5BFF4F3A
:1038700080809180A280B38020E030E040EA51E473
:10388000C501B4010E94B63370E060E087FD45C019
:1038900020E030E042E553E4C501B4010E94443722
:1038A00060E270E01816CCF120E030E040EA51E42C
:1038B000C501B4010E948A3520E030E040E052E4C6
:1038C0000E941C3420E030E04EE353E40E94FC35BB
:1038D0002B013C0120E030E0A9010E94443787FD24
:1038E000CCC120E030E040EA51E4C501B4010E94BF
:1038F0008A3520E030E040E052E40E941C3420E0B1
:1039000030E04EE353E40E94FC3520E030E040E03C
:103910005FE30E948B350E94A83642E250E0461BCE
:10392000570BF101868197819B0162E470E0049658
:103930000E941F0ED10116968D919C9162E673E054
:1039400004960E941C1020E030E0A901C701B601D6
:103950000E94443720E030E040E05FE387FD96C1FD
:10396000C701B6010E948B350E94A836CE01019690
:103970000E94DA19BE016F5F7F4FCE0143960E940D
:10398000C818CE0101960E941319F101E680F78054
:10399000AB88BC886701F4E0CF0ED11CE5E4F5E00C
:1039A000D7011796FC93EE931697B501C6010E94B6
:1039B0006111E5E4F5E0D7011796FC93EE931697B5
:1039C00064E370E0681B790B950142E250E0C601A8
:1039D0000E944813D1011496ED91FC91EF5BFF4FCB
:1039E00060817181828193810E94A836CE01019607
:1039F0000E94DA19BE016F5F7F4FCE0143960E948D
:103A0000C818CE0101960E941319F1018681978191
:103A10002B893C89E5E4F5E0DC011796FC93EE93F5
:103A2000169742E250E06CE470E004960E9448135E
:103A3000D10116968D919C916CE175E004960E94DF
:103A40001C1069EE71E0CE0101960E941D1ABE01A4
:103A50006F5F7F4FCE0143960E94C818CE0101963A
:103A60000E9413192B893C894EE250E061E470E01A
:103A7000F101868197810E94D516D1011696ED90AD
:103A8000FC90B4E0EB0EF11C0AE210E02FE330E012
:103A900045E250E06AE370E0C7010E94710C8111B9
:103AA000FAC0D1011496ED91FC9165A976A987A978
:103AB00090AD2CE330E040E050E00E94F034AB01E8
:103AC000BC01CE010D960E94AD19D1011496ED9165
:103AD000FC9165A976A987A990AD2CE330E040E080
:103AE00050E00E94F034BA01A901CE0101960E9473
:103AF000AD1918861F821A8619861C861B86BE0180
:103B00006F5F7F4FCE0107960E94061A41E050E09A
:103B10006BEE71E0CE0107960E944319882309F4E9
:103B2000D0C0BE01635F7F4FCE0107960E946F1920
:103B30007C0141E050E06DEE71E00E94431981117B
:103B400003C0C7010E940119B701CE0143960E942C
:103B5000061ACE0107960E941319CE0101960E9403
:103B60001319CE010D960E941319D1011496ED91EF
:103B7000FC91DF01A359BF4F8D919D910D90BC9198
:103B8000A02D892B8A2B8B2BD1F485A996A9A7A9C7
:103B9000B0AD892B8A2B8B2B09F098C06FEE71E0AA
:103BA000CE0101960E941D1ABE016F5F7F4FCE01AC
:103BB00043960E94C818CE0101960E941319F10184
:103BC00006811781EB88FC88B701C80104960E9422
:103BD000111260E870E0681B790B90E080E00E94B1
:103BE000BB3320E030E040E05FE30E941C3420E083
:103BF00030E0A9010E944437D10116962D913C91E5
:103C00006B897C8987FD70C0C90104960E941112DE
:103C100060E870E0681B790B90E080E00E94BB33A5
:103C200020E030E040E05FE30E941C3420E030E020
:103C300040E05FE30E948B350E94A83697014EE377
:103C400050E0C8010E94D516F10186819781049643
:103C50000E947B1A811162CDCE0143960E941319F6
:103C600026CDC12CD12C80EAE82E81E4F82EBDCDE2
:103C7000C501B4010E948A35DDCD20E030E040E08E
:103C80005FE3C301B2010E948A3545CEC701B60188
:103C90000E948A3569CE42E050E070E060E0C701E2
:103CA0000E94B00E42E050E061E070E0C7010E9467
:103CB000B00E41E050E062E070E0C7010E94B00E3B
:103CC000F0CECE0107960E9401192BCF1A821982DD
:103CD0001C821B821E821D82BE016D5E7F4FCE0143
:103CE00001960E94061A60CFC90104960E94111223
:103CF00060E870E0681B790B90E080E00E94BB33C5
:103D000020E030E040E05FE30E941C3420E030E03F
:103D100040E05FE30E948A358FCF4F925F926F92AF
:103D20007F928F929F92AF92BF92CF92DF92EF924B
:103D3000FF920F931F93CF93DF93EC010D891E89A0
:103D40000530110509F0DAC01E8A1D8A6B857C8555
:103D50008D859E85680F791F8F859889680F791FDB
:103D600089899A89680F791F0F89188D8B899C8999
:103D7000680F791F072E000C880B990B0E94BD332A
:103D800020E030E040EA50E40E94FC359B01AC01A9
:103D9000F801EB5BFF4F208331834283538360E064
:103DA00070EC8FE794E40E94FC3520E030E040E8BE
:103DB0005FE30E948A359B01AC0160E070E583EC13
:103DC00097E40E94FC3520E030E543EC57E40E9484
:103DD000FC350E94933720E030EE46E755E40E9420
:103DE000FC352FE03FEC4BE55BE30E948B359B01FC
:103DF000AC0160E070E080E89FE30E94FC3523E3C3
:103E000033E948E853E40E948A3520E030E040E09E
:103E100050E40E948A356B017C01F801C1AED2AE3C
:103E2000E3AEF4AEE359FF4F80819181A281B3816B
:103E3000892B8A2B8B2B09F44AC020E030E040E428
:103E400050E4C701B6010E940F384B015C01F80134
:103E5000E35BFF4F2081318142815381C701B6016D
:103E60000E941C34F801E75BFF4F208131814281C1
:103E700053810E948B352B013C01A7019601C7019C
:103E8000B6010E941C34F801EF5AFF4F20813181A6
:103E9000428153810E941C349B01AC01C301B201D9
:103EA0000E948B356B017C01F801EB5AFF4F20819A
:103EB000318142815381C501B4010E941C349B01B0
:103EC000AC01C701B6010E948B356B017C01F80182
:103ED000FD96C082D182E282F382DF91CF911F9161
:103EE0000F91FF90EF90DF90CF90BF90AF909F9099
:103EF0008F907F906F905F904F900895898D98017B
:103F00002F5F3F4F3E8B2D8B0E944E08000F111FDD
:103F1000C00FD11F9C878B87E0CFFF920F931F9319
:103F2000CF93DF93FC01DC01AF5BBF4F8D919D917F
:103F30000D90BC91A02D85A396A3A7A3B0A7DF01E8
:103F4000A75ABF4F81E04D915D916D917C91452BBA
:103F5000462B472B09F480E0848FDF01AB59BF4F1C
:103F60008D919D910D90BC91A02D858F968FA78FDF
:103F7000B0A3DF01A759BF4F8D919D910D90BC91CA
:103F8000A02D81A392A3A3A3B4A3DF01A356BF4F87
:103F90008D919D910D90BC91A02D81A792A7A3A773
:103FA000B4A7DF01A755BF4F8D919D910D90BC9196
:103FB000A02D85A796A7A7A7B0ABDF01CF0140969C
:103FC000ED01C75BDF4F488159816A817B814D9349
:103FD0005D936D937D93A817B90791F7DF01AB58F7
:103FE000BF4F8D919D910D90BC91A02D808B918B99
:103FF000A28BB38BDF01A758BF4F8D919D910D9080
:10400000BC91A02D848B958BA68BB78BDF01A35819
:10401000BF4F8D919D910D90BC91A02D808F918F60
:10402000A28FB38FDF01AF58BF4F8D919D910D903F
:10403000BC91A02D81AB92ABA3ABB4ABEF0110E070
:1040400000E0F990C8010E94DA34F81621F06F2DD3
:10405000C8010E94E2340F5F1F4F0533110589F735
:10406000DF91CF911F910F91FF900895FC01E359CB
:10407000FF4F1082118212821382EC5BFF4F21E00E
:104080002083F0971082118212821382349610825C
:10409000118212821382349610821182128213824C
:1040A0003496108211821282138234961082118209
:1040B00012821382F4971082118212821382349634
:1040C0001082118212821382B097408151816281E5
:1040D0007381FC0145A356A367A370A70C948D1FA1
:1040E000CF93DF93EC018C819D81FC01E359FF4F5D
:1040F0004081518162817381452B462B472B89F486
:1041000041E050E060E070E040835183628373835C
:104110008F549F4F21E0FC012083CE01DF91CF918E
:1041200008950E943620F9CFCF93DF93EC018C8164
:104130009D810E948D1FEC81FD81EF54FF4F81E036
:1041400080838A819B81DF91CF9108950F931F9384
:10415000CF93DF93EC018A859B85009769F48C856A
:104160009D8597FF04C01D861C86CE013FC08FEF42
:104170009FEF9D878C87F9CF8130910501F58C8168
:104180009D81DC01A75ABF4F41E050E060E070E044
:104190000D911D912D913C911397012B022B032B17
:1041A00019F040E050E0BA014D935D936D937C931C
:1041B00013978F549F4F21E0FC012083D6CF82308C
:1041C000910531F48C819D81DC01A755BF4FDCCF77
:1041D000039759F68C819D810E948D1FEC81FD8192
:1041E000EF54FF4F81E080838A819B81DF91CF91E3
:1041F0001F910F910895EF92FF920F931F93CF930A
:10420000DF93EC017C0110E000E0C8010E94DA3489
:10421000F70181937F010F5F1F4F05331105A9F748
:104220008DA19EA1AFA1B8A5FE01EF5BFF4F8083DA
:104230009183A283B383FE01CE01409641915191B7
:1042400061917191DF01AB5BBF4F4D935D936D93B6
:104250007C9313978E179F0789F7FE01EB58FF4F4A
:1042600088899989AA89BB8980839183A283B38332
:1042700034968C899D89AE89BF8980839183A2837E
:10428000B3833496888D998DAA8DBB8D808391835D
:10429000A283B383B4978C8D90E0B0E0A0E08083DC
:1042A0009183A283B3833C968D8D9E8DAF8DB8A1F3
:1042B00080839183A283B383349689A19AA1ABA111
:1042C000BCA180839183A283B383F49689A59AA528
:1042D000ABA5BCA580839183A283B3833C968DA5B7
:1042E0009EA5AFA5B8A980839183A283B383F897D5
:1042F00089A99AA9ABA9BCA980839183A283B3831E
:10430000DF91CF911F910F91FF90EF9008958F92C1
:104310009F92AF92BF92CF92DF92EF92FF920F9354
:104320001F93CF93DF93CDB7DEB7E9970FB6F8941D
:10433000DEBF0FBECDBF8C0161E272E0CE01C4963C
:104340000E941D1AD80116968D919C916CE175E022
:1043500004960E941C10F8018681978104960E94A1
:10436000A51A80E8C82ED12CD80116968D919C9163
:1043700061E004960E946F0DF12CE12CF80186811A
:104380009781049620853185E216F3060CF085C1ED
:10439000228533852E153F0521F42485358560E07F
:1043A00037FF61E00E946F0DD8011696AD90BC906A
:1043B000E114F10409F087C02CEF31E04DE050E04A
:1043C00070E060E0C5010E94D516F80122853385B2
:1043D00086819781232B29F42485358560E0232B62
:1043E00009F061E004960E946F0D60E272E0CE0178
:1043F0008E960E941D1AD8011496ED91FC91E356F9
:10440000FF4F608171818281938119A618A61BA636
:104410001AA61DA61CA62AE0AE014F5F5F4F0E94A0
:104420006A33BE016F5F7F4FCE0188960E94A31949
:1044300060E272E0CE0101960E941D1A1BA21AA230
:104440001DA21CA21FA21EA2BE016F5F7F4FCE0144
:1044500082960E94061ABE01685D7F4FCE01829649
:104460000E946F19BE01625D7F4F0E946F19BC01EF
:10447000CE01C4960E94061ACE0182960E9413199C
:10448000CE0101960E941319CE0188960E9413193D
:10449000CE018E960E941319F801A680B7808CA8D1
:1044A0009DA8B401C50104960E941112B601681BB3
:1044B000790B94014DE050E0C5010E94D516FFEF45
:1044C000EF1AFF0A5BCFF1E0EF16F10409F043C0E9
:1044D0002FE032E04AE150E070E060E0C5010E9468
:1044E000D516D8011496ED91FC91E75AFF4F8081C3
:1044F0009181A281B38166EF71E0892B8A2B8B2B8E
:1045000011F469EF71E0CE0101960E941D1ABE01FF
:104510006F5F7F4FCE01C4960E94C818CE010196EE
:104520000E941319F8018681978161E004960E9428
:104530006F0DD8011696AD90BC908CA89DA8B401C3
:10454000C50104960E941112B601681B790B9401F3
:104550004AE150E0B1CFB2E0EB16F10409F043C0FC
:1045600022E232E047E250E070E060E0C5010E94E4
:10457000D516D8011496ED91FC91E755FF4F808137
:104580009181A281B38166EF71E0892B8A2B8B2BFD
:1045900011F469EF71E0CE0101960E941D1ABE016F
:1045A0006F5F7F4FCE01C4960E94C818CE0101965E
:1045B0000E941319F8018681978161E004960E9498
:1045C0006F0DD8011696AD90BC908CA89DA8B40133
:1045D000C50104960E941112B601681B790B940163
:1045E00047E250E069CFB3E0EB16F10409F067CF82
:1045F00065E372E0C50104960E941112B601681BC2
:10460000790B90E080E00E94BB3320E030E040E096
:104610005FE30E941C3420E030E0A9010E9444378F
:10462000F8012681378165E372E087FD1EC0C9016C
:1046300004960E941112B601681B790B90E080E08D
:104640000E94BB3320E030E040E05FE30E941C3476
:1046500020E030E040E05FE30E948B350E94A83606
:1046600025E332E044E350E027CFC90104960E94DD
:104670001112B601681B790B90E080E00E94BB33F9
:1046800020E030E040E05FE30E941C3420E030E0B6
:1046900040E05FE30E948A35E1CF0E947B1A8111DE
:1046A00063CECE01C4960E941319E9960FB6F89412
:1046B000DEBF0FBECDBFDF91CF911F910F91FF9055
:1046C000EF90DF90CF90BF90AF909F908F90089524
:1046D0002F923F924F925F926F927F928F929F9212
:1046E000AF92BF92CF92DF92EF92FF920F931F9300
:1046F000CF93DF9300D000D000D0CDB7DEB79E833C
:104700008D831C012BE5220E311CD101ED91FC9112
:10471000EE54FF4F8081811110C080E393E00E942E
:104720002806181619064CF4F1018081918161E088
:1047300070E08E549F4F0E949408D1010D911C91FE
:10474000F801EE54FF4F80818031F9F40E9488080F
:10475000F801E756FF4F608371838283938310E0F3
:1047600000E0F101608171810C37110509F448C145
:104770006B5C7F4F600F711F44E050E080E393E07B
:104780000E94CA050C5F1F4FECCF813109F0AEC407
:1047900060E570E08D819E810B960E949408ED810A
:1047A000FE81E95AFF4F80819181A281B3818C33D0
:1047B0009D42AE41BF4009F023C1D101ED91FC9172
:1047C000EF5BFF4FAD81BE811B962D913D914D91C9
:1047D0005C911E9760817181828193810E94B633C2
:1047E000882399F00E948808F101008111810F55FA
:1047F0001F4F28EE33E040E050E00E945935D801C9
:104800002D933D934D935C931397F101008111819A
:1048100098012F5B3F4FED81FE8183859485A585AF
:10482000B685F90180839183A283B383205D3F4FD6
:10483000ED81FE8187859089A189B289F901808304
:104840009183A283B383F496AD81BE81A15BBF4FF8
:104850008D919D910D90BC91A02D80839183A28319
:10486000B383ED81FE8183899489A589B689F80196
:10487000EB56FF4F80839183A283B3832851310984
:10488000ED81FE8147A950AD61AD72ADF901408364
:104890005183628373837801FDE9EF0EF11C2D8152
:1048A0003E81255B3F4FF9014081518162817381D7
:1048B000F70140835183628373837801F9EAEF0E35
:1048C000F11C2D813E812D5A3F4FF90140815181CC
:1048D00062817381F7014083518362837383892BE3
:1048E0008A2B8B2B99F47801F1E9EF0EF11CAD8145
:1048F000BE8157966D917D918D919C915A970E94A2
:10490000BB33F70160837183828393839801275BB4
:104910003F4FED81FE81838D948DA58DB68DF9017C
:1049200080839183A283B3832C5F3F4FED81FE810F
:10493000878D90A1A1A1B2A1F90180839183A28367
:10494000B3832C5F3F4FED81FE8183A194A1A5A18C
:10495000B6A1F90180839183A283B3832C5F3F4F7B
:10496000ED81FE8187A190A5A1A5B2A5F901808363
:104970009183A283B383205E3F4FED81FE8183A5A7
:1049800094A5A5A5B6A5F90180839183A283B383DD
:104990002C5F3F4FED81FE8187A590A9A1A9B2A907
:1049A000F90180839183A283B3832C5F3F4FED8114
:1049B000FE8183A994A9A5A9B6A9F9018083918351
:1049C000A283B38328513109ED81FE8183AD94AD7B
:1049D000A5ADB6ADF90180839183A283B3833496EC
:1049E000AD81BE81DF968D919D910D90BC91A02DE2
:1049F00080839183A283B383E85BFF4F81E0808350
:104A0000D1010D911C91F801EE54FF4F1082E55732
:104A1000F10980809180A280B380C501B4010E9419
:104A2000A8367B01CD80DE80B1E6CB0ED11CF6012D
:104A300060817181828193810E94A836E616F70613
:104A400059F0D6018D929D92AD92BC92139781E060
:104A5000F801EF54FF4F8083F801E359FF4F408185
:104A600051816281738181E04115510561057105B4
:104A700009F480E0ED80FE80B7E7EB0EF11CF70152
:104A800090810D811E81035A1F4F9817E1F080839A
:104A9000452B462B472B09F440C00E948808ED8126
:104AA000FE81E858FF4F6083718382839383D10135
:104AB000ED91FC9115AA16AA17AA10AEF801108262
:104AC000118212821382D7018C91882331F10E94C6
:104AD0008808ED81FE81E858FF4FC080D180E280D8
:104AE000F3806C197D098E099F09ED81FE81E458E0
:104AF000FF4F6083718382839383F101E080F180B3
:104B000028EE33E040E050E00E945935D701D596B9
:104B10002D933D934D935C93D897F1012081318182
:104B2000F90185A996A9A7A9B0ADF80140815181E5
:104B30006281738184179507A607B70749F08083C0
:104B40009183A283B383F901EF54FF4F81E0808307
:104B50000D811E8103591F4FED80FE80FFE6EF0E91
:104B6000F11CD7018D919C91F80191838083ED8197
:104B7000FE81E559FF4F80810E94000721E030E06F
:104B8000009711F030E020E0D7012D933C93F8011D
:104B9000208131812130310599F5892B89F1D101AD
:104BA000ED91FC91E954FF4F8081811111C00D817D
:104BB0001E8107591F4FF80180819181DC01ED9121
:104BC000FC910480F581E02D0995F80191838083A3
:104BD000D101ED91FC91EF54FF4F81E080830E9461
:104BE0008808F10120813181F901ED54FF4F608384
:104BF000718382839383C90189549F4FDC011C9286
:104C00000D811E810D581F4FED80FE80B5E7EB0E24
:104C1000F11CF70180819181D8018D939C93ED81E6
:104C2000FE81EF58FF4F80810E94000721E030E0B5
:104C3000009711F030E020E0F70131832083D801A4
:104C40002D913C912130310599F5892B89F1D101C4
:104C5000ED91FC91E954FF4F8081811111C00D81CC
:104C60001E8107591F4FF80180819181DC01ED9170
:104C7000FC910680F781E02D0995F80191838083EE
:104C8000D101ED91FC91EF54FF4F81E080830E94B0
:104C90008808F10120813181F901ED54FF4F6083D3
:104CA000718382839383C90189549F4FDC011C92D5
:104CB0004091D9035091DA036091DB037091DC03DA
:104CC0000D811E810B591F4FF80180819181A281B6
:104CD000B3810396A11DB11D84179507A607B707D9
:104CE0009CF5D101ED91FC91E954FF4F8081811138
:104CF00013C0F8014083518362837383ED81FE8189
:104D0000E759FF4F80819181DC01ED91FC91028098
:104D1000F381E02D61E00995D101ED91FC91EF5413
:104D2000FF4F81E080830E948808F101208131815A
:104D3000F901ED54FF4F6083718382839383C9012E
:104D400089549F4FDC011C924091D9035091DA03A2
:104D50006091DB037091DC03F80180819181A28175
:104D6000B3810397A109B109481759076A077B075F
:104D70009CF5D101ED91FC91E954FF4F80818111A7
:104D800013C0F8014083518362837383ED81FE81F8
:104D9000E759FF4F80819181DC01ED91FC91028008
:104DA000F381E02D60E00995D101ED91FC91EF5484
:104DB000FF4F81E080830E948808F10120813181CA
:104DC000F901ED54FF4F6083718382839383C9019E
:104DD00089549F4FDC011C920E948808613D7740F6
:104DE00081059105B0F00E94880864337840810500
:104DF000910578F4D1018D919C91FC01EB55FF4F09
:104E000010821182128213828F549F4F21E0FC0185
:104E100020830E948808F101A081B181FD01ED5439
:104E2000FF4F0081118122813381AB01BC01401B06
:104E3000510B620B730B41365A4E6105710508F434
:104E40001AC1FD01E755FF4F408151816281738195
:104E5000452B462B472B09F40EC1FC97408151810D
:104E600062817381452B462B472B09F004C1CD018C
:104E700089549F4F21E0DC012C93ED81FE81E7599D
:104E8000FF4F208131813A832983D90116968D9174
:104E90009C9104960E94A51AE981FA8184819581EA
:104EA000FC01E854FF4F2FEF38E949E150E420833B
:104EB00031834283538384549F4F20E030E048E99C
:104EC00050E4DC012D933D934D935C931397E0E503
:104ED000F0E0FC83EB83A981BA8114968D919C91BB
:104EE000FC01E454FF4FC080D180E280F3808854FD
:104EF0009F4FFC0180809180A280B380C501B401E6
:104F00000E94F7359B01AC01C701B6010E941C3419
:104F10002B013C0120E030E0A9010E94443720E051
:104F200030E040E05FE387FD80C1C301B2010E9431
:104F30008B350E94A8368B01005C1F4FC501B40160
:104F40000E945F389B01AC01C701B6010E941C346E
:104F50006B017C0120E030E0A9010E94443720E091
:104F600030E040E05FE387FD65C1C701B6010E9404
:104F70008B350E94A836605E7F4F0038110568F4BB
:104F80006034710550F4A981BA8116968D919C9177
:104F9000AB01B80104960E948E0EE981FA8164800B
:104FA00075802301F0EC4F0E511CD2018D909D9025
:104FB000AD90BC90830108541F4F2FEF38E949E1B1
:104FC00050E4C501B4010E948B35F8012081318184
:104FD000428153810E948B356B017C012BED3FE0B8
:104FE00049EC50E40E94443718160CF428C1D8014B
:104FF000CD92DD92ED92FC921397FCEB6F0E711C3B
:1050000020E030E040E45FE3D3016D917D918D912C
:105010009C910E948B35F30160837183828393831B
:105020002B813C81215031093C832B83232B09F0B8
:1050300052CF28E934EC43E858E3C501B4010E949B
:105040008B356B017C012BED3FE049EC50E40E9475
:10505000443787FF02C1D201CD92DD92ED92FC92DE
:105060001397A981BA8116968D919C9104960E94FE
:105070007B1A811111CFF10180819181FC01EF54E4
:10508000FF4F20812223C9F089549F4FDC018C916E
:10509000811113C0ED81FE81E759FF4F808191811D
:1050A000DC01ED91FC910190F081E02D0995D10199
:1050B000ED91FC91EF54FF4F108226960FB6F894B5
:1050C000DEBF0FBECDBFDF91CF911F910F91FF903B
:1050D000EF90DF90CF90BF90AF909F908F907F9098
:1050E0006F905F904F903F902F900895803271F4B1
:1050F000F801E359FF4F81E090E0A0E0B0E0808349
:105100009183A283B383EC5BFF4F79CC813221F48E
:10511000C8010E94362074CC803309F07FC0F801AA
:10512000E75BFF4F80E09CE5A1E6B2EC80839183D2
:10513000A283B383349680E096E4A0E8B0E4808351
:105140009183A283B38334968EEB97E6A4EABCEBFB
:1051500080839183A283B383349680E290EFA0E4AE
:10516000B8E380839183A283B383749780E090E057
:10517000A4E3B3E480839183A283B383F4968AE0AB
:1051800097EDA3E2BDE380839183A283B38334963A
:1051900087E197EBA1EDB8E380839183A283B3838A
:1051A00034968FE892ECA5E7BDE380839183A283D8
:1051B000B383B49781E090E0A0E0B0E08083918376
:1051C000A283B3833C964AE057ED63E27CE34083DD
:1051D00051836283738334964AE959E969E97DEB27
:1051E0004083518362837383F49680839183A28387
:1051F000B383BC974FEF50E060E070E04083518391
:1052000062837383F89680839183A283B383C801FA
:105210000E948D1FC8010E94FB20F2CB813309F050
:10522000EFCBC8010E948D1FEBCBC301B2010E94DE
:105230008A357FCEC701B6010E948A359ACE2BED02
:105240003FE049EC50E4C701B6010E948A35F801FD
:105250006083718382839383D0CEF20110821182A6
:1052600012821382FECE2F923F924F925F926F92E4
:105270007F928F929F92AF92BF92CF92DF92EF92E6
:10528000FF920F931F93CF93DF93CDB7DEB768974D
:105290000FB6F894DEBF0FBECDBF988F8F8BDC01A9
:1052A000D9960D911C91F801FD9680819181A28182
:1052B000B38189879A87AB87BC87AF89B88D9B9666
:1052C000ED90FC909C976701CC0CDD1CCC0CDD1C98
:1052D000CA0EDB1E20E030E048EC53E469857A8595
:1052E0008B859C850E94FC35F601638774878587D2
:1052F0009687F801EF56FF4F20E030E04FE753E488
:1053000060817181828193810E94FC35D6015B9618
:105310006D937D938D939C935E97C7010196E4E016
:10532000F0E0BF010E9489389C01AF89B88D9C963E
:105330009C938E939B971C01220C331C220C331CD4
:105340002A0E3B1ED1011B96CD90DD90ED90FC9076
:105350001E970196BF010E948938880F991F880FF8
:10536000991F4F89588D480F591F5E874D87DA0165
:105370001B968D909D90AD90BC901E97C901029692
:10538000BF010E948938880F991F880F991FEF89E4
:10539000F88DE80FF91FF88BEF8783859485A58535
:1053A000B68589839A83AB83BC832D5F3F4F23707F
:1053B0003327220F331F220F331FEF89F88DE20F9F
:1053C000F31FFA8BE98B83859485A585B6858D833C
:1053D0009E83AF83B88720E030E0A901C701B60102
:1053E0000E941C342B013C0120E030E040E85EE3E9
:1053F000C501B4010E941C349B01AC01C301B20180
:105400000E948B352B013C0120E030E040E05FE35F
:1054100069817A818B819C810E941C349B01AC0143
:10542000C301B2010E948B352B013C0120E030E02A
:1054300040E45FE36D817E818F8198850E941C34FA
:105440009B01AC01C301B2010E948B3520E030E02A
:1054500040EC5FE30E94FC352B013C01A501940167
:10546000C701B6010E948B3529813A814B815C814D
:105470000E948B352D813E814F8158850E948B354E
:1054800020E030E040E85EE30E941C349B01AC0168
:10549000C301B2010E948A3524E535E545E55EE3A6
:1054A0000E94FC356B8B7C8B8D8B9E8BF801E35AB5
:1054B000FF4F6083718382839383F101838C948C8B
:1054C000A58CB68CAD85BE855B964D905D906D903C
:1054D0007C905E97AF85B8895B968D919D910D907C
:1054E000BC91A02D89839A83AB83BC83A989BA8997
:1054F0005B968D919D910D90BC91A02D8D839E8387
:10550000AF83B887A3019201C501B4010E948B3516
:1055100029813A814B815C810E948B352D813E81AE
:105520004F8158850E948B356B017C01EF89F88D86
:10553000C5A6D6A6E7A6F0AA20E030E0A901C501DD
:10554000B4010E941C344B015C0120E030E040E8D3
:105550005EE3C301B2010E941C349B01AC01C50192
:10556000B4010E948B354B015C0120E030E040E04B
:105570005FE369817A818B819C810E941C349B014D
:10558000AC01C501B4010E948B354B015C0120E0E8
:1055900030E040E45FE36D817E818F8198850E94D9
:1055A0001C349B01AC01C501B4010E948B35AF894D
:1055B000B88DD1966D937D938D939C93D49720E075
:1055C00030E040EC5FE30E94FC354B015C0120E0E1
:1055D00030E040E85EE3C701B6010E941C349B0145
:1055E000AC01C501B4010E948A3524E535E545E5E5
:1055F0005EE30E94FC354B015C01F801EF59FF4F5F
:1056000080829182A282B382F80145A856A867A839
:1056100070ACAF89B88DD596CD90DD90ED90FC90B3
:10562000D897F7FAF094F7F8F094C301B2010E940A
:10563000BD3320E030E040E252E40E948A359B0115
:10564000AC01C701B6010E941C3420E030E040E20A
:1056500052E40E94FC350E9476366B017C01F80111
:10566000E75AFF4F80819181A281B381892B8A2BD8
:105670008B2B09F48DC0B9E24B16510461047104FF
:105680000CF486C0FC9680819181A281B381892B24
:105690008A2B8B2B09F47CC0E455F10920813181E0
:1056A0004281538169857A858B859C850E94443728
:1056B00018160CF06DC0F801EB59FF4F20813181B5
:1056C00042815381C701B6010E941C349B01AC0189
:1056D0006B897C898D899E890E94443718160CF04D
:1056E00057C0F801E759FF4F208131814281538132
:1056F000C701B6010E941C349B01AC01C501B40175
:105700000E94B63387FF44C00E94880828EE33E029
:1057100040E050E00E945935AF89B88DD996ED919F
:10572000FC91EF55FF4F80819181A281B381281BAD
:10573000390B4A0B5B0B2B3031054105510540F10C
:105740000E948808EF89F88D21AD32ADF901ED5442
:10575000FF4F6083718382839383C90168960FB67C
:10576000F894DEBF0FBECDBFDF91CF911F910F9197
:10577000FF90EF90DF90CF90BF90AF909F908F9071
:105780007F906F905F904F903F902F900C943620B9
:1057900068960FB6F894DEBF0FBECDBFDF91CF91F4
:1057A0001F910F91FF90EF90DF90CF90BF90AF903F
:1057B0009F908F907F906F905F904F903F902F9031
:1057C00008951F920F920FB60F9211242F933F93BB
:1057D0004F935F936F937F938F939F93AF93BF93F9
:1057E000EF93FF9380E393E00E944806FF91EF91CF
:1057F000BF91AF919F918F917F916F915F914F91E9
:105800003F912F910F900FBE0F901F9018951F92F0
:105810000F920FB60F9211242F938F939F93EF93B4
:10582000FF93E0914003F09141038081E0914603B2
:10583000F091470382FD1BC09081809149038F5FE7
:105840008F7320914A03821741F0E0914903F0E001
:10585000E05DFC4F958F80934903FF91EF919F91FD
:105860008F912F910F900FBE0F901F9018958081F0
:10587000F4CF1F920F920FB60F9211242F933F93E4
:105880008F939F93AF93BF9380911E0390911F03BB
:10589000A0912003B091210330911D0323E0230F39
:1058A0002D3758F50196A11DB11D20931D0380933E
:1058B0001E0390931F03A0932003B09321038091B4
:1058C000220390912303A0912403B0912503019614
:1058D000A11DB11D8093220390932303A093240361
:1058E000B0932503BF91AF919F918F913F912F91DD
:1058F0000F900FBE0F901F90189526E8230F029669
:10590000A11DB11DD2CF1F920F920FB60F9211247D
:105910002F933F934F935F936F937F938F939F93B7
:10592000AF93BF93EF93FF93E0910201F0910301D6
:105930000995FF91EF91BF91AF919F918F917F91C9
:105940006F915F914F913F912F910F900FBE0F90EC
:105950001F9018951F920F920FB60F9211242F933C
:105960003F934F935F936F937F938F939F93AF93E7
:10597000BF93EF93FF93E0910001F091010109952E
:10598000FF91EF91BF91AF919F918F917F916F9117
:105990005F914F913F912F910F900FBE0F901F90ED
:1059A00018951F920F920FB60F9211242F933F93C9
:1059B0004F935F936F937F938F939F93AF93BF9317
:1059C000EF93FF938091B900887F803609F44AC035
:1059D000F0F5883209F4A7C018F5803109F49BC0AE
:1059E000B8F4882309F4F9C0883009F494C0FF9111
:1059F000EF91BF91AF919F918F917F916F915F9147
:105A00004F913F912F910F900FBE0F901F901895BF
:105A1000883109F488C0803251F78093F60214C0AF
:105A2000803409F49DC040F48033B9F38833F9F62B
:105A30008093F60285ECB0C0803509F485C08835C6
:105A400009F496C0883499F60E942E1AD0CF88396E
:105A500009F48CC038F5883729F050F4883611F0F5
:105A6000803729F683E08093F7021092F50257C041
:105A7000883809F47BC0803919F0803809F0B7CF35
:105A80008091F502803208F071C0E091F50281E06A
:105A90008E0F8093F5028091BB00F0E0EB52FD4F3A
:105AA00080833DC0803B39F0E0F4803A09F479C04E
:105AB000883A09F09CCF84E08093F7021092D202DA
:105AC0001092D102E091CF02F091D002099580911D
:105AD000D10281110FC081E08093D1021092AF02F8
