:100000000C9462000C948A000C948A000C948A0070
:100010000C948A000C948A000C948A000C948A0038
:100020000C948A000C948A000C948A000C948A0028
:100030000C948A000C948A000C948A000C948A0018
:100040000C9443030C948A000C9411030C94EB025F
:100050000C948A000C948A000C948A000C948A00F8
:100060000C948A000C948A000000000023002600F3
:10007000290000000000240027002A0000000000E2
:10008000250028002B0004040404040404040202D4
:100090000202020203030303030301020408102007
:1000A0004080010204081020010204081020000012
:1000B0000008000201000003040700000000000027
:1000C0000000BE0311241FBECFEFD8E0DEBFCDBFBE
:1000D00021E0A8E1B1E001C01D92A53DB207E1F722
:1000E00011E0A0E0B1E0E6ECFBE002C005900D926B
:1000F000A831B107D9F710E0C2E6D0E004C02197DB
:10010000FE010E94DB05C136D107C9F70E941D041C
:100110000C94E1050C940000AF92BF92CF92DF9255
:10012000EF92FF920F931F93CF93DF936C017B01AC
:100130008B01040F151FEB015E01AE18BF08C0173D
:10014000D10759F06991D601ED91FC910190F081B0
:10015000E02DC6010995892B79F7C501DF91CF9173
:100160001F910F91FF90EF90DF90CF90BF90AF90D5
:100170000895FC01538D448D252F30E0842F90E0AD
:10018000821B930B541710F0CF9608950197089592
:10019000FC01918D828D981761F0A28DAE0FBF2F5B
:1001A000B11D5D968C91928D9F5F9F73928F90E0B1
:1001B00008958FEF9FEF0895FC01918D828D981720
:1001C00031F0828DE80FF11D858D90E008958FEF5D
:1001D0009FEF0895FC01918D228D892F90E0805C26
:1001E0009F4F821B91098F739927089583E291E0B5
:1001F0000E94EA0021E0892B09F420E0822F089573
:1002000080E090E0892B29F00E94F60081110C9487
:1002100000000895FC01A48DA80FB92FB11DA35AA9
:10022000BF4F2C91848D90E001968F739927848F16
:10023000A689B7892C93A089B1898C918370806439
:100240008C93938D848D981306C00288F389E02DDA
:1002500080818F7D80830895EF92FF920F931F938B
:10026000CF93DF93EC0181E0888F9B8D8C8D981369
:100270001AC0E889F989808185FF15C09FB7F89475
:10028000EE89FF896083E889F989808183708064C1
:1002900080839FBF81E090E0DF91CF911F910F910C
:1002A000FF90EF900895F62E0B8D10E00F5F1F4F1B
:1002B0000F731127E02E8C8D8E110CC00FB607FC2A
:1002C000FACFE889F989808185FFF5CFCE010E94B8
:1002D0000A01F1CFEB8DEC0FFD2FF11DE35AFF4F1B
:1002E000F0829FB7F8940B8FEA89FB898081806246
:1002F000CFCFCF93DF93EC01888D8823B9F0AA8903
:10030000BB89E889F9898C9185FD03C0808186FDD0
:100310000DC00FB607FCF7CF8C9185FFF2CF80811F
:1003200085FFEDCFCE010E940A01E9CFDF91CF9189
:100330000895833081F028F4813099F08230A9F05B
:1003400008958730A9F08830C9F08430B1F48091E5
:1003500080008F7D03C0809180008F778093800024
:10036000089584B58F7784BD089584B58F7DFBCFC4
:100370008091B0008F778093B00008958091B00095
:100380008F7DF9CF1F93CF93DF93282F30E0F901B2
:10039000E255FF4F8491F901E656FF4FD491F901E0
:1003A000EA57FF4FC491CC23A9F0162F81110E9468
:1003B0009901EC2FF0E0EE0FFF1FE458FF4FA591DD
:1003C000B4918FB7F894EC91111108C0D095DE2349
:1003D000DC938FBFDF91CF911F910895DE2BF8CF73
:1003E0009F92AF92BF92CF92DF92EF92FF920F93C4
:1003F0001F93CF93DF938C01A12CC7E0D0E093E251
:10040000E92EF12CCC24C394D12C60E0F80180813A
:100410000E94C201C7010197F1F7F801218130E084
:10042000F901E255FF4F8491F901E656FF4FB49070
:10043000F901EA57FF4F94909920A9F081110E9489
:100440009901E92DF0E0EE0FFF1FE859FF4FA5914C
:10045000B491EC91BE2239F0C6010C2E01C0880F78
:100460000A94EAF7A82A61E0F80180810E94C2019B
:10047000C7010197F1F7219708F0C7CF8A2DDF91C7
:10048000CF911F910F91FF90EF90DF90CF90BF9091
:10049000AF909F900895EF92FF920F931F93CF9389
:1004A000DF938C01FC018189811145C083E291E0D9
:1004B0000E94EA00181619060CF03DC02FB7F894F8
:1004C00080911D0190911E01A0911F01B09120010A
:1004D0002FBF80932B0190932C01A0932D01B093FB
:1004E0002E0183E291E00E94C80097FF71C02FB7F0
:1004F000F89480911D0190911E01A0911F01B0916F
:1005000020012FBF40912B0150912C0160912D01B2
:1005100070912E01841B950BA60BB70B4091270100
:10052000509128016091290170912A018417950743
:10053000A607B707B0F2F8018189803109F03FC002
:10054000E384F48460E0F70182810E94C20183E2C7
:1005500090E00197F1F7C7010E94F001C82FD0E0A9
:10056000DC2FCC27C7010E94F001C82B61E0F70106
:1005700082810E94C20160E070E080EC9FE7C2FDD2
:1005800010C083E0D695C7958A95E1F7BE0190E04B
:1005900080E00E94E00420E030E040E85EE30E945A
:1005A0001D05F801658776878787908B44E050E0CA
:1005B000B801635F7F4F83E291E00E948C00F801F5
:1005C000118ADF91CF911F910F91FF90EF900895C5
:1005D000F801818BB0CF1F920F920FB60F921124AA
:1005E0002F933F934F935F936F937F938F939F933B
:1005F000AF93BF93EF93FF9383E291E00E940A01D0
:10060000FF91EF91BF91AF919F918F917F916F91EA
:100610005F914F913F912F910F900FBE0F901F90C0
:1006200018951F920F920FB60F9211242F938F934C
:100630009F93EF93FF93E0913301F0913401808118
:10064000E0913901F0913A0182FD1BC090818091C7
:100650003C018F5F8F7320913D01821741F0E09143
:100660003C01F0E0ED5DFE4F958F80933C01FF91E2
:10067000EF919F918F912F910F900FBE0F901F9030
:1006800018958081F4CF1F920F920FB60F9211240C
:100690002F933F938F939F93AF93BF9380911D01AF
:1006A00090911E01A0911F01B091200130911C0179
:1006B00023E0230F2D3758F50196A11DB11D20937E
:1006C0001C0180931D0190931E01A0931F01B09304
:1006D00020018091180190911901A0911A01B09107
:1006E0001B010196A11DB11D809318019093190162
:1006F000A0931A01B0931B01BF91AF919F918F916D
:100700003F912F910F900FBE0F901F90189526E8E4
:10071000230F0296A11DB11DD2CFCF93DF9390E09E
:10072000FC01E656FF4F24918A579F4FFC018491AC
:100730008823D1F090E0880F991FFC01EE58FF4FFD
:10074000A591B491FC01E458FF4FC591D49161117A
:100750000EC09FB7F8948C91E22FE0958E238C9376
:100760002881E223E8839FBFDF91CF9108958FB75F
:10077000F894EC91E22BEC938FBFF6CFCF93DF93FD
:10078000E3E2F1E01382128288EE93E0A0E0B0E0B1
:1007900084839583A683B78384E091E091838083EB
:1007A00085EC90E09587848784EC90E09787868736
:1007B00080EC90E0918B808B81EC90E0938B828B2E
:1007C00082EC90E0958B848B86EC90E0978B868B07
:1007D000118E128E138E148EC2EDD1E08DE08883BF
:1007E0008AE08A838CE0898361E08AE00E948D033D
:1007F00061E088810E948D0360E089810E948D0301
:1008000061E08A810E94C201E0ECF1E081E0828334
:1008100084E690E0A0E0B0E083839483A583B68370
:10082000178210861186128686E191E0918380837B
:10083000D487C387DF91CF910895789484B582607F
:1008400084BD84B5816084BD85B5826085BD85B574
:10085000816085BD80916E00816080936E001092F2
:10086000810080918100826080938100809181006D
:1008700081608093810080918000816080938000FE
:100880008091B10084608093B1008091B00081605C
:100890008093B00080917A00846080937A00809188
:1008A0007A00826080937A0080917A0081608093E0
:1008B0007A0080917A00806880937A001092C1005B
:1008C000E0913301F091340182E08083E0912F01C7
:1008D000F09130011082E0913101F091320180E11C
:1008E000808310923B01E0913701F091380186E05E
:1008F0008083E0913501F0913601808180618083B1
:10090000E0913501F0913601808188608083E0912B
:100910003501F0913601808180688083E091350156
:10092000F091360180818F7D808380EC91E09093FF
:1009300022018093210100E010E0C0912101D091BB
:1009400022018FB7F894C0901D01D0901E01E09055
:100950001F01F09020018FBF8A81882319F14F81F8
:10096000588569857A85D701C6014C155D056E05E8
:100970007F0510F5841B950BA60BB70B4B815C8193
:100980006D817E8184179507A607B70758F0E88127
:10099000F9810190F081E02DCE010995CF82D886B2
:1009A000E986FA860115110541F20E94F6008823B6
:1009B00021F20E940000C1CF0197A109B109DACF4D
:1009C000E89409C097FB3EF49095809570956195E9
:1009D0007F4F8F4F9F4F9923A9F0F92F96E9BB279F
:1009E0009395F695879577956795B795F111F8CF1B
:1009F000FAF4BB0F11F460FF1BC06F5F7F4F8F4F86
:100A00009F4F16C0882311F096E911C0772321F07B
:100A10009EE8872F762F05C0662371F096E8862F13
:100A200070E060E02AF09A95660F771F881FDAF76A
:100A3000880F9695879597F908950E9430050C9434
:100A4000A1050E94930538F00E949A0520F0952395
:100A500011F00C948A050C94900511240C94D50582
:100A60000E94B20570F3959FC1F3950F50E0551F9A
:100A7000629FF001729FBB27F00DB11D639FAA27F3
:100A8000F00DB11DAA1F649F6627B00DA11D661F42
:100A9000829F2227B00DA11D621F739FB00DA11D63
:100AA000621F839FA00D611D221F749F3327A00D1D
:100AB000611D231F849F600D211D822F762F6A2FB9
:100AC00011249F5750409AF0F1F088234AF0EE0F1E
:100AD000FF1FBB1F661F771F881F91505040A9F74B
:100AE0009E3F510580F00C948A050C94D5055F3F1C
:100AF000E4F3983ED4F3869577956795B795F79587
:100B0000E7959F5FC1F7FE2B880F911D96958795FE
:100B100097F9089597F99F6780E870E060E008957D
:100B20009FEF80EC089500240A9416161706180605
:100B30000906089500240A941216130614060506E1
:100B40000895092E0394000C11F4882352F0BB0F72
:100B500040F4BF2B11F460FF04C06F5F7F4F8F4FD5
:100B60009F4F089557FD9058440F551F59F05F3F10
:100B700071F04795880F97FB991F61F09F3F79F0BF
:100B800087950895121613061406551FF2CF469541
:100B9000F1DF08C0161617061806991FF1CF8695C3
:100BA0007105610508940895E894BB2766277727A7
:100BB000CB0197F90895EE0FFF1F0590F491E02DFA
:060BC0000994F894FFCF38
:100BC600000000002C018C00B9007901EA00C80081
:080BD600DC00000000004B02EE
:00000001FF
