:100000000C946E040C94FF2C0C94262D0C949604E6
:100010000C9496040C9496040C9496040C949604F8
:100020000C9496040C9496040C9496040C949604E8
:100030000C9496040C9496040C9496040C949604D8
:100040000C944D2D0C9496040C94952D0C94C22D6B
:100050000C9496040C9496040C9496040C949604B8
:100060000C94E22B0C949604000000002300260060
:10007000290000000000250028002B0000000000DF
:10008000240027002A0004040404040404040202D7
:100090000202020203030303030301020408102007
:1000A0004080010204081020010204081020000012
:1000B0000008000201000003040700000000000027
:1000C000000000000000E003C0E7030000000000A3
:1000D000003FE00300E003C0E70300000000000071
:1000E0007FE00300E003C0E7030000000000007FA2
:1000F000E00300E003C0E703000000000000FFE0B1
:100100000300E003C00700000000000000FFE00360
:1001100000E003C00700000000000000FFE103FF53
:10012000E0F3C3E7F3F9E103FF071FFFE1C3FFE1DA
:10013000FBC7E7F3FDE303DF071FDFE3E3FFE3FFB5
:10014000CFE7F3FFE7039F8F0FDFE3F3E3E7CFCFC3
:10015000E7F3EFE7031FDF079FE7F3C1E787DFE779
:10016000F3C3E7031FFF039FE7F381EF03DFE7F329
:1001700083EF031FFE031FEFF3FFEF03DFE7F381BE
:10018000EF031FFC011FEFFBFFEF03DFE7F381EF3E
:10019000031FFC001FFEFBFFEF03DFE7F381EF030C
:1001A0001FFC011FFEF301E003DFE7F381EF031FF4
:1001B000FE031FFCF301E003DFE7F381EF831FFE83
:1001C000031FFCF301E487DFE7F381EFC71FDF07BD
:1001D0001FF8E387E7FFCFE7F381CFFF9F8F0F1F64
:1001E000F8E3FFE7FFCFE7F381CFFFDF870F1FF0D3
:1001F00083FFE7FBC7E7F3818F7FDF071F1FE00364
:10020000FEE0F181C7E381071FEF031E1202040322
:1002100004050103050E1500FC10FC11FC00000094
:1002200000019920095EC33FFEFF97002A1B5EC3B1
:100230003F2E6687E54624660EC82A2B25E664C451
:1002400066C6A2E2F11A002B105EC33F2E66B73BD2
:10025000A039A09BDD3D3E2C0F5EC33FFE9FC9929F
:10026000D2CECACE0A022D0E5EC33F7E79307430E4
:100270008FFF0C002E0D5EC33FFE9FC992D2CA6352
:10028000042F185EC3A7B0ECD2D9D1D959D959D906
:1002900059D959D9596179EC0030235EC33FD0E474
:1002A0001905D5CC94D09A9A999A1189990991995E
:1002B0009A999AA16DA628C82EE97101310F5EC3E3
:1002C0003FD464DD61C8ECFEEF710132175EC33FBD
:1002D00010E141D4CC58D4ECA6FB56F660E8601E81
:1002E0006B00331C5EC33F0CE14198CCF0ACEC607A
:1002F000652DB1F0EC5494D4CCD8613D4E00341B44
:100300005EC33F9CEC28CB428941893991B1913140
:1003100099A9039A03CAD9ED71351E5EC33FC48102
:10032000D481D4ECDABB83B011B22861E1592945FC
:1003300024540781F5B800361C5EC33F14E11989C7
:1003400098EC8AB9032992A9A1FD4A686A64EE90E3
:100350001E170037175EC33FC4C1D0C1ACECD2D961
:1003600059D9A5B3B3B26BE5710438215EC33F4CD4
:10037000E1D908D1AE66A62806EB26C88456094DF9
:10038000CD4C09D14C1D04D6E30200391D5EC33F9C
:1003900010E1DDC8D490D4D0BEA13A103B885D2BCB
:1003A00026427510488F13003A125EC33F9ECB92CF
:1003B000D2CAE3509694561E230000000004FFFFAB
:1003C00000005F0203020304010204060D00FE099F
:1003D000FE0AFF01A8036E04FA2007EEF8F95F0099
:1003E000210AEEF8F1B4EF604E01220CEEF8E124A0
:1003F0004BB224E717002311EEF8A94996448394E1
:1004000044839464494E062411EEF8F170486A4919
:10041000382659920C614E01250FEEF8E128694A01
:10042000D2B09A4449534E2610EEF8A96192256144
:10043000258B94285372182709EEF8F1B4CE4F009B
:10044000280DEEF8A1300DD3CE699C2300290CEEC7
:10045000F8E3344E3BA6618E012A0CEEF8F12C290C
:100460004D492DE7112B0BEEF8596B8396E6CC0026
:100470002C09EEF8F95DAC63002D09EEF8791974DA
:100480009E002E09EEF8F93D1C73082F0DEEF84979
:10049000699886D530CD69003013EEF8F13089B215
:1004A000244BB2244BB22809730A00310CEEF8F148
:1004B000504BD2DE061D06320EEEF8E1294BB23467
:1004C000EC3AE83000330DEEF8D1410D8B739A64AD
:1004D000D14E340FEEF82969A8255912950631CD71
:1004E00009350EEEF8D141492B929456B268273661
:1004F00010EEF8E1294BD27488B2244BB26827374A
:100500000DEEF8D1410DD3300DD33A093811EEF884
:10051000E1294BB2248BA62CC9922CDA093910EEB2
:10052000F8E1294BB2248B86B492453B013A0CEE9C
:10053000F859C331A785630E013B0BEEF859C3315F
:10054000A789750C3C0AEEF84961E7EE30003D0BD7
:10055000EEF8390D3A3CE88C003E0AEEF8D1B8636B
:10056000771A003F0EEEF8E1294BB234ACE6604E4C
:10057000014010EEF8E1294BB22452FA458A871C5B
:10058000064113EEF8F13089B2244BB26450B22424
:100590004BB21C06420EEEF8D1218B7ADAA25E86AF
:1005A0009C00430CEEF8E1294BD2DEA29D00440CE6
:1005B000EEF8D1218BFA7F197202450EEEF8D14187
:1005C00049AB439456071D06460DEEF8D14149ABA1
:1005D0004394B6D300470EEEF8E1294BD226254BC3
:1005E000B268274814EEF8D12CC9922CC99241C99F
:1005F000922CC9922C87014909EEF8E131EDE34EC6
:100600004A0BEEF8F131EDA9A653004B12EEF8D1EA
:100610002CC992A892894916D5922C87014C0AEED2
:10062000F8D1FE3AE830004D11EEF8D12CC9124B4A
:10063000BF25599225590E034E12EEF8D12C911276
:1006400029E9272552B224CB61004F12EEF8E129A7
:100650004BB2244BB2244BB2248B76025010EEF8EE
:10066000D121CA922CC992214ADB69005112EEF8BD
:10067000E1294BB2244BB2244BB2A469CE015213F0
:10068000EEF8D121CA922CC992214AB2A8966439B7
:100690000C530EEEF8E1294BD2784E932CDA095424
:1006A0000AEEF8D1414BFB9D025513EEF8D12CC94F
:1006B000922CC9922CC9922CC9A29D005613EEF817
:1006C000D12CC9922CC9A2244BB2244C730A0057D6
:1006D0000FEEF8D12CC9922CC992FE4F494E5813F7
:1006E000EEF8D12CC9A2244BC24A96445992E53067
:1006F00000590EEEF8D12CC9A2244BC2B43B055AC6
:100700000EEEF8D1410DD3B01AA6830E035B0AEEAC
:10071000F8B7B4BFEE08005C0CEEF8D1721A57E3DC
:100720003487015D09EEF8D7FE6D47005E0AEEF8EA
:10073000F13089B29C1F5F08EEF8F9B741076009F4
:10074000EEF89138E7CF00610EEEF8B9CDD19064A4
:100750004964C961006210EEF8D1D621CA922CC951
:10076000922C197202630CEEF8B94D5992D6A29DE3
:10077000006411EEF849696948B2244BB2248B86B3
:100780001C06650DEEF8B94D5932286916ED046660
:100790000DEEF8712DAA864396B693006710EEF819
:1007A000B94D5992255934A449164D006810EEF8F8
:1007B000D12E9294644996644996C300690AEEF872
:1007C000C939A676DC096A0BEEF8E939A676EAA6FD
:1007D000016B0EEEF8D14E954C4CB2A896C3006C4E
:1007E00009EEF861B51F77026D0CEEF8392951D288
:1007F000FF2D87016E10EEF83925929464499664B6
:100800004996C3006F0EEEF8B94D5992255992459D
:100810003B01700FEEF8390D51966449960C515A10
:1008200005710FEEF8B90D49966449160D690B0074
:10083000720CEEF839259294A4ED3400730CEEF8A6
:10084000B94D59244759B413740CEEF8A9C5214B7E
:100850009B329D00750FEEF83965499664499644C0
:10086000961C06760FEEF83965499664519225611B
:100870004E01770CEEF839654996F44F494E780EE3
:10088000EEF839655112A6611265390C7910EEF84F
:100890003965499664496449932C9A007A0BEEF8BD
:1008A000390D62D74187017B0BEEF8212D6D93D373
:1008B000661D7C09EEF8F1B4BF53007D0BEEB8E580
:1008C000B4594BDB740C7E0BEEF8E128E994F30B82
:1008D0000000000004FFFF000000122F11241FBEC3
:1008E000CFEFD8E0DEBFCDBF12E0A0E0B1E0ECE892
:1008F000F4E702C005900D92AE33B107D9F727E0B7
:10090000AEE3B2E001C01D92A334B207E1F714E0F8
:10091000CEE6D4E004C02197FE010E941736CD3602
:10092000D107C9F70E94E82D0C94F4390C9400000B
:1009300080E090E008950895CF92DF92EF92FF92C9
:100940000F931F93CF93DF938C01EB016B01C40EC8
:10095000D51EE12CF12CCC15DD0551F4C701DF913A
:10096000CF911F910F91FF90EF90DF90CF9008955E
:10097000D801ED91FC910190F081E02D6991C801C1
:100980000995E80EF91EE7CF611529F06A3019F0D4
:10099000862F90E008958FEF9FEF0895FC01A481CA
:1009A000B581AF54BF4F81E08C93828193810895CC
:1009B000FC01848595856115C9F197FF0AC0828580
:1009C00093850196608571850E94EF3593878287B4
:1009D0000895892B09F04CC00480F581E02DE35681
:1009E000FF4F80819181A281B38185309105A1055E
:1009F000B10529F48AE090E0A0E0B0E012C08130B7
:100A00009105A105B10529F485E090E0A0E0B0E0F2
:100A100008C0892B8A2B8B2B59F581E090E0A0E050
:100A2000B0E080839183A283B383089597FF0BC0C6
:100A30008285938501979387828797FF19C0808568
:100A400091850197C3CF892B99F40480F581E02D1E
:100A5000E356FF4F80819181A281B381853091055A
:100A6000A105B105D1F20A97A105B10569F210F609
:100A7000089508950895BF92CF92DF92EF92FF926A
:100A80000F931F93CF93DF9300D000D00F92CDB779
:100A9000DEB78C01DC01DA96BC90DA97DB96DC904D
:100AA000DB97ED91FC91C188E12CF12CD801ED91FF
:100AB000FC9111974089D8968D919C91D9971C8271
:100AC0002D2D2E0D2D834B834E9D90014F9D300D6E
:100AD000112443E0220F331F4A95E1F7820F931F41
:100AE0009A8389831496ED91FC919E012F5F3F4F6D
:100AF00041E06FE0C801099581E08E0D8B1538F457
:100B0000BFEFEB1AFB0A8D2D8E0D8C1578F20F902E
:100B10000F900F900F900F90DF91CF911F910F9139
:100B2000FF90EF90DF90CF90BF900895CF93DF9329
:100B3000EC016BAFEEA9FFA90190F081E02D0995C2
:100B4000EEA9FFA90280F381E02DCE01DF91CF91C4
:100B50000994FC01E60FF11D849190E0982F8827FD
:100B60003196E4918E0F911D0895DC011A965C91E7
:100B70001A97ED91FC911197249130E0052E02C057
:100B8000359527950A94E2F7452F460F822F483076
:100B900068F031961196FC93EE93849138E0351B02
:100BA00001C0880F3A95EAF7822B48501A964C9369
:100BB0002FEF3FEFA90102C0440F551F6A95E2F7DE
:100BC000BA01609586230895CF93C62F0E94B5057C
:100BD000C15021E030E001C0220FCA95EAF7821B24
:100BE000CF910895FC01213051F0223069F021119C
:100BF00010C0E40FF11D47FDFA95CF010895E60FEF
:100C0000F11D67FDFA95F9CFE41BF10947FDF39556
:100C1000F4CFE61BF10967FDF395EFCFFC0121301E
:100C200051F0223069F0211110C0E60FF11D67FD6F
:100C3000FA95CF010895E41BF10947FDF395F9CF2B
:100C4000E61BF10967FDF395F4CFE40FF11D47FDB5
:100C5000FA95EFCF0F931F93CF93DF938C01EC01A5
:100C6000C25ADF4F798368831A86FC01EF58FF4F21
:100C70006081CE010E94B5058887F801EE58FF4FCC
:100C80006081CE010E94B5058987F801E657FF4FC4
:100C900090819C8781E0911180E08D87DF91CF91D9
:100CA0001F910F910895EF92FF920F931F93CF938F
:100CB000DF939C018B01FC01E65AFF4F80819181FB
:100CC0004796611541E0740740F5B69661367105A7
:100CD00030F46134710538F0F901E258FF4F20819A
:100CE0003181820F931F9C012F5F3F4FF901449187
:100CF000411509F440C0FC0144914017110641F42C
:100D00000296DF91CF911F910F91FF90EF90089580
:100D1000F9012491820F911DE6CFF901EE57FF4FA3
:100D2000C081D181C80FD91F7E0160E0C7010E9438
:100D3000A905C80FD91F62E0C7010E94A905F4E008
:100D4000EF0EF11C8017910780F3FE01849190E073
:100D5000982F88273196E4918E2B009761F0081721
:100D6000190719F4CE010396CCCFFE013296E49117
:100D7000CE0FD11DEACF80E090E0C3CF80E090E0BD
:100D800008958F929F92AF92BF92CF92DF92EF928F
:100D9000FF920F931F93CF93DF937C01EB01FC0134
:100DA000E65AFF4F808191818617970709F490C01A
:100DB00071836083FB018491870103591F4FD80120
:100DC0008C933196E4911196EC931197FB01329636
:100DD000E4911296EC931297FB013396E4911396EB
:100DE000EC931397FB013496E4911496EC931497CB
:100DF000FB013596E4911596EC931597FB01369619
:100E0000E4911696EC931697FB013796E4911796AA
:100E1000EC931797FB013896E4911896EC9318978A
:100E2000FB013996E4911996EC931997FB013A96D8
:100E3000C490F801C286FB013B96E4911B96EC93AB
:100E40001B97FB013C96D490F801D486FB013D969C
:100E5000B4901D96BC921D973196A490F801A68679
:100E6000FB013F9684901F968C9231969490F801E6
:100E7000908A61E1CE010E94A905D80152969C9307
:100E80008E93519763E1CE010E94A905F801948BDE
:100E9000838B65E1CE010E94A905D80156969C93EB
:100EA0008E935597CD2BA1F0E701CA57DF4FB8823B
:100EB000F701E957FF4FA08258968C91811541F0B8
:100EC000813099F4B8140CF488829A140CF490824E
:100ED000DF91CF911F910F91FF90EF90DF90CF9016
:100EE000BF90AF909F908F9008958D2D0D2C000C8A
:100EF000990B8C0D911DC7FC9A950B2C001C0008BA
:100F0000B816090614F4CD0CC882DA140CF7D08296
:100F1000DFCF3F924F925F926F927F928F929F921C
:100F2000AF92BF92CF92DF92EF92FF920F931F93F7
:100F3000CF93DF9300D000D000D0CDB7DEB78D8344
:100F40009E83AD80BE8026E6A20EB11CD5011C9208
:100F5000ED81FE81108E6B0180EC382E00E010E0F8
:100F6000E12CF12CE857FF4F4F016D807E802EE57C
:100F7000620E711C8D819E818D589F4F9A8389834B
:100F8000AD81BE81AC58BF4FBC83AB834D805E80CA
:100F9000B5E74B0E511CF60161916F01AD81BE8129
:100FA0001296ED91FC911397CD010995BC018F3FED
:100FB000980769F1029679F38D819E810E9453060C
:100FC000BC0100E0892BC1F08D819E810E942A0620
:100FD000A981BA816C91C3010E94E405F401808368
:100FE000AB81BC816C91C3010E94E405F201608178
:100FF000C3010E94E405082F002E000C110BF0EC39
:101000003F1202C0D4013C90E00EF11EC4CFF501A6
:1010100080818115B9F02D813E8128573F4FD9013C
:101020002C91082E000C990B820F911D27FD9A958B
:10103000E80EF91EE01AF10A131424F4E30CF11C73
:1010400037FCFA94C7010F900F900F900F900F90FC
:101050000F90DF91CF911F910F91FF90EF90DF9054
:10106000CF90BF90AF909F908F907F906F905F9048
:101070004F903F900895FC0181E39DE0938382832C
:10108000CF010C9489070F93CF93DF93DC01F90113
:10109000EC01CC57DF4F8881811509F481C030976E
:1010A00009F47EC02130310509F472C00230F1F537
:1010B0006F5F7F4F621B730BED01C25BDF4F888157
:1010C00099814817590708F46BC022968881998145
:1010D0004817590708F064C02497288139819A91EC
:1010E0008A91E60FF71FE617F70708F055C0621759
:1010F000730708F050C0F90131978E179F0708F069
:101100004FC06817790708F4BC01E217F30708F429
:101110009F01261B370B00E0D696ED91FC91D797E7
:101120000480F581E02DCD0109953AC0033081F5A9
:101130004F5F5F4F421B530BED01C65BDF4F888152
:1011400099816817790760F12296888199816817DB
:10115000790730F52496288139819A918A91E40F94
:10116000F51FE417F50708F542175307E8F4F901EE
:1011700031978E179F07A0F44817590708F4AC0160
:10118000E217F30708F49F01241B350B01E0C4CFDD
:1011900000FDD2CF91CFBC016217730708F4ADCF29
:1011A000DF91CF910F910895AC014217530708F3D7
:1011B000F7CF2F923F924F925F926F927F928F92D2
:1011C0009F92AF92BF92CF92DF92EF92FF920F93D6
:1011D0001F93CF93DF936C01F62E542EEC01C25A6D
:1011E000DF4F1E81EF805C018AE8A80EB11C3884B5
:1011F000432C411A2F2C4F1408F4242C8C809D80F2
:101200000E85202F4E2D612F8A819B810E940E0614
:101210003C01202F4E2D612FC4010E94F205AC012C
:10122000511489F08C85F5018083222D30E0B301C3
:10123000C6010E9443081F0DF41450F0F12EF3185C
:10124000E39410E0D4CF8B858111F5CF8D85EBCF62
:101250001E83EF82DF91CF911F910F91FF90EF904E
:10126000DF90CF90BF90AF909F908F907F906F90C6
:101270005F904F903F902F9008950F93FC01E25B99
:10128000FF4F2081318142175307B8F032962081F9
:1012900031814217530788F43697208131816217D4
:1012A000730758F03296208131816217730728F452
:1012B00000E021E030E00E9443080F910895FC0116
:1012C000E657FF4F608308950F931F93CF93DF93EB
:1012D000FC01DB01BA01A901C801EF01C25BDF4FCC
:1012E000299139910990D881C02D6C177D0740F460
:1012F0002017310748F08617970730F080E017C0B5
:1013000020173107C0F3FACFEF01C65BDF4F8881AA
:101310009981E45BFF4F20813181A217B30760F40C
:101320008417950768F081E04A175B0738F7DF916B
:10133000CF911F910F91089584179507A0F3DECFE9
:1013400081E0F5CF6F927F928F929F92AF92BF9282
:10135000CF92DF92EF92FF920F931F93CF93DF9381
:10136000EC016B015A018901FC01E459FF4F8081B6
:10137000823009F47DC058F47097811171C00190DA
:10138000F081E02DCE010995A80EB91E03C083306F
:1013900009F479C0FE01E05AFF4FC192D192B182A7
:1013A000A082B801CE010E945306BC0180E090E00B
:1013B0006115710509F4AFC07E012EE5E20EF11C46
:1013C000CE010E942A06FE01E959FF4F80803C961B
:1013D0006081C7010E94E405682EFE01EC58FF4FB2
:1013E0006081C7010E94E405182FFE01EB58FF4FF2
:1013F0006081C7010E94E405982EF7010085101650
:101400000CF086C07684180D1195272D412F662D7E
:10141000C6010E940E066C01F70193838283272D7B
:10142000412F662DC5010E94F205AC01F70195839D
:101430008483F2E07F1609F489C023E0721670F508
:10144000002E000C110B882D082C000C990B71102C
:1014500071C098012C0D3D1D8C01040F151F24C077
:101460000190F081E02DCE010995C81AD90A92CFDA
:10147000FE01E45AFF4F0190F081E02DCE01099565
:10148000A81AB90A87CFFE01E45AFF4F0190F081F4
:10149000E02DCE010995C80ED91E7CCF33E073161E
:1014A00009F46AC08C019601B601CE010E9464095C
:1014B000811571F1F701168217828E0101591F4FB4
:1014C0006E01F0E7CF0ED11CF8016081C7010E94C8
:1014D000B505A82EF6016081C7010E94B505B82E9A
:1014E00040E06A2DCE010E94D90841E06B2DCE016B
:1014F0000E94D90861E0C7010E94B5058111F0CFB3
:10150000F7018781881504F3C657DF4F84858883E8
:10151000892D990C990BDF91CF911F910F91FF901D
:10152000EF90DF90CF90BF90AF909F908F907F9083
:101530006F900895B601681B790B96012F5F3F4F9E
:10154000040F151FFB0131966F01AECF81E090E0D3
:10155000BC01601B710907FD739596012F5F3F4F1A
:101560008819910987FC93958A010F5F1F4F480FD7
:10157000591FC60ED71E98CF9601280D311D87FC26
:101580003A9581E090E0801B910907FD93958A01CF
:101590000F5F1F4F480F591F87CFCF92DF92EF92F7
:1015A000FF920F931F93CF93DF93EC016C0184E0C4
:1015B000C80ED11CFE01E057FF4F0190F081E02DD5
:1015C000C60109959C018E3F9F4F28F58E010C5650
:1015D0001F4FF801408151817E01F2E9EF0EF11CAD
:1015E000F70160817181C6010E94A2099C01C05966
:1015F000DF4F88818230D1F058F4F801811101C0A9
:10160000F70180819181820F931F9183808303C0B2
:10161000F801833061F081E090E0DF91CF911F917C
:101620000F91FF90EF90DF90CF900895F7018081A8
:101630009181821B930BE9CF8F929F92AF92BF92C1
:10164000CF92DF92EF92FF920F931F93CF93DF938E
:10165000EC018B017A01188E6901A12CB12C4C018F
:101660008CE6880E911CF60161916F01EA81FB8185
:10167000CE0109959C01019611F12E3F8FEF38079D
:1016800091F3A701B801CE010E94A2099C01F401C7
:101690008081823071F028F4811108C0020F131F7D
:1016A00002C0833049F0A20EB31EDDCFE20EF31E5E
:1016B000FACF021B130BF7CFE21AF30AF4CFC501DE
:1016C000DF91CF911F910F91FF90EF90DF90CF901E
:1016D000BF90AF909F908F900895FC0181E39DE0B3
:1016E00097838683CF0104960C941C0BAF92BF9214
:1016F000CF92DF92EF92FF920F931F93CF93DF93DE
:10170000DC015B01FA01A9013E2F377081E090E016
:10171000032E01C0880F0A94EAF7282FBD016657EF
:101720007F4FEB01188190E0123020F4982F113098
:1017300009F420E0E87F6F01D896ED91FC91D997EC
:10174000ED90FC901197E70188898C9D70018D9D2B
:10175000F00C1124E501CE0DDF1DEC0FFD1F011172
:1017600019C04E0F5F1F8081892B82278193E41758
:10177000F507C9F7DF91CF911F910F91FF90EF907F
:10178000DF90CF90BF90AF900895990F220F411531
:10179000510581F38081892B822780833F5F3770D9
:1017A000415051093111F1CFDC96CD91DC91DD979B
:1017B000EC0FFD1FEB018881823020F4813021F491
:1017C00091E0E5CF21E0E3CF21E0FACF0F931F9323
:1017D000CF93DF93FC01A081B18122AD822F90E0F5
:1017E00048E0249F9001112437AF26AF50962C91EA
:1017F000509758E0259F9001112435AF24AF43AD99
:10180000642F70E058E0459F90011124EF01C05C07
:10181000DF4F3983288351965C9151978C01040FD7
:10182000111DC52FD0E05017110618F4CE01861BEC
:10183000970BEF01CE5BDF4F2993399343E0880F7D
:10184000991F4A95E1F7820F931F899399935496B4
:101850008D919C91559799838883E85BFF4F5696AD
:101860008D919C9191838083DF91CF911F910F91F6
:1018700008952F923F924F925F926F927F928F9234
:101880009F92AF92BF92CF92DF92EF92FF920F930F
:101890001F93CF93DF93CDB7DEB728970FB6F89499
:1018A000DEBF0FBECDBF8F8398872F813885265B23
:1018B0003F4F3A832983F90111821082EF81F88525
:1018C000EA5BFF4F208031802F813885245B3F4FBA
:1018D0003C832B83F90131822082EF80F884FEE47F
:1018E000EF0EF11CF70111821082EF81F885E85BA1
:1018F000FF4F40805180EF81F885EC5BFF4F2081E6
:1019000031814216530630F0C201821B930BF7015E
:1019100091838083EF81F885EE5BFF4F20813181D9
:10192000421A530A2F813885205B3F4F3E832D8317
:10193000F90151824082EF81F885E85AFF4F6080BB
:101940007180EF81F885EC5AFF4FA080B180EF8164
:10195000F885EA5AFF4FC080D180EF81F885EE5AB2
:10196000FF4F8080918083019501A601B4018F8192
:1019700098850E9464092F8138852C573F4F3887FE
:101980002F8381111BC0F901108228960FB6F8949D
:10199000DEBF0FBECDBFDF91CF911F910F91FF90A2
:1019A000EF90DF90CF90BF90AF909F908F907F90FF
:1019B0006F905F904F903F902F90089581E0EF815E
:1019C000F88580838114910421F0E981FA81918264
:1019D0008082A214B30420F4EB81FC81B182A08246
:1019E000F701808191818C159D0510F4D182C08210
:1019F0006414750450F6ED81FE8171826082C5CF5A
:101A00000F93DC01FC01E85BFF4F0190F081E02DBA
:101A1000CF01841B950BAC01FD01EA5BFF4F808178
:101A20009181FC01E61BF70BBF01011113C041506E
:101A30005109621B730BFD01E05CFF4F80819181B6
:101A4000481B590BD496ED91FC91D597CD01099582
:101A50000F910895013079F761507109421B530BC2
:101A6000EACFFC016115B9F16A30A9F1208D21118D
:101A700022C06C3F48F0617085E0808F70E0738B0E
:101A8000628B8EEF9FEF0895683F18F0637084E0DB
:101A9000F4CF603F18F0677083E0EFCF603E18F03E
:101AA0006F7082E0EACF603C18F06F7181E0E5CFA3
:101AB000862F90E008952150208F8289938936E007
:101AC000880F991F3A95E1F76F73862B938B828B62
:101AD0002111D7CF08958FEF9FEF0895DC011A965B
:101AE000ED91FC9120E030E0099480E00895809130
:101AF0003E0690913F06891B990B089590913F06F1
:101B000080913E062FEF3FEF981748F4E92FF0E061
:101B1000E75EF94F208130E09F5F90933F06C90157
:101B20000895E0913F0680913E06E81730F4F0E01A
:101B3000E75EF94F808190E008958FEF9FEF089561
:101B4000089520911806260F3327331F21323105BF
:101B5000ECF420916606FC0180E090E0243069F00E
:101B600082E00895A09118062191AC0148505A4F87
:101B7000A40FB52FB11D2C930196861798F3809171
:101B80001806680F6093180680E0089581E00895B4
:101B9000CF93DF930F92CDB7DEB7FC0169838091BD
:101BA0006C068115F1F080918F06803250F081E053
:101BB00090E09383828380E090E00F90DF91CF915B
:101BC000089580916D06E82FF0E0E259F94F998170
:101BD00090838F5F80936D0680938F0681E090E005
:101BE000ECCF61E0CE0101960E94A10DF7CFCF921C
:101BF000DF92EF92FF920F931F93CF93DF937C01BD
:101C0000CB018A0120916C062115D9F0EB016B0103
:101C1000C40ED51ECC15DD0551F4C801DF91CF915E
:101C20001F910F91FF90EF90DF90CF9008956991F1
:101C3000D701ED91FC910190F081E02DC70109954C
:101C4000E9CF642F0E94A10DE8CF08952FB7F89433
:101C50006091D1057091D2058091D3059091D40502
:101C60002FBF08958F929F92AF92BF92CF92DF9233
:101C7000EF92FF920F931F93CF93DF937C01C62FB8
:101C8000DC011496ED91FC916F01B1E4CB0ED11CF7
:101C9000D6018D909D90AD90BC90E356FF4F608132
:101CA0007181828193810E9432359B01AC01C50113
:101CB000B401C115D1F00E9454348B01D82FC92F23
:101CC00020E030E040EA53E40E94EA351816D4F4EC
:101CD000DF91CF911F910F91FF90EF90DF90CF9008
:101CE000BF90AF909F908F9008950E9453348B01C6
:101CF000D82FC92F20E030E040EA51E40E94273776
:101D000087FDE6CFC801AD2FBC2FF60180839183FC
:101D1000A283B3830E94260ED7011496CD91DC9145
:101D2000CF55DF4F28EE33E040E050E00E94C3394A
:101D3000288339834A835B83CBCF3FB7F894809164
:101D4000CC059091CD05A091CE05B091CF0526B5DB
:101D5000A89B05C02F3F19F00196A11DB11D3FBFE3
:101D6000BA2FA92F982F8827BC01CD01620F711DB2
:101D7000811D911D42E0660F771F881F991F4A95AC
:101D8000D1F708958E3008F08E508770806480936C
:101D90007C0080917A00806480937A0080917A0040
:101DA00086FDFCCF80917800909179000895CF93C3
:101DB000DF9390E0FC01E656FF4F24918A579F4F36
:101DC000FC0184918115C9F090E0880F991FFC01F6
:101DD000E458FF4FA591B591FC01EE58FF4FC59116
:101DE000D5919FB761110CC0F8948C9120958223F6
:101DF0008C938881282328839FBFDF91CF910895FA
:101E0000623051F4F8943C91822F809583238C9317
:101E10008881822B8883F0CFF8948C91822B8C93CD
:101E2000EBCF843081F050F48230A9F0833079F424
:101E3000809180008F77809380000895873071F0C3
:101E4000883091F00895809180008F7DF4CF84B523
:101E50008F7784BD089584B58F7DFBCF8091B000CE
:101E60008F778093B00008958091B0008F7DF9CF77
:101E70001F93CF93DF93162F282F30E0F901E255FF
:101E8000FF4F8491F901E656FF4FD491F901EA57CB
:101E9000FF4FC491C115A1F081110E94110FEC2FC9
:101EA000F0E0EE0FFF1FEE58FF4FA591B5919FB7E1
:101EB000F8948C91111108C0D095D823DC939FBF62
:101EC000DF91CF911F9108958D2B8C93F8CF1092B5
:101ED000660681E0809365061092400661E082E12B
:101EE0000E94380F61E083E10E94380FE9EBF0E0D7
:101EF00080818E7F808380818D7F808388E4809342
:101F0000B80085E48093BC000895CF93DF9391E0FF
:101F10009093F7058115B9F0C091B800D091BA003F
:101F20008091BC008A7B8093BC0060E082E10E94CB
:101F3000380F60E083E10E94380F0E94670FD09352
:101F4000BA00C093B800DF91CF910895CF92DF928D
:101F5000EF92FF920F931F93CF93DF93EC01862FA5
:101F6000B901883109F449C070F48431C9F087316E
:101F700089F080E0DF91CF911F910F91FF90EF905A
:101F8000DF90CF900895893109F457C0803289F7E6
:101F900081E0F0CF50E080E996E00E94F70DF8CFA5
:101FA0008C859D85AE85BF85892B8A2B8B2B71F403
:101FB000E881F981A585B0E020EA36E841E050E00B
:101FC0000E9479396C877D878E879F8710923F06A4
:101FD00010923E0610926D0610928F060E94670FB7
:101FE00089E395E090933D0680933C068AE395E073
:101FF00090933B0680933A06CBCF2C853D854E854A
:102000005F8560E074E284EF90E00E94C339205164
:1020100031094109510956954795379527952093E0
:10202000B8008E89869591E090936C0680938E0619
:1020300010926D0610928F06ABCFD0918F06D132E1
:1020400008F096C0C0918E060E949D0E6B017C0127
:1020500080916606811167C082E08093660681E008
:10206000809365068FEF8093640610926306D09389
:1020700062062EE636E0A2E4B6E0F9018E2F821B5E
:102080008D1708F47CC01092410680914106CC0F58
:10209000C82BC093410680914006813009F072C080
:1020A000109240060E949D0E6B017C0180914106BA
:1020B0008093BB008091680690916906A0916A06A2
:1020C000B0916B06892B8A2B8B2B99F00E949D0E69
:1020D000009168061091690620916A0630916B069E
:1020E0006C197D098E099F090617170728073907FC
:1020F000D8F18091BC0083FDD9CF85EC8093BC00E2
:102100000E949D0E6B017C01809166068230E1F198
:10211000809164068F3F61F180916406803241F1C5
:102120008091640625C08091680690916906A0910F
:102130006A06B0916B06892B8A2B8B2B09F488CF0A
:102140000E949D0E009168061091690620916A0612
:1021500030916B066C197D098E099F0906171707C8
:102160002807390708F074CF809167060E94850F11
:1021700010926D0610928F0610926C0609CF819115
:102180008D937CCF85EEBACF8091680690916906D9
:10219000A0916A06B0916B06892B8A2B8B2B09F4D0
:1021A000B3CF0E949D0E00916806109169062091A0
:1021B0006A0630916B066C197D098E099F09061716
:1021C00017072807390708F09FCFCECF1F93CF936B
:1021D000DF93182FEB0161E00E94D70E209739F4AE
:1021E00060E0812FDF91CF911F910C94380FCF3F8A
:1021F000D10511F461E0F5CFE12FF0E0E255FF4F9A
:10220000E491E43071F150F4E230E1F0E330F9F0C0
:10221000E13081F0C038D1051CF3ECCFE73059F143
:10222000E830C1F78091B00080628093B000C09325
:10223000B40004C084B5806884BDC7BDDF91CF9170
:102240001F91089584B5806284BDC8BDF7CF809189
:102250008000806880938000D0938900C0938800BC
:10226000EDCF80918000806280938000D0938B00BE
:10227000C0938A00E3CF8091B00080688093B00063
:10228000C093B300DBCFFC01258536858385F9013A
:10229000E359FF4F4081518162817381452B462B69
:1022A000472B29F03496608171810C94E61060E030
:1022B00070E0FBCF2F923F924F925F926F927F928E
:1022C0008F929F92AF92BF92CF92DF92EF92FF9246
:1022D0000F931F93CF93DF9300D000D000D00F92C5
:1022E000CDB7DEB71C01DC011D960D90BC91A02D71
:1022F000BF83AE83FC01F385FA83FD01EB56FF4FEC
:1023000080819181A281B3812E813F812F563F4FE1
:102310003C832B83892B8A2B8B2B11F5D9016D9153
:102320007D918D919C910E94B4358A8127960FB63C
:10233000F894DEBF0FBECDBFDF91CF911F910F91FB
:10234000FF90EF90DF90CF90BF90AF909F908F90D5
:102350007F906F905F904F903F902F900C94E6107D
:10236000EE81FF81E359FF4F80819181A281B3818A
:10237000892B8A2B8B2B09F4FCC0EE81FF81FD9603
:102380002081318142815381EE81FF81EF5BFF4FDC
:1023900060817181828193810E9453347B018C0121
:1023A000F10163817481858196810E9432359B01A0
:1023B000AC01B701C8010E94B0357B018C01EE81F0
:1023C000FF81EB58FF4F20813181428153810E9470
:1023D000B0356983472E582E9D83862F942DA52DC9
:1023E000BD81EE81FF81EF57FF4F80839183A283F0
:1023F000B383EE81FF81E758FF4F20813181428115
:102400005381B701C8010E94B0358E809F80F5E8E6
:102410008F0E911CF40120813181428153810E94F1
:1024200054345B016C0120E030E0A9017B2D8C2D40
:102430009D2D0E94273787FDA6C07A2D6B2D9C2DE0
:102440008D2DAB019C01852F962FA32FB22FF40168
:1024500080839183A283B383EE81FF81E357FF4F93
:102460002081318142815381B701C8010E945334D8
:10247000EE81FF81E358FF4F2081318142815381FA
:102480000E94B0353B014C012981342D452D5D81E1
:102490006A2D7B2D8C2D9D2D0E9454349301A40117
:1024A0000E9454345B016C0120E030E0A9017B2DD7
:1024B0008C2D9D2D0E94273787FD6EC020E030E0D7
:1024C0004FE753E46A2D7B2D8C2D9D2D0E94EA351C
:1024D000181634F4A12CB12C8FE7C82E93E4D92E12
:1024E0002E813F8127573F4FC301D401F9018083DB
:1024F0009183A283B3835A2D4B2D3C2D2D2D8A2DF4
:102500009B2DAC2DBD2DEB81FC8180839183A2831B
:10251000B383DA01F9016B2F7A2F8F2F9E2F0E9440
:10252000B4358A810E94E610D1011D96ED91FC918F
:10253000E357FF4FC701D80180839183A283B38300
:1025400027960FB6F894DEBF0FBECDBFDF91CF91B7
:102550001F910F91FF90EF90DF90CF90BF90AF90C1
:102560009F908F907F906F905F904F903F902F90B3
:102570000895AB81BC811D921D921D921C921397F0
:1025800060E070E0D2CE70E060E090E080E0A12CEE
:10259000B12CC12CD12C55CFA12CB12CC12CD12CBC
:1025A0009FCFCF93DF93282F30E0F901E255FF4F03
:1025B0008491F901E656FF4FD491F901EA57FF4F94
:1025C000C491C11581F081110E94110FEC2FF0E030
:1025D000EE0FFF1FE859FF4FA591B591EC91ED2348
:1025E00081E0E11101C080E090E0DF91CF9108959A
:1025F000CF93DF9382E00E94D112EC0183E00E942E
:10260000D112CC0FDD1FC82BD92B20913D07309163
:102610003E07220F331F220F331F2C2B3D2B2D3053
:10262000310549F02430310531F02230310519F0FF
:102630002B303105D1F48091390790913A07A09160
:102640003B07B0913C070196A11DB11D809339074E
:1026500090933A07A0933B07B0933C07D0933E0773
:10266000C0933D07DF91CF9108952E30310539F0A9
:10267000C9010797029718F02130310579F7809149
:10268000390790913A07A0913B07B0913C07019719
:10269000A109B109DBCF8F929F92AF92BF92CF92E7
:1026A000DF92EF92FF92CF93DF937C01C62F642FCE
:1026B000CC3240F4CA3290F5C832C1F0C932D1F1FF
:1026C00080E02DC0CD3209F459C084EB8C0F8230EC
:1026D00008F06AC0CF73CE0DDF2DD11D8E8D411550
:1026E00009F45AC062E00E94D70E18C02EE1E20E33
:1026F000F11C90E0F70181917F01C1E0C90F8F3F8C
:1027000051F0903128F461E00E94D70E9C2FF2CF57
:1027100062E00E94D70E9C2FC63161F781E0DF9105
:10272000CF91FF90EF90DF90CF90BF90AF909F90B0
:102730008F900895C42ED12CE12CF12C0E949D0E77
:102740004B015C01C114D104E104F10439F30E948E
:102750009D0E681979098A099B09683E73408105B5
:10276000910580F3F1E0CF1AD108E108F10828EED5
:10277000820E23E0921EA11CB11CE4CF85E090E004
:10278000433010F082E090E0880F991F880F991F66
:1027900005970197F1F7C2CF61E00E94D70E60E084
:1027A0008E8D0E94380FBACFC03408F489CFEC2F39
:1027B000EF73EE0DFF2DF11D868D8F3F09F4AECF27
:1027C000C073C11571F30E94D112F701818FA6CF9A
:1027D000FC01A48DA80FB92FB11DA35ABF4F2C9196
:1027E000848D90E001968F739927848FA689B7898D
:1027F0002C93A089B1898C91837080648C93938D84
:10280000848D981306C00288F389E02D80818F7D26
:1028100080830895FC01818D228D90E0805C9F4F24
:10282000821B91098F73992708958CE996E00E9485
:102830000A149C0181E0232B09F480E0089580E0D4
:1028400090E0892B29F00E94151481110C9400004E
:102850000895FC01918D828D981731F0828DE80FDB
:10286000F11D858D90E008958FEF9FEF0895FC0195
:10287000918D828D981761F0A28DAE0FBF2FB11D83
:102880005D968C91928D9F5F9F73928F90E00895DB
:102890008FEF9FEF0895FC01538D448D842F90E0BE
:1028A000252F30E0821B930B541710F0CF9608951C
:1028B00001970895CF93DF93EC01888D81110FC0AC
:1028C000DF91CF9108950FB607FC0DC08C9185FF65
:1028D0000AC0808185FF07C0CE010E94E813AA8943
:1028E000BB89E889F9898C9185FDEDCF808186FFD0
:1028F000EACFE6CFEF92FF920F931F93CF93DF9330
:10290000EC01F62E81E0888F9B8D8C8D98131AC078
:10291000E889F989808185FF15C09FB7F894EE8911
:10292000FF896083E889F98980818370806480836E
:102930009FBF81E090E0DF91CF911F910F91FF90B9
:10294000EF9008950B8D10E00F5F1F4F0F7311274D
:10295000E02E8C8D8E1579F0EB8DEC0FFD2FF11D97
:10296000E35AFF4FF0829FB7F8940B8FEA89FB89F7
:1029700080818062DCCF0FB607FCEBCFE889F98954
:10298000808185FFE6CFCE010E94E813E2CFCF928F
:10299000DF92EF92FF920F931F93CF93DF937C010F
:1029A0006A0100E010E00C151D0551F4C801DF912B
:1029B000CF911F910F91FF90EF90DF90CF900895EE
:1029C000EB01D701ED91FC910190F081E02D69912F
:1029D000C7010995892B51F30F5F1F4FBE01E3CF4C
:1029E000EF92FF920F931F93CF93DF937C01EB0144
:1029F0009B012A5F3F4F02E210E042E050E00E945C
:102A00006409811529F100E026E030E042E050E061
:102A1000BE01C7010E94430801E02EE130E043E01F
:102A200050E0BE01C7010E944308BE016B5F7F4FAB
:102A30002EE130E043E050E0C7010E94430800E08F
:102A400026E030E041E250E0BE01C7010E944308A9
:102A5000DF91CF911F910F91FF90EF900895AF926A
:102A6000BF92CF92DF92EF92FF920F931F93CF937B
:102A7000DF93B82EA92E7B01EA016A01C20ED31E94
:102A80009B012A5F3F4F86010E946409811115C096
:102A9000DF91CF911F910F91FF90EF90DF90CF903A
:102AA000BF90AF90089500E026E030E0AE01B7019E
:102AB0008B2D9A2D0E9443082196CC16DD0699F79E
:102AC000E7CF2F923F924F925F926F927F928F92B9
:102AD0009F92AF92BF92CF92DF92EF92FF920F93AD
:102AE0001F93CF93DF932C01EB018A0187E2E82E3D
:102AF000F12C5701A41AB50A6B018CE3C80ED11C46
:102B0000A501B601C2010E943D09EC1AFD0A480167
:102B10008CE3880E911CA701B401C2010E943D09FB
:102B20009CE3692E712C13012C1A3D0AA501B101F9
:102B3000C2010E943D09601A710AA701B301C201D6
:102B40000E943D09095D1F4FA801B601C2010E9404
:102B50003D09A796AE01B401C2010E943D09A8013A
:102B6000B101C2010E943D09AE01B301C201DF9172
:102B7000CF911F910F91FF90EF90DF90CF90BF907A
:102B8000AF909F908F907F906F905F904F903F900D
:102B90002F900C943D098F929F92AF92BF92EF922B
:102BA000FF920F931F93CF93DF938C017B01C0E0C3
:102BB000D0E00E94260E6093A4067093A506809331
:102BC000A6069093A7068CE996E00E9437149C0114
:102BD0002F3F320739F50E94260E8090A406909070
:102BE000A506A090A606B090A706681979098A09DB
:102BF0009B098090A0069090A106A090A206B0909C
:102C0000A306681579058A059B05E8F2CE01DF91D8
:102C1000CF911F910F91FF90EF90BF90AF909F9039
:102C20008F900895F80121932196CE15DF0571F359
:102C30008F01BFCFDC019B011896ED91FC9141E023
:102C400067E10994DC011696ED91FC9120E030E0FB
:102C500040E069E10994DC011696ED91FC9120E0D9
:102C600030E040E068E10994DC019A011696ED91AC
:102C7000FC91462F67E10994EF92FF920F931F9307
:102C8000CF93DF930F92CDB7DEB77C018B01D801D4
:102C90006C916A3170F4683178F5673111F1653102
:102CA00090F40F90DF91CF911F910F91FF90EF90D3
:102CB00008956E3FB1F7F8014181498369E2C70188
:102CC0000E946E0D0BC0F80141814983D701169611
:102CD000ED91FC9120E030E0C70109950E5F1F4F98
:102CE000D6CFF80181818983AE014F5F5F4F61E0EC
:102CF000C7010E943416F2CF0F5F1F4FD7011696FF
:102D0000ED91FC9120E030E040E0C7010995BFCF94
:102D1000DC01462F1696ED91FC9120E030E066E153
:102D20000994DC01462F1696ED91FC9120E030E0ED
:102D300065E10994EF92FF920F931F93CF93DF9376
:102D4000EC01142F79016E3009F46AC008F041C01B
:102D50006B3009F448C06D3009F44FC0693009F494
:102D60009AC06A30C1F5EA85FB8520E030E040E09A
:102D700068E20995EE81FF8120E030E040E064E107
:102D8000CE01099541E06BE4CE010E946E0DE88111
:102D9000F981448169E2CE010E946E0D40E06BE44E
:102DA000CE010E946E0DE881F981448169E2CE0175
:102DB0000E946E0D41E06BE4CE010E946E0DE88131
:102DC000F981458169E2CE010E946E0D6AEA71E0E7
:102DD00010C06F30A1F180E0DF91CF911F910F9172
:102DE000FF90EF9008956DE871E0411511F068E8EB
:102DF00071E0CE010E943C1620C0411109C061E87B
:102E000071E00E943C16E881F98182898C8B15C0A3
:102E10006AE771E00E943C16E881F9818389F6CF68
:102E20000E942B1661E8CE010E949116612FCE01FF
:102E30000E948816CE010E94221681E0CDCF0E940A
:102E40002B16F7010381000F000F000F8C89080F6C
:102E500060E4CE010E949116602F62956F706061F0
:102E6000CE010E949116602F6F70CE010E948816CD
:102E7000F7016481606BCE010E948816F7014081E2
:102E800051816281660F660F660FCE010E94341673
:102E90001A95A1F7CFCF82E991E09983888382E0E8
:102EA000B5CFDC011896ED91FC9120E030E040E0D8
:102EB00069E10994DC011896ED91FC9120E030E085
:102EC00040E068E10994CF93DF930F92CDB7DEB76E
:102ED0006983BE016F5F7F4F0E941A160F90DF91CA
:102EE000CF910895FF920F931F93CF93DF93EC013F
:102EF000162FF42E052F0E945A1760E4CE010E946F
:102F00006317E885F9852F2D302F412F67E1CE011A
:102F10000995CE01DF91CF911F910F91FF900C94F5
:102F20005117EF92FF921F93CF93DF93EC01142F71
:102F300079016731B1F170F46531C1F0663169F141
:102F4000643109F448C080E0DF91CF911F91FF9078
:102F5000EF900895683199F16931A9F780913906A8
:102F6000811569F1CE010E94511729C0809139065F
:102F7000811519F0CE010E945117CE010E945A17F7
:102F800060E0CE010E946317612FCE010E9463179B
:102F900081E08093390681E0D7CF642F0E946317C8
:102FA000FACF80913906811519F0CE010E94511790
:102FB000A701193138F4612FCE010E9472171092C7
:102FC0003906E9CF68E1CE010E947217185188E1F5
:102FD000E80EF11CEDCF8E898F3F11F488E78E8BC0
:102FE000E885F9859701412F64E1CE01DF91CF910A
:102FF0001F91FF90EF900994EF92FF920F931F9310
:10300000CF93DF93EC017C0100E010E0C8010E9447
:103010004439F70181937F010F5F1F4F053311057D
:10302000A9F7FE01EF5BFF4F8DA19EA1AFA1B8A54F
:1030300080839183A283B383DE01A75BBF4F80E1CE
:10304000FE0101900D928A95E1F7DE01AB58BF4F6A
:10305000FE0170968CE001900D928A95E1F7FE01D9
:10306000E75AFF4F8C8D90E0A0E0B0E08083918321
:10307000A283B3833C968D8D9E8DAF8DB8A1819335
:103080009193A193B19389A19AA1ABA1BCA1808393
:103090009183A283B383F49689A59AA5ABA5BCA519
:1030A00080839183A283B3833C968DA59EA5AFA513
:1030B000B8A980839183A283B383F89789A99AA939
:1030C000ABA9BCA980839183A283B383DF91CF9105
:1030D0001F910F91FF90EF900895FF920F931F9310
:1030E000CF93DF93EC01FC01EF5BFF4F8081918177
:1030F000A281B3818DA39EA3AFA3B8A7789681E0E8
:103100004081518162817381452B462B472B09F405
:1031100080E08C8FFE01EB59FF4F81919191A1913D
:10312000B1918D8F9E8FAF8FB8A380819181A28145
:10313000B38189A39AA3ABA3BCA3F49680819181A8
:10314000A281B38189A79AA7ABA7BCA73C9680812F
:103150009181A281B3818DA79EA7AFA7B8ABE0569E
:10316000F10980E1DE0101900D928A95E1F7DE011F
:103170005096FE01EB58FF4F8CE001900D928A951E
:10318000E1F7FE01EF58FF4F80819181A281B38169
:1031900089AB9AABABABBCAB00E010E0F8802196FA
:1031A000C8010E944439F81621F06F2DC8010E9411
:1031B0004C390F5F1F4F0533110581F7DF91CF9118
:1031C0001F910F91FF9008950F931F93CF93DF935B
:1031D000EC018A859B85009769F48C859D8597FF16
:1031E00004C01D861C86CE013DC08FEF9FEF9D87DA
:1031F0008C87F9CF81309105F1F48C819D81FC01A0
:10320000E75AFF4F41E050E060E070E0008111813B
:1032100022813381012B022B032B19F040E050E077
:10322000BA014083518362837383FC01EF54FF4FE3
:1032300081E08083D8CF8230910531F48C819D81EB
:10324000FC01E755FF4FDECF039769F68C819D8126
:103250000E946D18EC81FD81EF54FF4F81E0808367
:103260008A819B81DF91CF911F910F910895CF9318
:10327000DF93EC018C819D810E946D18EC81FD81B2
:10328000EF54FF4F81E080838A819B81DF91CF9152
:103290000895FC01DC01A359BF4F1D921D921D92A0
:1032A0001C921397AC5BBF4F81E08C93D0971D921B
:1032B0001D921D921D921D921D921D921D921D9296
:1032C0001D921D921D921D921D921D921D921D9286
:1032D0001D921D921C921397D4971D921D921D92C0
:1032E0001D921D921D921D921C92139790978D9185
:1032F0009D910D90BC91A02D85A396A3A7A3B0A7E7
:10330000CF010C946D182F923F924F925F926F9263
:103310007F928F929F92AF92BF92CF92DF92EF9265
:10332000FF920F931F93CF93DF93CDB7DEB76797CD
:103330000FB6F894DEBF0FBECDBF1C01DC01D596E1
:103340008D909C90D697F401FD96E080F1800281EB
:103350001381EF86F88A098B1A8B9B960D911C912D
:103360001A830983000F111F000F111F020D131D77
:1033700020E030E048EC53E46F85788989899A89A8
:103380000E94C034D8011B966D937D938D939C93BE
:103390001E97F401EF56FF4F20E030E04FE753E473
:1033A00060817181828193810E94C034F801638FB2
:1033B000748F858F968F89819A810196E4E0F0E081
:1033C000BF010E94EF359C01D1019C969C938E9386
:1033D0009B97880F991F880F991F7101E80EF91E9E
:1033E000FA86E986D7011B96ED90FD900D911C9110
:1033F0001E97E982FA820B831C83C9010196BF01E3
:103400000E94EF35880F991F880F991F7101E80EF0
:10341000F91EFC86EB86D7011B964D905D906D9052
:103420007C901E97C9010296BF010E94EF35880F5C
:10343000991F880F991F7101E80EF91EFE86ED860F
:10344000D7011B96CD90DD90ED90FC901E972D5FDF
:103450003F4F23703327220F331F220F331F810169
:10346000020F131F1C8B0B8BD8011B968D919D9106
:103470000D90BC91A02D8D839E83AF83B88720E0F3
:1034800030E0A90169817A818B819C810E94B035ED
:103490008B018E8B9D8B20E030E040E85EE3C30122
:1034A000B2010E94B0359B01AC01B8018E899D89A3
:1034B0000E9454348B018E8B9D8B20E030E040E0E5
:1034C0005FE3C701B6010E94B0359B01AC01B801B2
:1034D0008E899D890E9454348B018E8B9D8B20E0B8
:1034E00030E040E45FE36D817E818F8198850E94AA
:1034F000B0359B01AC01B8018E899D890E9454347E
:1035000020E030E040EC5FE30E94C0348B018E8B02
:103510009D8BA301920169817A818B819C810E949C
:103520005434A70196010E9454342D813E814F816D
:1035300058850E94543420E030E040E85EE30E9469
:10354000B0359B01AC01B8018E899D890E9453342E
:1035500024E535E545E55EE30E94C0346D8B7E8B46
:103560005C01F401E35AFF4FCB01D50180839183C5
:10357000A283B383A985BA855B96ED90FD900D91EA
:103580001C915E97E982FA820B831C83EB85FC8594
:10359000438C548C658C768CAD85BE855B96ED90A6
:1035A000FD900D911C915E97ED82FE820F8318872E
:1035B000EB89FC89C38CD48CE58CF68CA301920139
:1035C00069817A818B819C810E9454342D813E8156
:1035D0004F8158850E945434A70196010E945434AB
:1035E00069877B878F8B9B8BCB01AF89BB89F1016F
:1035F00085A796A7A7A7B0AB20E030E0A901698115
:103600007A818B819C810E94B03569837D878C0192
:1036100020E030E040E85EE3C301B2010E94B03533
:103620009B01AC0169817D85C8010E9454343B0136
:103630008C0120E030E040E05FE36D817E818F818E
:1036400098850E94B0359B01AC01B301C8010E946E
:1036500054343B018C0120E030E040E45FE3C701DB
:10366000B6010E94B0359B01AC01B301C8010E94B4
:103670005434B62FA72F462F572F682F792FF101DB
:1036800041AB52AB63AB74AB20E030E040EC5FE3A6
:103690006B2F7A2F0E94C0347B018C0120E030E038
:1036A00040E85EE369857B858F899B890E94B03500
:1036B0009B01AC01B701C8010E94533424E535E5F4
:1036C00045E55EE30E94C0348B018D839983F4014C
:1036D000EF59FF4FCB01AD81B98180839183A283E4
:1036E000B383389780819181A281B381892B8A2B02
:1036F0008B2B09F4AEC0D401D596CD90DD90ED9022
:10370000FC90D897BDE3CB16D104E104F1040CF48E
:10371000A0C0FC9680819181A281B381892B8A2BE4
:103720008B2B09F496C0E455F10920813181428147
:1037300053816F85788989899A890E94EA3518169C
:103740000CF087C0C701B6010E94343520E030E09C
:1037500040EF52E40E94533424E53FE94CE85FEB2C
:103760000E94B03520E030E040EF52E40E94C034C7
:103770000E9402326B017C01F401EB59FF4F208162
:103780003181428153810E94B0359B01AC016D892A
:103790007E89C5010E94EA3518160CF05AC0F40162
:1037A000E759FF4F2081318142815381B601C70122
:1037B0000E94B0359B01AC01B8018D8199810E94B6
:1037C000273787FF46C00E94260E28EE33E040E0F0
:1037D00050E00E94C339D101D596ED91FC91EF558F
:1037E000FF4F80819181A281B38179018A01E81A1A
:1037F000F90A0A0B1B0BD801C7010B97A105B105EC
:1038000040F10E94260ED101D5962D913C91F901EF
:10381000ED54FF4F6083718382839383C901679660
:103820000FB6F894DEBF0FBECDBFDF91CF911F91D1
:103830000F91FF90EF90DF90CF90BF90AF909F904F
:103840008F907F906F905F904F903F902F900C944F
:10385000491967960FB6F894DEBF0FBECDBFDF9152
:10386000CF911F910F91FF90EF90DF90CF90BF907D
:10387000AF909F908F907F906F905F904F903F9010
:103880002F900895CF93DF93EC018C819D81FC01F3
:10389000E359FF4F4081518162817381452B462B53
:1038A000472B81F441E050E060E070E040835183B9
:1038B00062837383EC5BFF4F81E08083CE01DF91F5
:1038C000CF9108950E944919F9CF2F923F924F92BC
:1038D0005F926F927F928F929F92AF92BF92CF92A0
:1038E000DF92EF92FF920F931F93CF93DF93EC0140
:1038F0000D891E890530110509F0EEC01E8A1D8A4A
:103900006D857E858B859C85680F791F8F8598894D
:10391000680F791F89899A89680F791F0F89188D17
:103920008B899C89680F791F072E000C880B990BD7
:103930000E94343520E030E040EA50E40E94C03478
:10394000F62FE72FD801AB5BBF4F462F572FBC0197
:103950004D935D936D937C9313972F2F3E2FAC0166
:1039600060E070EC8FE794E40E94C03420E030E027
:1039700040E85FE30E9453349B01AC0160E070E5D6
:1039800083EC97E40E94C03420E030E543EC57E438
:103990000E94C0340E94163320E030EE46E755E422
:1039A0000E94C0342FE03FEC4BE55BE30E945434AF
:1039B0009B01AC0160E070E080E89FE30E94C034AE
:1039C00023E333E948E853E40E94533420E030E035
:1039D00040E050E40E9453347B01D82FC92FCB0123
:1039E000AD2FBC2FF80181AF92AFA3AFB4AF20E0F1
:1039F00030E040E450E4B7018D2F9C2F0E94FB3350
:103A00003B014C016801FDE3CF0ED11CF801E35BE3
:103A1000FF4F2081318142815381B7018D2F9C2F2F
:103A20000E94B035B62FA72FB82EA92EC801875BEC
:103A30009F4FFC0120813181428153816B2F7A2F6E
:103A40008B2D9A2D0E9454341B012C015801F1E555
:103A5000AF0EB11C97014D2F5C2FB7018D2F9C2FFE
:103A60000E94B035E501288139814A815B810E943D
:103A7000B0359B01AC01B101C2010E9454347B01FD
:103A8000D82FC92FF801EB5AFF4F20813181428195
:103A90005381B301C4010E94B0359B01AC01B70151
:103AA0008D2F9C2F0E945434F60160837183828392
:103AB0009383DF91CF911F910F91FF90EF90DF9053
:103AC000CF90BF90AF909F908F907F906F905F90BE
:103AD0004F903F902F900895C80101969E8B8D8B3B
:103AE000898D0E94C20E000F111FFE01E00FF11F11
:103AF00094878387DECFFC01A081B18150964C91E1
:103B000082AD489FA001112483E0440F551F8A9580
:103B1000E1F760E070E080AD91AD0C943639CF9361
:103B2000DF93EC01FC01E557FF4F8081811519F00F
:103B3000CE010E947B1D60E0CE01DF91CF910C94FD
:103B400096051F93CF93DF93EC010E943B051BADBD
:103B50008AAD180FE881F9818189181768F0EC8126
:103B6000FD8120E030E040E060E1CE01099580E099
:103B7000DF91CF911F910895FE01E557FF4F80819E
:103B8000811519F0CE010E947B1D612FCE010E948C
:103B9000960581E0EDCF2F923F924F925F926F9208
:103BA0007F928F929F92AF92BF92CF92DF92EF92CD
:103BB000FF920F931F93CF93DF9300D000D000D0DC
:103BC000CDB7DEB78D839E83CD80DE802BE5C20E20
:103BD000D11CD6010D911C910E541F4FF80180810C
:103BE00081110BC08CE996E00E940A14892B29F000
:103BF00061E070E0C8010E94CB15D6010D911C91C7
:103C0000F801EE54FF4F8081803109F048C20E94D4
:103C1000260EF801E756FF4F6083718382839383FA
:103C200000E010E0F601608171816B5C7F4F600FF6
:103C3000711F44E050E08CE996E00E94C7140C5FCD
:103C40001F4F0C37110571F7D6010D911C91F8012A
:103C5000EE54FF4F1082E557F10940805180628099
:103C60007380C301B2010E94B4357B01AD80BE8078
:103C7000B1E6AB0EB11CF501608171818281938147
:103C80000E94B435E616F70659F0D5014D925D92C3
:103C90006D927C92139781E0F801EF54FF4F80837F
:103CA000F801E359FF4F408151816281738181E0C6
:103CB000411551056105710509F480E0ED80FE8034
:103CC000B7E7EB0EF11CF70190810D811E81035ABD
:103CD0001F4F9817E1F08083452B462B472B09F4A3
:103CE00040C00E94260EED81FE81E858FF4F6083A0
:103CF000718382839383D601ED91FC9115AA16AA54
:103D000017AA10AEF8011082118212821382D70115
:103D10008C91811531F10E94260EED81FE81E858CB
:103D2000FF4F80809180A280B380681979098A0949
:103D30009B09ED81FE81E458FF4F6083718382838C
:103D40009383F601E080F18028EE33E040E050E01C
:103D50000E94C339D701D5962D933D934D935C9323
:103D6000D897F60120813181F90185A996A9A7A9E3
:103D7000B0ADF8014081518162817381841795074C
:103D8000A607B70749F080839183A283B383F90123
:103D9000EF54FF4F81E08083ED80FE80FFE6EF0E61
:103DA000F11CD7018D919C910D811E8103591F4FEC
:103DB000F80191838083ED81FE81E559FF4F808179
:103DC0000E94D1129C01F1E08F27D7018D939C9323
:103DD000F80180819181019781F52130310569F5E4
:103DE000D601ED91FC91E954FF4F8081811111C002
:103DF0000D811E8107591F4FF80180819181DC01DF
:103E0000ED91FC910480F581E02D0995F8019183F5
:103E10008083D601ED91FC91EF54FF4F81E08083C8
:103E20000E94260EF60120813181F901ED54FF4FE9
:103E300061937193819391931082ED80FE80F5E7F9
:103E4000EF0EF11CD7018D919C910D811E810D58B3
:103E50001F4FF80191838083ED81FE81EF58FF4F62
:103E600080810E94D1129C01F1E08F27D7018D93B0
:103E70009C93F80180819181019781F52130310572
:103E800069F5D601ED91FC91E954FF4F80818111D4
:103E900011C00D811E8107591F4FF801808191814A
:103EA000DC01ED91FC910680F781E02D0995F80188
:103EB00091838083D601ED91FC91EF54FF4F81E017
:103EC00080830E94260EF60120813181F901ED5494
:103ED000FF4F6193719381939193108240913907C1
:103EE00050913A0760913B0770913C070D811E810C
:103EF0000B591F4FF80180819181A281B3810396F4
:103F0000A11DB11D84179507A607B7077CF5D6013B
:103F1000ED91FC91E954FF4F8081811113C0F801AC
:103F20004083518362837383ED81FE81E759FF4FA4
:103F300080819181DC01ED91FC910280F381E02D83
:103F400061E00995D601ED91FC91EF54FF4F81E0BE
:103F500080830E94260EF60120813181F901ED5403
:103F6000FF4F619371938193919310824091390730
:103F700050913A0760913B0770913C07F8018081AE
:103F80009181A281B3810397A109B109481759070B
:103F90006A077B077CF5D601ED91FC91E954FF4F50
:103FA0008081811113C0F801408351836283738340
:103FB000ED81FE81E759FF4F80819181DC01ED9118
:103FC000FC910280F381E02D60E00995D601ED912E
:103FD000FC91EF54FF4F81E080830E94260EF60192
:103FE00020813181F901ED54FF4F619371938193E9
:103FF000919310820E94260E613D774081059105C4
:10400000A0F00E94260E643378408105910568F483
:10401000D6018D919C91FC01EB55FF4F10821182CE
:10402000128213823C9681E080830E94260EF60164
:10403000A081B181FD01ED54FF4F008111812281EA
:104040003381AB01BC01401B510B620B730B41363A
:104050005A4E6105710508F0F0C1D6018D919C9111
:10406000FC01EF54FF4F2081211114C30F900F90DA
:104070000F900F900F900F90DF91CF911F910F91A4
:10408000FF90EF90DF90CF90BF90AF909F908F9078
:104090007F906F905F904F903F902F900895813167
:1040A00009F032C160E570E08D819E810B960E941F
:1040B000CB15ED81FE81E95AFF4F80819181A2816C
:1040C000B3818C339D42AE41BF4009F0BDCDD601D6
:1040D0000D911C91F801EF5BFF4FAD81BE811B96E6
:1040E0002D913D914D915C911E97608171818281EE
:1040F00093810E9427378115A9F00E94260EF601B0
:10410000008111817801F1EAEF0EF11C28EE33E015
:1041100040E050E00E94C339D7012D933D934D9369
:104120005C931397ED81FE8183859485A585B68583
:10413000F801EF5BFF4F80839183A283B383ED810E
:10414000FE8187859089A189B289F801EF58FF4FD8
:1041500080839183A283B383ED81FE81E15BFF4F76
:1041600080819181A281B381F801EB55FF4F80835B
:104170009183A283B383ED81FE8183899489A5898C
:10418000B689F801EB56FF4F80839183A283B383F6
:10419000ED81FE8147A950AD61AD72ADF801E75ADE
:1041A000FF4F4083518362837383ED81FE81E55B22
:1041B000FF4F4081518162817381F801E356FF4FC7
:1041C0004083518362837383ED81FE81ED5AFF4FFB
:1041D0004081518162817381F801E755FF4F40832F
:1041E000518362837383892B8A2B8B2B99F47801FB
:1041F000F1E9EF0EF11CAD81BE8157966D917D9175
:104200008D919C915A970E943235F701608371839A
:10421000828393839801275B3F4FED81FE81838DDD
:10422000948DA58DB68DF90180839183A283B3838C
:104230002C5F3F4FED81FE81878D90A1A1A1B2A19E
:10424000F90180839183A283B3832C5F3F4FED817B
:10425000FE8183A194A1A5A1B6A1F90180839183D8
:10426000A283B3832C5F3F4FED81FE8187A190A590
:10427000A1A5B2A5F90180839183A283B383205EB7
:104280003F4FED81FE8183A594A5A5A5B6A5F901B3
:1042900080839183A283B3832C5F3F4FED81FE81A6
:1042A00087A590A9A1A9B2A9F90180839183A283CE
:1042B000B3832C5F3F4FED81FE8183A994A9A5A90B
:1042C000B6A9F90180839183A283B3832851310970
:1042D000ED81FE8183AD94ADA5ADB6ADF9018193BD
:1042E0009193A193B193AD81BE81DF968D919D9104
:1042F0000D90BC91A02D80839183A283B383E85B52
:10430000FF4F81E08083A0CC803271F4F801E35943
:10431000FF4F81E090E0A0E0B0E080839183A28332
:10432000B383EC5BFF4FEECF813221F4C8010E94D2
:1043300049198ACC803309F079C0F801E75BFF4F57
:1043400080E09CE5A1E6B2EC81939193A193B193B7
:1043500080E096E4A0E8B0E481939193A193B193B7
:104360008EEB97E6A4EABCEB81939193A193B19372
:1043700080E290EFA0E4B8E380839183A283B383CB
:10438000749780E090E0A4E3B3E480839183A283F8
:10439000B383F4968AE097EDA3E2BDE38193919312
:1043A000A193B19387E197EBA1EDB8E3819391934A
:1043B000A193B1938FE892ECA5E7BDE3808391834D
:1043C000A283B383B49781E090E0A0E0B0E0808363
:1043D0009183A283B3833C964AE057ED63E27CE38A
:1043E00041935193619371934AE959E969E97DEBEE
:1043F0004083518362837383F49680839183A28385
:10440000B383BC974FEF50E060E070E0408351838E
:1044100062837383F89680839183A283B383C801F8
:104420000E946D18C8010E94FC170ECC813309F060
:104430000BCCC8010E946D1807CCFD01E755FF4F5A
:104440004081518162817381452B462B472B09F4B2
:1044500004CEFC974081518162817381452B462BAC
:10446000472B09F0FACDE65BFF4F81E08083ED81B9
:10447000FE81E759FF4F20803180F10186819781CD
:1044800004960E948F1DD10114960D911C91F80184
:10449000E854FF4F8FEF98E9A9E1B0E4819391933D
:1044A000A193B19350E040E038E920E4852F942FA8
:1044B000A32FB22F80839183A283B383A0E5B0E0C2
:1044C000BA83A983812C912C88E9E82E90E4F92EF7
:1044D000F801E854FF4F4080518062807380C3012F
:1044E000B2010E94F531282D392D4E2D5F2D0E94ED
:1044F000B0355B018C0120E030E0A9010E94EA3573
:1045000020E030E040E05FE3B50187FDBBC0C801BB
:104510000E9454340E94B4358B01005C1F4FC301CC
:10452000B2010E944B34282D392D4E2D5F2D0E9453
:10453000B0355B017C0120E030E0A9010E94EA3542
:1045400020E030E040E05FE3B50187FD9FC0C70198
:104550000E9454340E94B435462F572F405E5F4F5F
:104560000038110550F44034510538F4F1018681CA
:104570009781B80104960E943D09D10114960D91CE
:104580001C91F801E054FF4FFC83EB834080518085
:10459000628073807801F8EBEF0EF11C2FEF38E9A1
:1045A00049E150E4C301B2010E945434F701208173
:1045B0003181428153810E9454344B015C012BEDC7
:1045C0003FE049EC50E40E94EA35181654F42BED14
:1045D0003FE049EC50E4B401C5010E9453344B0163
:1045E0005C01C401D501F70180839183A283B38369
:1045F00020E030E040E45FE35801FCEBAF0EB11C7B
:10460000D5016D917D918D919C910E9454344B0107
:104610007C01862F992DAE2DBF2DF50180839183CE
:10462000A283B38389819A8101979A838983892B95
:1046300009F04ECF28E934EC43E858E3C301B20156
:104640000E9454347B018C012BED3FE049EC50E497
:104650000E94EA3587FD04C0E12CF12C00E010E057
:10466000C701D801EB81FC8180839183A283B3834E
:10467000D10116968D919C9104960E94A11D8111E5
:1046800002CFEBCCC8010E94533444CFC7010E9433
:10469000533460CFFC01E954FF4F80818111E6CC97
:1046A000ED81FE81E759FF4F80819181DC01ED9121
:1046B000FC910190F081E02D0995D601ED91FC91DE
:1046C000EF54FF4F1082D2CC85ED8093BC008091D7
:1046D000680690916906A0916A06B0916B060796EC
:1046E000A11DB11D23E0B695A795979587952A95AD
:1046F000D1F72091BC0024FD03C0109266060895F6
:10470000409168065091690660916A0670916B0647
:10471000452B462B472B69F30097A105B10541F0C6
:104720002AE22A95F1F700C00197A109B109E1CF6A
:10473000809167060C94850FFC0180819181009720
:1047400011F00C94E6370895CF93DF93EC01888144
:104750009981009711F00E94E637198218821D8214
:104760001C821B821A82DF91CF9108950F931F93B1
:10477000CF93DF93EC018B0188819981009729F019
:104780002A813B812617370790F4B8016F5F7F4F6E
:104790000E947738FC0180E0309751F0F983E8837C
:1047A0001B830A838C819D81892B09F4108281E00F
:1047B000DF91CF911F910F9108950F931F93CF9386
:1047C000DF938C01EB01FC0180819181009771F0F6
:1047D000688179816115710539F0428153812C819D
:1047E0003D8142175307A0F40E94E63788819981E2
:1047F000F801918380838A819B81938382838C815A
:104800009D8195838483198218821B821A8207C036
:104810000E943D398C819D81F801958384831D829E
:104820001C82DF91CF911F910F910895EF92FF921B
:104830000F931F93CF93DF93EC017B01CA01672B8A
:1048400041F480E0DF91CF911F910F91FF90EF90A5
:104850000895892BA9F00C811D81040F151FB80143
:10486000CE010E94B623811561F3288139818C81A4
:104870009D81B701820F931F0E943D391D830C83D8
:1048800081E0E0CFCF93DF93D82FC92FFB01448184
:104890005581608171810E941624811104C08D2F81
:1048A0009C2F0E94A4238D2F9C2FDF91CF910895E0
:1048B000EF92FF920F931F93CF93DF93EC017B0155
:1048C0008A01BA010E94B623811109C0CE01DF918D
:1048D000CF911F910F91FF90EF900C94A4230C8324
:1048E0001D83B70188819981DF91CF911F910F912D
:1048F000FF90EF900C943D39CF93DF93EC01FB01D7
:104900008617970749F0608171816115710541F043
:10491000448155810E945824CE01DF91CF910895A2
:104920000E94A423F9CFCF93DF93D82FC92FDB01A7
:104930000D900020E9F71197AD01461B570B0E941F
:1049400058248D2F9C2FDF91CF910895DB010D907E
:104950000020E9F71197AD01461B570B0C94582422
:104960002F923F924F925F926F927F928F929F927F
:10497000AF92BF92CF92DF92EF92FF920F931F936D
:10498000CF93DF93CDB7DEB7CF54D1090FB6F894EC
:10499000DEBF0FBECDBF1C01DC0114968D919C9132
:1049A0001597FC01EB55FF4F408151816281738166
:1049B000452B462B472B09F4BFC016968D919C9131
:1049C00004960E948F1DF101E680F78097012C5F0D
:1049D0003F4F38AF2FAB0BE210E02BE730E045E163
:1049E00050E065E070E08FA998AD0E9464098111E4
:1049F00023C0D10116968D919C9104960E94A11D11
:104A00008111E1CFC15BDF4F0FB6F894DEBF0FBE5F
:104A1000CDBFDF91CF911F910F91FF90EF90DF906D
:104A2000CF90BF90AF909F908F907F906F905F904E
:104A30004F903F902F90089532EC632E30E0732E0C
:104A400045E1C42ED12CF701E257FF4FFAAFE9AF91
:104A5000970123573F4F3FAF2EAFCBAEDCAE3FEFBA
:104A6000C31AD30A86012BE730E04BAD5CAD65E09D
:104A700070E08FA998AD0E946409582E811541F10C
:104A8000A9ADBAAD4C90B1E0BDAF41101DAE152D32
:104A9000530125E0822E912C86E790E0F5014491A8
:104AA000412320E030E07C01E21AF30AF5014111D4
:104AB0002CC0549151235115A1F0EEADFFAD808172
:104AC0008115A9F1C701EF2849F7A9ADBAAD4C92FC
:104AD000BFE06B0E711CEBE2CE16D10409F0BDCF26
:104AE00088CF2F5F3F4FFFEF8F1A9F0A110F1111D1
:104AF00004C05FEFA51AB50A152D2817390799F6D6
:104B0000E12CF12C4115C9F204C0549151235111EB
:104B1000E8CFA9ADBAAD4C92B401621B730B00E0B3
:104B20004BAD5CAD8FA998AD0E944308CBCFEDADE6
:104B3000A9ADBAADEC93F0CFFC01EF54FF4F81E08B
:104B400080831AAA19AA1CAA1BAA18AA1FA661E286
:104B500072E0CE018F960E94A6240FA518A9D1015C
:104B60001496ED90FC90F701E359FF4F80819181FD
:104B7000A281B381892B8A2B8B2B09F449C3B4966C
:104B800060817181828193810E94B4351616170667
:104B90000CF03EC3F701FD96A080B180C280D380A7
:104BA00020E030E040EA51E46A2D7B2D8C2D9D2DD4
:104BB0000E94273787FD47C320E030E040EA53E4F6
:104BC0006A2D7B2D8C2D9D2D0E94EA3518160CF038
:104BD00037C3A12CB12C90EA83E4ABAEBCAE9DAF41
:104BE0008EAF20E030E040EA51E4BBADACADFDADAE
:104BF000EEAD6B2F7A2F8F2F9E2F0E94533420E023
:104C000030E040E052E40E94B03520E030E046E978
:104C100053E40E94C0345B016C0120E030E0A90144
:104C20000E94EA3520E030E040E05FE3B50187FD17
:104C300011C3C6010E945434862E972E5C01C50113
:104C4000B4010E94B4352A967FAF6EAF2A97F70160
:104C5000EF5BFF4FC080D180E280F38020E030E046
:104C600040EA51E46C2D7D2D8E2D9F2D0E9427371B
:104C700087FDF7C220E030E040EA53E46C2D7D2D43
:104C80008E2D9F2D0E94EA3518160CF0E7C2C12C1C
:104C9000D12C90EA83E420E030E040EA51E4FC01CA
:104CA0006C2D7D2D8F2F9E2F0E94533420E030E0FD
:104CB00040E052E40E94B03520E030E046E953E4A1
:104CC0000E94C0346B017C0120E030E0A9010E9409
:104CD000EA3520E030E040E05FE3B60187FDC6C280
:104CE000C7010E945434C62ED72E7C01C701B601DD
:104CF0000E94B4352C967FAF6EAF2C97D1011696DB
:104D00008D919C9104960E948F1D3E01BFE26B0E17
:104D1000711C82E290E0FC012A962EAD3FAD2A97ED
:104D2000E21BF30B2E96FFAFEEAF2E97AC012C9645
:104D3000AEADBFAD2C974A1B5B0B60965FAF4EAF1D
:104D40006097FE0131965F012E01F3E24F0E511C78
:104D50009E01275D3F4F3EAB2DABD1011696ED90E6
:104D6000FC90B4E0EB0EF11C62EC73E0C7010E9412
:104D7000C10661E0C7010E945F0918AB0FA76FED84
:104D800071E0C3010E9493240FA518A9F101E680E8
:104D9000F780B801C70104960E943B0864E370E005
:104DA000681B790B98014BE050E0C7010E946D0B26
:104DB00064EE71E0C3010E9493242FA538A94BE053
:104DC00050E06CE470E0D10116968D919C910E94A8
:104DD0006D0BF1018681978168E370E004960E9473
:104DE000F014D10116968D919C912A962EAD3FAD6F
:104DF0002A972E964EAD5FAD2E9768E370E004962D
:104E00000E942F15F1018681978162E470E004967B
:104E10000E94F014D10116968D919C912C962EAD86
:104E20003FAD2C9760964EAD5FAD609762E470E049
:104E300004960E942F15F101868197816CE072E043
:104E400004960E94C1061CA21BA21EA21DA218A6A7
:104E50001FA25BAD4CAD3DAD2EAD652F742F832FE2
:104E6000922F0E94B435362F272F4AE0B501832FA9
:104E7000922F0E94C136B501C2010E949324B20153
:104E8000C3010E94DD23CFA4D8A8C2010E949C23A5
:104E9000D10116960D911C917801B4E0EB0EF11C36
:104EA00024EC34E0F80137832683B601C7010E9461
:104EB0008907E4ECF4E0D8011796FC93EE9316977B
:104EC00064E370E0681B790B960142E250E0C70191
:104ED0000E941C0BD1011496ED91FC91EF5BFF4FEA
:104EE00060817181828193810E94B435362F272F92
:104EF0001CA21BA21EA21DA218A61FA24AE0B50159
:104F0000832F922F0E94C136B501C2010E949324C3
:104F1000B201C3010E94DD230FA518A9C2010E949E
:104F20009C23D1011696ED91FC9124EC34E037835B
:104F30002683980142E250E06CE470E0CF010496D1
:104F40000E941C0BD10116968D919C9162EC73E02E
:104F500004960E94C1061A8219821C821B821E823C
:104F60001D8269EE71E0C5010E94A624B501C3014E
:104F70000E94DD230FA518A9C5010E949C2398015A
:104F80004EE250E061E470E0F101868197810E9479
:104F90006D0BD10116968D919C91FC01349626964D
:104FA000FFAFEEAF26970AE210E02FE330E045E2D4
:104FB00050E06AE370E0CF010E94640921966FAE71
:104FC000219722967FAE2297AFAAB9AE27964FAE11
:104FD000279728965FAE289781114CC1D10114966E
:104FE000ED91FC9165A976A987A990AD2CE330E0FD
:104FF00040E050E00E945A391AA619A61CA61BA62A
:105000001EA61DA62AE04FA959AD0E94CC366FA955
:1050100079ADCE0189960E949324D1011496ED9129
:10502000FC9165A976A987A990AD2CE330E040E01A
:1050300050E00E945A39CA01B9011CA21BA21EA24B
:105040001DA218A61FA22AE04FA959AD0E94CC3676
:105050006FA979AD27968FAD279728969FAD289792
:105060000E9493241A8219821C821B821E821D8236
:1050700027966FAD279728967FAD28978FA999AD72
:105080000E947C2441E050E06BEE71E08FA999AD65
:105090000E941624EDA8FEA8811509F42CC1B701C1
:1050A0008FA999AD0E9442248C0141E050E06DEE41
:1050B00071E00E941624811103C0C8010E94A4233C
:1050C000B80121968FAD219722969FAD22970E941D
:1050D0007C240FA518A98FA999AD0E949C2327961F
:1050E0008FAD279728969FAD28970E949C23C701D4
:1050F0000E949C23D1011496ED91FC91DF01A359EC
:10510000BF4F8D919D910D90BC91A02D892B8A2B25
:105110008B2B29F585A996A9A7A9B0AD1A8219826A
:105120001C821B821E821D82892B8A2B8B2B09F0ED
:10513000E7C06FEE71E08FA999AD0E94A6246FA918
:1051400079AD21968FAD219722969FAD22970E942F
:10515000DD230FA518A98FA999AD0E949C23F10109
:10516000C680D780B801C60104960E943B08D101D1
:105170001696ED90FC9060E870E0681B790B80E07B
:1051800090E00E94323520E030E040E05FE30E9492
:10519000B03520E030E0A9010E94EA35282FC70190
:1051A0000496B80127FDB7C00E943B0860E870E094
:1051B000681B790B80E090E00E94323520E030E0FF
:1051C00040E05FE30E94B03520E030E040E05FE384
:1051D0000E9454340E94B43598014EE350E0E62F0B
:1051E000F72FBF01C6010E946D0BF10186819781E7
:1051F00004960E94A11D8111B0CD18AB0FA7219676
:105200008FAD219722969FAD22970E949C23FACBC7
:10521000F701A1ACB2ACC3ACD4AC20E030E040EAC2
:1052200051E46A2D7B2D8C2D9D2D0E94273787FF01
:10523000C3CC1BAE1CAE30EA3DAF41E44EAFD1CC87
:105240009C2D8D2DCACC1BAE1CAEF0EAFDAF21E427
:105250002EAFC7CCC6010E945334EECC9E2D8F2DAD
:105260001ACDC12CD12C90EA81E415CDC7010E9442
:10527000533439CD42E050E060E070E026968EADC8
:105280009FAD26970E946115C12CD12CE1E0F0E082
:105290002496FFAFEEAF249782E0E82EF12C9CEF2E
:1052A000892E99249A940FEF1FEF3FEFC31AD30A68
:1052B00024964EAD5FAD24974E5F5F4F24965FAF4F
:1052C0004EAF2497040F151FA701B60126968EAD89
:1052D0009FAD26970E946115CE14DF0408F07ECEA4
:1052E00017FDE3CFF1E0EF1AF10822E0820E911CE6
:1052F000080D191DDACF8FA999AD0E94A423CFCE36
:1053000021966FAD219722967FAD22978FA999ADF7
:105310000E947C2414CF0E943B0860E870E0681B68
:10532000790B80E090E00E94323520E030E040E0F0
:105330005FE30E94B03520E030E040E05FE30E9490
:10534000533448CF2F923F924F925F926F927F9249
:105350008F929F92AF92BF92CF92DF92EF92FF9285
:105360000F931F93CF93DF93CDB7DEB7C154D1090D
:105370000FB6F894DEBF0FBECDBF8C011FAA1EAAC8
:1053800019AE18AE1DAA1CAA5E0124E3A20EB11C20
:1053900061E272E0C5010E94A624ECA8FDA8D80134
:1053A0001696CD90DC90B4E0CB0ED11C62EC73E08D
:1053B000C6010E94C106C6010E948F1DAAAEBBAEE7
:1053C000AE01425D5F4F9E01285D3F4FCE01829648
:1053D00060E8462E512C79EFA72E71E0B72EE6EF4C
:1053E0002E2EE1E03E2E4CAF5DAF2EAF3FAF2196AB
:1053F0008FAF219722969FAF2297F80186819781E0
:1054000061E004960E945F09C12CD12CF8016680EE
:1054100077808085918593012C5F3F4F4901C816A5
:10542000D9062CF1C9010E94A11D8111E6CFFDAA68
:10543000ECAA8AAD9BAD0E949C23CF5BDF4F0FB6D9
:10544000F894DEBF0FBECDBFDF91CF911F910F91BA
:10545000FF90EF90DF90CF90BF90AF909F908F9094
:105460007F906F905F904F903F902F900895D8015C
:105470001A968D919C911B978C159D0529F41C966D
:105480008D919C9160E097FF61E0C4010E945F09EB
:10549000C114D10409F09FC02CEF31E04DE050E081
:1054A00060E070E0C3010E946D0BF8018681978176
:1054B000228533850496232B29F42485358560E0E5
:1054C000232B09F061E00E945F091FA61EA619AAFE
:1054D00018AA1BAA1AAA60E272E08CAD9DAD0E94C8
:1054E000A624D8011496ED91FC91E356FF4F6081FC
:1054F00071818281938119A618A61BA61AA61DA6E2
:105500001CA62AE0AE014F5F5F4F0E94DB36BE0152
:105510006F5F7F4F8EAD9FAD0E9493241A821982D8
:105520001C821B821E821D8260E272E0CE01019607
:105530000E94A6241BA21AA21DA21CA21FA21EA288
:10554000BE016F5F7F4F21968FAD219722969FAD51
:1055500022970E947C246EAD7FAD21968FAD21975E
:1055600022969FAD22970E9442246CAD7DAD0E9491
:105570004224BC01FDAAECAA8AAD9BAD0E947C240A
:10558000ECA8FDA821968FAD219722969FAD22977A
:105590000E949C23CE0101960E949C238EAD9FAD5C
:1055A0000E949C238CAD9DAD0E949C23F8018680B7
:1055B0009780B701C40104960E943B08B201681BA2
:1055C000790B97014DE050E0C4010E946D0BBFEFD5
:1055D000CB1ADB0A1BCFF1E0CF16D10409F049C08A
:1055E0002FE032E04AE150E060E070E0C3010E9449
:1055F0006D0BD8011496ED91FC91E75AFF4F808115
:105600009181A281B381B101892B8A2B8B2B09F463
:10561000B5011A8219821C821B821E821D82CE0154
:1056200001960E94A624FDAAECAABE016F5F7F4FDF
:105630008AAD9BAD0E94DD23ECA8FDA8CE010196AA
:105640000E949C23F801668077804301F4E08F0E6E
:10565000911C61E0C4010E945F09B701C4010E946E
:105660003B08B201681B790B97014AE150E0C30186
:10567000ACCF22E0C216D10409F048C022E232E0E9
:1056800047E250E060E070E0C3010E946D0BD8017A
:105690001496ED91FC91E755FF4F80819181A28195
:1056A000B381B101892B8A2B8B2B09F4B5011A82A6
:1056B00019821C821B821E821D82CE0101960E94CD
:1056C000A624FDAAECAABE016F5F7F4F8AAD9BADF9
:1056D0000E94DD23ECA8FDA8CE0101960E949C2328
:1056E000F801668077804301F4E08F0E911C61E041
:1056F000C4010E945F09B701C4010E943B08B201C6
:10570000681B790B970147E250E0B1CF23E0C21646
:10571000D10409F05CCF65E372E0C4010E943B084C
:10572000D80116968D909C90B201681B790B80E091
:1057300090E00E94323520E030E040E05FE30E94DC
:10574000B03520E030E0A9010E94EA35282FC401DD
:10575000049665E372E027FD1FC00E943B08B2017A
:10576000681B790B80E090E00E94323520E030E049
:1057700040E05FE30E94B03520E030E040E05FE3CE
:105780000E9454340E94B43525E332E044E350E0F3
:10579000E62FF72FBF016BCF0E943B08B201681BB9
:1057A000790B80E090E00E94323520E030E040E06C
:1057B0005FE30E94B03520E030E040E05FE30E940C
:1057C0005334E0CF1F920F920FB60F9211242F93F4
:1057D0003F934F935F936F937F938F939F93AF9379
:1057E000BF93EF93FF939091B900892F887F803505
:1057F00009F4C0C008F042C0803309F4B6C098F57F
:10580000883101F1D0F4883009F4A7C0803109F45F
:10581000A4C0811509F4F0C0FF91EF91BF91AF9141
:105820009F918F917F916F915F914F913F912F91B8
:105830000F900FBE0F901F901895803209F495C0FD
:10584000883251F79091630680916206981778F537
:10585000E091630681E08E0F80936306F0E0EE5BDB
:10586000F94F80817CC0803409F490C0883409F4F9
:105870007EC0883389F6809364066DC0803A09F44F
:105880009FC0B8F5803809F489C050F5803611F111
:10589000D8F4883509F6E091630681E08E0F809395
:1058A00063068091BB00F0E0EE5BF94F808380914E
:1058B000650681115CC081E08093400684EA809394
:1058C000BC0010926606A8CF803721F0987E9836EB
:1058D00009F0A2CF83E0809366061092F60541C0DE
:1058E000803909F45BC0987E983809F095CF85E837
:1058F00039C0883BD9F058F5883A19F0803B09F057
:105900008BCF84E0809366061092D505109218061E
:10591000E0913C06F0913D060995809118068111B1
:1059200005C081E0809318061092F805E091D50536
:1059300081E08E0F8093D505F0E0E850FA4F80812A
:105940008093BB009091D5058091180623C0907F6D
:10595000903C09F061CF85ECB2CF809141068093F5
:10596000BB0085EC8093BC0057CF809364060E94F7
:10597000642352CFE091630681E08E0F809363062B
:105980008091BB00F0E0EE5BF94F8083909163065D
:1059900080916206981708F0AACFE3CF8091F605B0
:1059A000803208F0A4CFE091F60581E08E0F80935D
:1059B000F6058091BB00F0E0EA52FA4F8083D1CF28
:1059C00085EC8093BC00109266068091F6058032CB
:1059D00030F4E091F605F0E0EA52FA4F108260915F
:1059E000F60570E0E0913A06F0913B0686ED95E011
:1059F00009951092F60510CF10926406B8CF1F9249
:105A00000F920FB60F9211242F933F934F935F93F2
:105A10006F937F938F939F93AF93BF93EF93FF9376
:105A2000E0910001F09101010995FF91EF91BF9183
:105A3000AF919F918F917F916F915F914F913F9126
:105A40002F910F900FBE0F901F9018951F920F92DD
:105A50000FB60F9211242F933F934F935F936F9341
:105A60007F938F939F93AF93BF93EF93FF93E091B7
:105A70000201F09103010995FF91EF91BF91AF9160
:105A80009F918F917F916F915F914F913F912F9156
:105A90000F900FBE0F901F9018951F921FB61F9268
:105AA00011242F933F938F939F93AF93BF93809134
:105AB000D1059091D205A091D305B091D405309134
:105AC000D00523E0230F2D3750F50196A11DB11D00
:105AD0002093D0058093D1059093D205A093D30550
