:100000000C94BE040C94932C0C946C2C0C94E6046D
:100010000C94E6040C94E6040C94E6040C94E604B8
:100020000C94E6040C94E6040C94E6040C94E604A8
:100030000C94E6040C94E6040C94E6040C94E60498
:100040000C94222C0C94E6040C94A1290C947B298A
:100050000C94E6040C94E6040C94E6040C94E60478
:100060000C94312D0C94E60407634236B79BD8A755
:100070001A39685618AEBAAB558C1D3CB7CC5763CD
:10008000BD6DEDFD753EF6177231BF000000803F7B
:1000900005A84CCDB2D44EB93836A9020C50B9914E
:1000A0008688083CA6AAAA2ABE000000803F080055
:1000B0000000BE922449123EABAAAA2ABECDCCCCE7
:1000C0004C3E00000080BEABAAAAAA3E0000000081
:1000D000BF000000803F0000000000084178D3BB53
:1000E0004387D1133D190E3CC3BD4282AD2B3E6800
:1000F000EC8276BED98FE1A93E4C80EFFFBE01C4F1
:10010000FF7F3F000000000000000000E003C0E7A8
:10011000030000000000003FE00300E003C0E7032D
:100120000000000000007FE00300E003C0E70300E0
:1001300000000000007FE00300E003C0E7030000D0
:1001400000000000FFE00300E003C0070000000023
:10015000000000FFE00300E003C007000000000013
:100160000000FFE103FFE0F3C3E7F3F9E103FF075A
:100170001FFFE1C3FFE1FBC7E7F3FDE303DF071F59
:10018000DFE3E3FFE3FFCFE7F3FFE7039F8F0FDF3B
:10019000E3F3E3E7CFCFE7F3EFE7031FDF079FE7E3
:1001A000F3C1E787DFE7F3C3E7031FFF039FE7F32D
:1001B00081EF03DFE7F383EF031FFE031FEFF3FF7E
:1001C000EF03DFE7F381EF031FFC011FEFFBFFEFFE
:1001D00003DFE7F381EF031FFC001FFEFBFFEF03CC
:1001E000DFE7F381EF031FFC011FFEF301E003DFF4
:1001F000E7F381EF031FFE031FFCF301E003DFE7DA
:10020000F381EF831FFE031FFCF301E487DFE7F3B5
:1002100081EFC71FDF071FF8E387E7FFCFE7F38111
:10022000CFFF9F8F0F1FF8E3FFE7FFCFE7F381CFEB
:10023000FFDF870F1FF083FFE7FBC7E7F3818F7FA7
:10024000DF071F1FE003FEE0F181C7E381071FEF17
:10025000031E1202040304050103050E1500FC1021
:10026000FC11FC00000000019920095EC33FFEFF65
:1002700097002A1B5EC33F2E6687E54624660EC89C
:100280002A2B25E664C466C6A2E2F11A002B105E92
:10029000C33F2E66B73BA039A09BDD3D3E2C0F5ED1
:1002A000C33FFE9FC992D2CECACE0A022D0E5EC3B4
:1002B0003F7E793074308FFF0C002E0D5EC33FFE01
:1002C0009FC992D2CA63042F185EC3A7B0ECD2D9DB
:1002D000D1D959D959D959D959D9596179EC00305D
:1002E000235EC33FD0E41905D5CC94D09A9A999A4D
:1002F0001189990991999A999AA16DA628C82EE910
:100300007101310F5EC33FD464DD61C8ECFEEF7153
:100310000132175EC33F10E141D4CC58D4ECA6FBA8
:1003200056F660E8601E6B00331C5EC33F0CE14173
:1003300098CCF0ACEC60652DB1F0EC5494D4CCD8F2
:10034000613D4E00341B5EC33F9CEC28CB4289418B
:10035000893991B1913199A9039A03CAD9ED7135BF
:100360001E5EC33FC481D481D4ECDABB83B011B22A
:100370002861E159294524540781F5B800361C5EEF
:10038000C33F14E1198998EC8AB9032992A9A1FD08
:100390004A686A64EE901E170037175EC33FC4C1F7
:1003A000D0C1ACECD2D959D9A5B3B3B26BE57104C5
:1003B00038215EC33F4CE1D908D1AE66A62806EBD2
:1003C00026C88456094DCD4C09D14C1D04D6E302F4
:1003D00000391D5EC33F10E1DDC8D490D4D0BEA16A
:1003E0003A103B885D2B26427510488F13003A1255
:1003F0005EC33F9ECB92D2CAE3509694561E230012
:1004000000000004FFFF00005F020302030401027A
:1004100004060D00FE09FE0AFF01A8036E04FA207F
:1004200007EEF8F95F00210AEEF8F1B4EF604E0133
:10043000220CEEF8E1244BB224E717002311EEF86A
:10044000A9499644839444839464494E062411EE4A
:10045000F8F170486A49382659920C614E01250F0F
:10046000EEF8E128694AD2B09A4449534E2610EE7C
:10047000F8A961922561258B94285372182709EEFB
:10048000F8F1B4CE4F00280DEEF8A1300DD3CE69AF
:100490009C2300290CEEF8E3344E3BA6618E012A22
:1004A0000CEEF8F12C294D492DE7112B0BEEF859E4
:1004B0006B8396E6CC002C09EEF8F95DAC63002D59
:1004C00009EEF87919749E002E09EEF8F93D1C73B7
:1004D000082F0DEEF849699886D530CD69003013A4
:1004E000EEF8F13089B2244BB2244BB22809730ADA
:1004F00000310CEEF8F1504BD2DE061D06320EEE46
:10050000F8E1294BB234EC3AE83000330DEEF8D183
:10051000410D8B739A64D14E340FEEF82969A825EA
:100520005912950631CD09350EEEF8D141492B927D
:100530009456B268273610EEF8E1294BD27488B28F
:10054000244BB26827370DEEF8D1410DD3300DD3CF
:100550003A093811EEF8E1294BB2248BA62CC99246
:100560002CDA093910EEF8E1294BB2248B86B492CB
:10057000453B013A0CEEF859C331A785630E013BA8
:100580000BEEF859C331A789750C3C0AEEF84961A6
:10059000E7EE30003D0BEEF8390D3A3CE88C003EBA
:1005A0000AEEF8D1B863771A003F0EEEF8E1294B56
:1005B000B234ACE6604E014010EEF8E1294BB224B3
:1005C00052FA458A871C064113EEF8F13089B224AD
:1005D0004BB26450B2244BB21C06420EEEF8D1214D
:1005E0008B7ADAA25E869C00430CEEF8E1294BD2AE
:1005F000DEA29D00440CEEF8D1218BFA7F19720225
:10060000450EEEF8D14149AB439456071D06460D01
:10061000EEF8D14149AB4394B6D300470EEEF8E172
:10062000294BD226254BB268274814EEF8D12CC9A5
:10063000922CC99241C9922CC9922C87014909EE8A
:10064000F8E131EDE34E4A0BEEF8F131EDA9A65396
:10065000004B12EEF8D12CC992A892894916D59276
:100660002C87014C0AEEF8D1FE3AE830004D11EE2D
:10067000F8D12CC9124BBF25599225590E034E12A1
:10068000EEF8D12C911229E9272552B224CB610032
:100690004F12EEF8E1294BB2244BB2244BB2248B1B
:1006A00076025010EEF8D121CA922CC992214ADB71
:1006B00069005112EEF8E1294BB2244BB2244BB23F
:1006C000A469CE015213EEF8D121CA922CC992210D
:1006D0004AB2A89664390C530EEEF8E1294BD27851
:1006E0004E932CDA09540AEEF8D1414BFB9D02558A
:1006F00013EEF8D12CC9922CC9922CC9922CC9A204
:100700009D005613EEF8D12CC9922CC9A2244BB2ED
:10071000244C730A00570FEEF8D12CC9922CC992C1
:10072000FE4F494E5813EEF8D12CC9A2244BC24AB1
:1007300096445992E53000590EEEF8D12CC9A22406
:100740004BC2B43B055A0EEEF8D1410DD3B01AA6F8
:10075000830E035B0AEEF8B7B4BFEE08005C0CEE44
:10076000F8D1721A57E33487015D09EEF8D7FE6DB0
:1007700047005E0AEEF8F13089B29C1F5F08EEF880
:10078000F9B741076009EEF89138E7CF00610EEE46
:10079000F8B9CDD190644964C961006210EEF8D116
:1007A000D621CA922CC9922C197202630CEEF8B9A8
:1007B0004D5992D6A29D006411EEF849696948B27C
:1007C000244BB2248B861C06650DEEF8B94D5932C8
:1007D000286916ED04660DEEF8712DAA864396B6CB
:1007E00093006710EEF8B94D5992255934A4491673
:1007F0004D006810EEF8D12E9294644996644996A3
:10080000C300690AEEF8C939A676DC096A0BEEF86E
:10081000E939A676EAA6016B0EEEF8D14E954C4C5E
:10082000B2A896C3006C09EEF861B51F77026D0C93
:10083000EEF8392951D2FF2D87016E10EEF83925D7
:100840009294644996644996C3006F0EEEF8B94DD0
:100850005992255992453B01700FEEF8390D51968A
:100860006449960C515A05710FEEF8B90D4996641A
:1008700049160D690B00720CEEF839259294A4ED1F
:100880003400730CEEF8B94D59244759B413740C65
:10089000EEF8A9C5214B9B329D00750FEEF8396526
:1008A000499664499644961C06760FEEF8396549D8
:1008B0009664519225614E01770CEEF839654996A0
:1008C000F44F494E780EEEF839655112A661126563
:1008D000390C7910EEF83965499664496449932CCE
:1008E0009A007A0BEEF8390D62D74187017B0BEE47
:1008F000F8212D6D93D3661D7C09EEF8F1B4BF533A
:10090000007D0BEEB8E5B4594BDB740C7E0BEEF8B2
:10091000E128E994F30B0000000004FFFF00000051
:10092000000000240027002A000000000025002805
:10093000002B00000000002300260029000404040E
:100940000404040404020202020202030303030378
:100950000301020408102040800102040810200155
:100960000204081020000000080002010000030437
:1009700007000000000000000000672E11241FBEC9
:10098000CFEFD8E0DEBFCDBF12E0A0E0B1E0ECE5F4
:10099000F6E702C005900D92AE33B107D9F727E014
:1009A000AEE3B2E001C01D92A332B207E1F714E05A
:1009B000CEEBD4E004C02197FE010E942339CD3B49
:1009C000D107C9F70E94F8310C942C3B0C9400001D
:1009D000FC0184859585662309F440C097FF08C013
:1009E000828593850196608571850E94FB3842C09F
:1009F000892B09F079C00480F581E02DE356FF4F83
:100A000080819181A281B3810597A105B10541F44F
:100A10008AE090E0A0E0B0E080839183A283B3837A
:100A200080819181A281B3810197A105B10541F433
:100A300085E090E0A0E0B0E080839183A283B3835F
:100A400080819181A281B381892B8A2B8B2B09F024
:100A50004BC081E090E0A0E0B0E042C097FF0DC045
:100A60008285938501979387828797FF3DC0808514
:100A700091850197938782870895892BA9F5048032
:100A8000F581E02DE356FF4F80819181A281B381F2
:100A90000597A105B10541F481E090E0A0E0B0E048
:100AA00080839183A283B38380819181A281B3816A
:100AB0000A97A105B10541F485E090E0A0E0B0E01F
:100AC00080839183A283B38380819181A281B3814A
:100AD0000B97A105B10540F08AE090E0A0E0B0E0FE
:100AE00080839183A283B3830895DC011496ED91F2
:100AF000FC911597EF54FF4F21E0208312968D91C2
:100B00009C9113970895CF93DF93EC018C819D8185
:100B10000E945925EC81FD81EF54FF4F81E08083D5
:100B20008A819B81DF91CF9108950F931F93CF937B
:100B3000DF93FC0182859385009761F48485958518
:100B400097FF03C01586148641C08FEF9FEF9587EE
:100B500084873CC08130910531F484819581DC012A
:100B6000A75ABF4F08C08230910501F58481958155
:100B7000DC01A755BF4F41E050E060E070E00D910F
:100B80001D912D913C911397012B022B032B19F0F2
:100B900040E050E0BA014D935D936D937C931397C1
:100BA000DC01AF54BF4F21E02C9310C0039771F4C8
:100BB000EF01848195810E945925EC81FD81EF54DC
:100BC000FF4F81E080838A819B8101C0CF01DF914B
:100BD000CF911F910F910895CF93DF93EC018C81FA
:100BE0009D81FC01E359FF4F4081518162817381F6
:100BF000452B462B472B69F441E050E060E070E064
:100C00004083518362837383EC5BFF4F21E0208339
:100C100002C00E94F225CE01DF91CF910895CF92BC
:100C2000DF92EF92FF920F931F93CF93DF93FC011C
:100C3000C481D5816623F1F0FE01E356FF4F608148
:100C40007181828193810E942D348E010F5B1F4F31
:100C5000F80120813181428153810E94FD356B0171
:100C60007C0120E030E04CE553E40E94B6371816D2
:100C700004F532C08E010F5B1F4FFE01E356FF4F9C
:100C800060817181828193810E942D349B01AC012E
:100C9000F80160817181828193810E94FC356B0132
:100CA0007C0120E030E040EA51E40E94283487FDD6
:100CB00013C0F801C082D182E282F3820E94162C16
:100CC000CF55DF4F28EE33E040E050E00E94CB35B7
:100CD000288339834A835B83DF91CF911F910F91E2
:100CE000FF90EF90DF90CF900895AF92BF92CF9298
:100CF000DF92EF92FF920F931F93CF93DF93CDB7C5
:100D0000DEB7E9970FB6F894DEBF0FBECDBF8C01FA
:100D10006AE072E0CE01C4960E946629D801169658
:100D20008D919C91179768E074E004960E942315BA
:100D3000F8018681978104960E94472580E8C82E95
:100D4000D12CD80116968D919C91179761E004964D
:100D50000E94CD14E12CF12CF8012085318586818B
:100D60009781E216F3060CF093C122853385E216D3
:100D7000F30631F42485358537FF02C060E001C0F9
:100D800061E004960E94CD14D80116968D919C9135
:100D90001797E114F10409F086C025EE31E04DE02B
:100DA00050E060E070E00E940314F8012285338572
:100DB00086819781232B31F424853585232B11F4EB
:100DC00060E001C061E004960E94CD1469E072E029
:100DD000CE018E960E946629D8011496ED91FC9161
:100DE0001597E356FF4F608171818281938119A627
:100DF00018A61BA61AA61DA61CA62AE0AE014F5FC8
:100E00005F4F0E94DC33BE016F5F7F4FCE0188963B
:100E10000E940C2969E072E0CE0101960E946629C9
:100E20001BA21AA21DA21CA21FA21EA2BE016F5FBE
:100E30007F4FCE0182960E944F29BE01685D7F4F91
:100E4000CE0182960E941015BE01625D7F4F0E9406
:100E50001015BC01CE01C4960E944F29CE01829686
:100E60000E940D14CE0101960E940D14CE018896A9
:100E70000E940D14CE018E960E940D14ACA8BDA840
:100E8000F80186819781B50104960E94C614B601C7
:100E9000681B790B95014DE050E0D80116968D91B5
:100EA0009C911797EFC0B1E0EB16F10409F044C034
:100EB00028EF31E04AE150E060E070E00E94031466
:100EC000D8011496ED91FC911597E75AFF4F808158
:100ED0009181A281B381892B8A2B8B2B19F462EE2D
:100EE00071E002C06FED71E0CE0101960E946629AB
:100EF000BE016F5F7F4FCE01C4960E94D714CE0112
:100F000001960E940D14F8018681978161E0049694
:100F10000E94CD14ACA8BDA8D80116968D919C91C5
:100F20001797B50104960E94C614B601681B790B89
:100F300095014AE150E0A3C0F2E0EF16F10409F098
:100F400044C02BE032E047E250E060E070E00E94F5
:100F50000314D8011496ED91FC911597E755FF4FB6
:100F600080819181A281B381892B8A2B8B2B19F4EB
:100F700062EE71E002C06FED71E0CE0101960E9459
:100F80006629BE016F5F7F4FCE01C4960E94D714C1
:100F9000CE0101960E940D14F8018681978161E0CF
:100FA00004960E94CD14ACA8BDA8D80116968D91C8
:100FB0009C911797B50104960E94C614B601681B50
:100FC000790B950147E250E05AC0F3E0EF16F104C7
:100FD00009F05AC06EE172E004960E94C614B60190
:100FE000681B790B80E090E00E942D3420E030E017
:100FF00040E05FE30E948E3420E030E0A9010E94CF
:10100000B637D80116962D913C9117976EE172E094
:1010100087FD18C0C90104960E94C614B601681B5A
:10102000790B80E090E00E942D3420E030E040E039
:101030005FE30E948E3420E030E040E05FE30E94F6
:10104000FD3517C0C90104960E94C614B601681B7D
:10105000790B80E090E00E942D3420E030E040E009
:101060005FE30E948E3420E030E040E05FE30E94C6
:10107000FC350E941A372EE132E044E350E0F801DB
:10108000868197810E940314FFEFEF1AFF0A64CE56
:1010900004960E941D25811154CECE01C4960E9453
:1010A0000D14E9960FB6F894DEBF0FBECDBFDF91E9
:1010B000CF911F910F91FF90EF90DF90CF90BF9055
:1010C000AF9008952F923F924F925F926F927F92CE
:1010D0008F929F92AF92BF92CF92DF92EF92FF9248
:1010E0000F931F93CF93DF93CDB7DEB76F970FB6F4
:1010F000F894DEBF0FBECDBF7C01DC0114968D914C
:101100009C911597FC01EB55FF4F40815181628105
:101110007381452B462B472B09F4A1C016968D9160
:101120009C91179704960E944725F701A680B780E7
:101130004501F4E08F0E911C0BE210E02BE730E04C
:1011400045E150E065E070E0C4010E94DA0F8111D2
:101150000BC0D70116968D919C91179704960E940B
:101160001D258111E2CFE3C358E0252E51E0352E35
:1011700065E1C62ED12CF501E257FF4FFA8FE98FBA
:10118000950123573F4F3F8F2E8FA6014F5F5F4F33
:101190005D8F4C8F8A012BE730E0A60165E070E09F
:1011A000C4010E94DA0F882309F44EC0A98DBA8DBC
:1011B000BC91BB8F510135E0632E712C46E7442E64
:1011C000512C11E0F5018491812320E030E0F501FC
:1011D000811113C094919123D9F42F5F3F4FFFEFFA
:1011E0006F1A7F0A110F21F44FEFA41AB40A11E00D
:1011F00051E0451A510859F704C09491912369F7B9
:1012000002C0882329F0EB8DA98DBA8DEC930CC018
:10121000AE8DBF8D8C9181110FC081E0BB8DB1115E
:1012200080E0E98DFA8D8083B301621B730B00E0CF
:10123000A601C4010E94D8104114510409F0C2CF84
:10124000EB8DA98DBA8DEC93FFE02F0E311CCC8C69
:10125000DD8C2BE2C216D10409F097CF7ACFFC01C6
:10126000EF54FF4F21E020836AE072E0CE01439605
:101270000E946629D70114960D911C911597F801CB
:10128000E359FF4F80819181A281B381892B8A2B01
:101290008B2B89F0B49660817181828193810E9449
:1012A0001A37161617063CF4F801FD9680809180D7
:1012B000A280B38005C0F80181AC92ACA3ACB4AC01
:1012C00020E030E040EA51E4C501B4010E94283436
:1012D00087FD11C020E030E04CE553E4C501B401C6
:1012E0000E94B63718166CF4812C912C9CE5A92E1F
:1012F00093E4B92E06C0812C912C20EAA22E21E481
:10130000B22ED70116968D919C91179704960E9444
:10131000472580E8282E312CF7018681978168E0E7
:1013200074E004960E942315D70116968D919C9126
:10133000179761E004960E94CD1467E272E0CE0137
:1013400043960E940C290B891C89F701868197819D
:10135000B80104960E94C61464E370E0681B790B20
:1013600098014BE050E0D70116968D919C9117970C
:101370000E9403146CE272E0CE0143960E940C2995
:101380002B893C894BE050E06CE470E0F7018681EA
:1013900097810E940314D70116968D919C911797FF
:1013A00068E370E004960E944A2820E030E040EABA
:1013B00051E4C501B4010E94FC3520E030E040E07A
:1013C00052E40E948E3420E030E048E453E40E946E
:1013D0006E362B013C0120E030E0A9010E94B637B7
:1013E00020E030E040E05FE387FD05C0C301B201CB
:1013F0000E94FD3504C0C301B2010E94FC350E9469
:101400001A379B0142E250E0461B570BF7018681D9
:10141000978168E370E004960E941A28D701169617
:101420008D919C91179762E470E004960E944A287F
:10143000D7011496ED91FC911597EF5BFF4FC0809B
:10144000D1800281138120E030E040EA51E4B6010E
:10145000C8010E94283487FD0FC020E030E04CE531
:1014600053E4B601C8010E94B637181654F0BC2DDB
:10147000AD2DF02FE12F09C0B0E0A0E0F0EAE1E4EB
:1014800004C0B0E0A0E0FCE5E3E420E030E040EAA6
:1014900051E46B2F7A2F8F2F9E2F0E94FC3520E076
:1014A00030E040E052E40E948E3420E030E048E436
:1014B00053E40E946E3620E030E0A9010E94B63766
:1014C00020E030E040EA51E4B60187FD33C0C801B6
:1014D0000E94283487FD0FC020E030E04CE553E443
:1014E000B601C8010E94B63718164CF4C12CD12C95
:1014F0000CE513E404C0C12CD12C00EA11E420E077
:1015000030E040EA51E4B601C8010E94FC3520E019
:1015100030E040E052E40E948E3420E030E048E4C5
:1015200053E40E946E3620E030E040E05FE30E942A
:10153000FD3532C0C8010E94283487FD0FC020E06D
:1015400030E04CE553E4B601C8010E94B6371816E6
:101550004CF4C12CD12C0CE513E404C0C12CD12CCB
:1015600000EA11E420E030E040EA51E4B601C801AD
:101570000E94FC3520E030E040E052E40E948E34CE
:1015800020E030E048E453E40E946E3620E030E092
:1015900040E05FE30E94FC350E941A379B0142E263
:1015A00050E0461B570BF7018681978162E470E09B
:1015B00004960E941A28D70116968D919C91179730
:1015C00062E572E004960E942315C501B4010E94F1
:1015D0001A37CE0101960E942329BE016F5F7F4F0B
:1015E000CE0143960E94D714CE0101960E940D149D
:1015F0000B891C89F70186819781EAE3FDE0DC0114
:101600001796FC93EE931697B80104960E94151452
:10161000D7011696ED91FC9117972AE33DE03783A9
:10162000268364E370E0681B790B980142E250E086
:10163000CF0104960E94B213D7011496ED91FC914C
:101640001597EF5BFF4F60817181828193810E94CA
:101650001A37CE0101960E942329BE016F5F7F4F8A
:10166000CE0143960E94D714CE0101960E940D141C
:101670002B893C89F70186819781EAE3FDE0DC0153
:101680001796FC93EE93169742E250E06CE470E0FC
:1016900004960E94B213D70116968D919C911797CC
:1016A00068E074E004960E94231561E372E0CE01C5
:1016B00001960E946629BE016F5F7F4FCE0143965F
:1016C0000E94D714CE0101960E940D142B893C89EB
:1016D0004EE250E061E470E0F701868197810E945C
:1016E0000314D7011696CD90DC901797B4E0CB0E7B
:1016F000D11C0AE210E02FE330E045E250E06AE35B
:1017000070E0C6010E94DA0F811169C0D7011496FA
:10171000ED91FC91159765A976A987A990AD2CE369
:1017200030E040E050E00E946235AB01BC01CE01E8
:101730000D960E94FC15D7011496ED91FC9115971A
:1017400065A976A987A990AD2CE330E040E050E090
:101750000E946235BA01A901CE0101960E94FC15D2
:1017600018861F821A8619861C861B86BE016F5F2B
:101770007F4FCE0107960E944F2963E372E0CE01AE
:1017800007960E94D228BE01635F7F4F0E9410150A
:1017900065E372E00E94D228BC01CE0143960E940C
:1017A0004F29CE0107960E940D14CE0101960E948A
:1017B0000D14CE010D960E940D14D7011496ED91D3
:1017C000FC911597DF01A359BF4F8D919D910D900D
:1017D000BC91A02D892B8A2B8B2BF1F516C042E0F2
:1017E00050E060E070E0C6010E94AE2742E050E0A9
:1017F00061E070E0C6010E94AE2741E050E062E087
:1018000070E0C6010E94AE2781CF85A996A9A7A93D
:10181000B0AD892B8A2B8B2B39F467E372E0CE01B4
:1018200001960E9466290DC01A8219821C821B82B1
:101830001E821D82BE016D5E7F4FCE0101960E9409
:101840004F29BE016F5F7F4FCE0143960E94D71490
:10185000CE0101960E940D140B891C89F701868127
:101860009781B80104960E94C614B101681B790BD8
:1018700080E090E00E942D3420E030E040E05FE323
:101880000E948E3420E030E0A9010E94B637D701D3
:1018900016962D913C9117976B897C8987FD18C00E
:1018A000C90104960E94C614B101681B790B80E03F
:1018B00090E00E942D3420E030E040E05FE30E94A1
:1018C0008E3420E030E040E05FE30E94FD3517C039
:1018D000C90104960E94C614B101681B790B80E00F
:1018E00090E00E942D3420E030E040E05FE30E9471
:1018F0008E3420E030E040E05FE30E94FC350E943F
:101900001A3798014EE350E0F701868197810E94D3
:101910000314D70116968D919C91179704960E94F7
:101920001D258111F9CCCE0143960E940D146F96AE
:101930000FB6F894DEBF0FBECDBFDF91CF911F91E0
:101940000F91FF90EF90DF90CF90BF90AF909F905E
:101950008F907F906F905F904F903F902F90089561
:10196000DC011696ED91FC91179720E030E040E005
:1019700069E10994DC011696ED91FC91179720E03E
:1019800030E040E068E109949A01DC011696ED919F
:10199000FC911797462F67E10994462FDC011696B4
:1019A000ED91FC91179720E030E066E10994462F15
:1019B000DC011696ED91FC91179720E030E065E18F
:1019C0000994DC011896ED91FC91199720E030E024
:1019D00040E069E10994DC011896ED91FC911997BA
:1019E00020E030E040E068E10994FC016623D9F191
:1019F0006A30C9F1808D811124C06C3F20F085E0F0
:101A0000808F61701AC0683F20F084E0808F63701F
:101A100014C0603F20F083E0808F67700EC0603E8E
:101A200020F082E0808F6F7008C0603C20F081E081
:101A3000808F6F7102C070E01BC070E0738B628B8F
:101A400015C08150808F2289338996E0220F331F81
:101A50009A95E1F76F73A901462BBA01738B628BDC
:101A6000811104C005C06FEF7FEF02C06EEF7FEF02
:101A7000CB010895662329F06A3019F0862F90E093
:101A800008958FEF9FEF08950F93FC01E85BFF4FE0
:101A90000190F081E02DDF01A41BB50BAD01FC012D
:101AA000EA5BFF4F0190F081E02DDF01A61BB70B31
:101AB000BD01011105C041505109621B730B06C0E5
:101AC000013021F461507109421B530BFC01E05CB1
:101AD000FF4F0190F081E02D4E1B5F0BDC01D4968F
:101AE000ED91FC91D59709950F910895CF93DF93D0
:101AF000FC01A081B18182AD90E09C0153E0220FF6
:101B0000331F5A95E1F737AF26AF50962C91509777
:101B100048E0249F9001112435AF24AF43AD50E03D
:101B20009A0163E0220F331F6A95E1F7EF01C05C71
:101B3000DF4F3983288351966C915197EA01C80F82
:101B4000D91F70E06C177D0718F4CB01841B950B2F
:101B5000EF01CE5BDF4F39832883229643E0880F65
:101B6000991F4A95E1F7820F931F998388832296E4
:101B700054968D919C91559799838883E85BFF4F8C
:101B800056968D919C91579791838083DF91CF9149
:101B90000895AF92BF92CF92DF92EF92FF920F9390
:101BA000CF93DF93EC01DA017901942F9770E1E094
:101BB000F0E09F01092E01C0220F0A94EAF7522F8C
:101BC0006E018AE8C80ED11CF6018081823028F4AB
:101BD000422F813019F450E001C040E05D01F8EF80
:101BE000AF2228AD39ADA881B98150968C918A9DDC
:101BF000D0018B9DB00D11246A0F7B1FD901A60F58
:101C0000B71F01110FC0EA0EFB1E8C91842B852794
:101C10008D93AE15BF05C9F720C0440F550FE114D1
:101C2000F104D9F03C91342B35273C939F5F97709A
:101C300081E0E81AF1089111F0CF2CAD3DADA20F73
:101C4000B31FF6018081823020F4813021F051E011
:101C500002C051E0E4CF41E0E2CFDF91CF910F919C
:101C6000FF90EF90DF90CF90BF90AF90089580E00D
:101C700090E00895EF92FF920F931F93CF93DF931D
:101C80001F92CDB7DEB77C018B01D8016C91673113
:101C9000E1F078F46531A0F1F80141814983D70181
:101CA0001696ED91FC91179720E030E0C701099559
:101CB00024C06A31A8F06E3F19F5F80141814983CB
:101CC00069E2C7010E945F2E18C0F80181818983F3
:101CD000AE014F5F5F4F61E0C7010E94C40C0DC0B1
:101CE0000F5F1F4FD7011696ED91FC91179720E0DB
:101CF00030E040E0C7010995C8CF0E5F1F4FC5CF48
:101D00000F90DF91CF911F910F91FF90EF90089569
:101D1000EF92FF920F931F93CF93DF93EC01142F59
:101D200079016D30A9F118F46B3039F15FC06E3074
:101D300009F441C06F3009F059C00E94BA0CF70194
:101D400083810C89F8E08F9F000D112460E4CE019F
:101D50000E94D70C602F62956F706061CE010E9467
:101D6000D70C602F6F70CE010E94CD0CF7016481FB
:101D7000606BCE010E94CD0C29C0411103C061E20D
:101D800071E002C06CE171E0CE010E943A0E71C0B8
:101D9000411108C065E171E00E943A0EE881F981C5
:101DA000828907C06EE071E00E943A0EE881F981F5
:101DB00083898C8B5EC00E94BA0C61E8CE010E94C0
:101DC000D70C612FCE010E94CD0C0CC0F7014081D1
:101DD00051816281660F660F660FCE010E94C40CAE
:101DE0001150A1F7CE010E94B00C43C0693031F40C
:101DF0008BE591E09983888382E0DBCF6A30B9F587
:101E0000EA85FB8520E030E040E068E2CE010995FC
:101E1000EE81FF8120E030E040E064E1CE010995F1
:101E200041E06BE4CE010E945F2EE881F98144819C
:101E300069E2CE010E945F2E40E06BE4CE010E9479
:101E40005F2EE881F981448169E2CE010E945F2E14
:101E500041E06BE4CE010E945F2EE881F98145816B
:101E600069E2CE010E945F2E66E271E08DCF80E0D4
:101E700001C081E0DF91CF911F910F91FF90EF9012
:101E80000895CF93DF931F92CDB7DEB76983BE016C
:101E90006F5F7F4F0E9489280F90DF91CF91089547
:101EA000EF92FF921F93CF93DF93EC01162F7A01ED
:101EB0000E94EB0C60E4CE010E94410FE885F98599
:101EC0009701412F67E1CE010995CE01DF91CF91B6
:101ED0001F91FF90EF900C94E10CEF92FF921F93F3
:101EE000CF93DF93EC01142F7901663121F128F4AF
:101EF0006431E9F1653149F056C0683109F44FC0E9
:101F0000F0F0693109F444C04EC080913E0288234C
:101F100019F0CE010E94E10CCE010E94EB0C60E0B2
:101F2000CE010E94410F612FCE010E94410F81E03E
:101F300080933E0239C0642F0E94410F32C08091CD
:101F40003E02882319F0CE010E94E10CA70119314D
:101F500048F068E1CE010E94500F185188E1E80E68
:101F6000F11CF4CF612FCE010E94500F18C08E8952
:101F70008F3F11F488E78E8BE885F9859701412F13
:101F800064E1CE01DF91CF911F91FF90EF90099412
:101F900080913E02882319F0CE010E94E10C10923C
:101FA0003E0281E001C080E0DF91CF911F91FF9060
:101FB000EF9008950F931F93FC01E25BFF4F019098
:101FC000F081E02DDC01A05BBF4F0D90BC91A02DF6
:101FD0004A175B0738F4E017F10740F004171507BC
:101FE00028F016C0E017F107C8F312C0FC01E65B49
:101FF000FF4F408151813296808191816817790726
:1020000048F44217530750F081E02617370738F09D
:1020100080E005C042175307B8F3FACF81E01F9163
:102020000F9108952F923F924F925F926F927F92FD
:102030008F929F92AF92BF92CF92DF92EF92FF92D8
:102040000F931F93CF93DF93CDB7DEB728970FB6CB
:10205000F894DEBF0FBECDBF98878F83865B9F4FFE
:102060009A838983FC0111821082EF81F885EA5BF3
:10207000FF4F208031802F813885245B3F4F3C8388
:102080002B83F90131822082EF80F884FEE4EF0E89
:10209000F11CF70111821082EF81F885E85BFF4F98
:1020A00080819181EF81F885EC5BFF4F2081318148
:1020B0008217930730F0AC01421B530BF701518399
:1020C0004083EF81F885EE5BFF4F208131812C0149
:1020D000421A530A2F813885205B3F4F3E832D8360
:1020E000F90151824082EF81F885E85AFF4F608004
:1020F0007180EF81F885EC5AFF4FA080B180EF81AD
:10210000F885EA5AFF4FC080D180EF81F885EE5AFA
:10211000FF4F8080918083019501A601B4018F81DA
:1021200098850E94DA0F2F8138852C573F4F3887CA
:102130002F83811103C0F901108221C081E0EF815A
:10214000F88580838114910421F0E981FA819182DC
:102150008082A214B30420F4EB81FC81B182A082BE
:10216000F701808191818C159D0510F4D182C08288
:102170006414750420F4ED81FE81718260822896DA
:102180000FB6F894DEBF0FBECDBFDF91CF911F9188
:102190000F91FF90EF90DF90CF90BF90AF909F9006
:1021A0008F907F906F905F904F903F902F90089509
:1021B0000F93E02FDC01AC57BF4FFC91FF2309F4D4
:1021C0009EC02115310509F49AC02230310568F00E
:1021D000023029F46F5F7F4F621B730B06C0033020
:1021E00021F44F5F5F4F421B530B0E2F0170E0FD38
:1021F00041C0FC01E25BFF4F0190F081E02D4E17E2
:102200005F0708F47CC0FC01E05BFF4F0190F081A8
:10221000E02D4E175F0708F072C0FC01E45BFF4F32
:102220000190F081E02DDC01A65BBF4F0D90BC91C9
:10223000A02D260F371F2617370740F46E177F078C
:1022400020F49F012150310905C0BD016E177F07A1
:1022500008F055C0A217B30708F051C06A177B07F2
:1022600008F4BD012E173F0708F4F9019F01261B52
:10227000370B3CC0FC01E65BFF4F0190F081E02D85
:102280006E177F07E0F1FC01E45BFF4F0190F081E6
:10229000E02D6E177F0798F5FC01E05BFF4F019082
:1022A000F081E02DDC01A25BBF4F0D90BC91A02D11
:1022B000240F351F2417350740F44E175F0720F40D
:1022C0009F012150310904C0AD014E175F07B8F4DA
:1022D000A217B307A0F44A175B0708F4AD012E1745
:1022E0003F0708F4F9019F01241B350BFC01A6A947
:1022F000B7A914960D90BC91A02DFD0109950F91E1
:102300000895EF92FF920F931F93CF93DF93FC01F9
:10231000E65AFF4F20813181295E3F4F6F3F7105A3
:1023200009F018F56136710510F0B69606C06134F3
:10233000710538F0FC01E258FF4F80819181280F30
:10234000391FC9010196FC014491442309F43CC0A2
:10235000F901449150E06417750711F4019636C0F5
:10236000FC018491280F311DECCF8B01FC01EE574D
:10237000FF4FC081D181C20FD31F7E0160E0C70132
:102380000E94FE24C80FD91F62E0C7010E94FE24EC
:10239000F4E0EF0EF11C8017910780F3FE018491A9
:1023A00090E0982F88273196E4918E2B009761F06A
:1023B0000817190719F4CE01039608C0FE013296DA
:1023C000E491CE0FD11DEACF80E090E0DF91CF9174
:1023D0001F910F91FF90EF9008950F931F93CF934C
:1023E000DF938C01EC01C25ADF4F798368831A8630
:1023F000FC01EF58FF4F6081CE010E94C324888703
:10240000F801EE58FF4F6081CE010E94C3248987F6
:10241000F801E657FF4F90819C8781E0911180E0A1
:102420008D87DF91CF911F910F9108958F929F9289
:10243000AF92BF92CF92DF92EF92FF920F931F93D2
:10244000CF93DF93EC017B018A016901FC01E45920
:10245000FF4F80818130D9F078F0823019F18330DC
:1024600059F5FE01E45AFF4F0190F081E02DCE01B5
:102470000995E80EF91E20C0FE01E45AFF4F0190B5
:10248000F081E02DCE010995080F191F15C0FE013E
:10249000E45AFF4F0190F081E02DCE010995E81A32
:1024A000F90A0AC0FE01E45AFF4F0190F081E02DC5
:1024B000CE010995081B190BFE01E05AFF4FF1826E
:1024C000E082329611830083B601CE010E94811111
:1024D000009709F4C5C07E012EE5E20EF11CBC0197
:1024E000CE010E94ED11FE01E959FF4FB0803C96EC
:1024F0006081C7010E94F024882EFE01EC58FF4F36
:102500006081C7010E94F024082FFE01EB58FF4FA5
:102510006081C7010E94F024A82EF701908419144D
:102520000CF09AC016850B0D0195212F402F682DB8
:10253000828193810E9431246C01F701938382830D
:10254000212F402F682D848195810E944A24AC015F
:10255000F70195838483113011F1B0F0123081F1CD
:10256000133009F043C096012B0D311DB7FC3A958D
:1025700081E090E08919910997FC93958A010F5F9A
:102580001F4F480F591F34C09601290D311D97FC6C
:102590003A958C010B0D111DB7FC1A9529C081E0ED
:1025A00090E08B199109B7FC939596012F5F3F4FEF
:1025B0008A01090D111D97FC1A95C80ED91E18C065
:1025C00081E090E0BC016919710997FC739596014F
:1025D0002F5F3F4F8B199109B7FC93958A010F5FCD
:1025E0001F4F480F591FC60ED71E02C08C019601FF
:1025F000B601CE010E94DA0F882371F1F70116822D
:1026000017828E0101591F4F6E01F0E7CF0ED11CCA
:10261000F8016081C7010E94C324882EF601608101
:10262000C7010E94C324982E40E0682DCE010E946D
:10263000632441E0692DCE010E94632461E0C7015B
:102640000E94C3248111F0CFF70187818B1504F319
:10265000C657DF4F848588838A2DAA0C990B02C048
:1026600080E090E0DF91CF911F910F91FF90EF906C
:10267000DF90CF90BF90AF909F908F9008950F9371
:10268000FC01E25BFF4F2081318142175307B8F014
:102690003296208131814217530788F43697208182
:1026A00031816217730758F03296208131816217A9
:1026B000730728F400E021E030E00E94D8100F9169
:1026C00008958F929F92AF92BF92EF92FF920F93D5
:1026D0001F93CF93DF938B017C01C0E0D0E0C01744
:1026E000D107A1F10E94162C609347027093480213
:1026F0008093490290934A028FE392E00E94EA2677
:1027000097FF1FC00E94162C8090470290904802AD
:10271000A0904902B0904A02DC01CB0188199909C6
:10272000AA09BB098090430290904402A090450200
:10273000B090460288159905AA05BB05E8F28E01FE
:1027400005C0F70181937F012196C9CFC801DF91B0
:10275000CF911F910F91FF90EF90BF90AF909F90FE
:102760008F9008958F929F92AF92BF92CF92DF92F7
:10277000EF92FF920F931F93CF93DF93EC018B01A6
:102780007A01188E6901A12CB12C4C012CE6820E25
:10279000911CF60161916F01EA81FB81CE010995DF
:1027A0008F3FFFEF9F0709F18E3F2FEF920789F3CD
:1027B0009C01A701B801CE010E941612F4012081EC
:1027C000213059F038F0223059F0233059F4E81A0A
:1027D000F90A08C0080F191F05C0E80EF91E02C04B
:1027E000081B190BA80EB91ED4CFC501DF91CF91DC
:1027F0001F910F91FF90EF90DF90CF90BF90AF901F
:102800009F908F900895E5EFFCE0DC011796FC9314
:10281000EE93169704960C94B213FC01808191817B
:10282000009711F00C94C13908953F924F925F9236
:102830006F927F928F929F92AF92BF92CF92DF92D0
:10284000EF92FF920F931F93CF93DF9300D000D0AE
:1028500000D0CDB7DEB79E838D833C0126E6620EA5
:10286000711CD3011C92FC01108E6B0120EC322EE6
:10287000E12CF12C00E010E04C01F8E88F0E911CE7
:102880005C012EE5A20EB11C8D589F4F9A8389835F
:10289000AD81BE81AC58BF4FBC83AB834D805E80A1
:1028A000B5E74B0E511CF60161916F01AD81BE8100
:1028B0001296ED91FC911397CD0109958F3FBFEFD3
:1028C0009B0781F18E3FEFEF9E0769F3BC018D817D
:1028D0009E810E9481110097C9F0BC018D819E816B
:1028E0000E94ED11A981BA816C91C5010E94F0246A
:1028F000F4018083AB81BC816C91C5010E94F024FE
:10290000F2016081C5010E94F02401C080E0E82E40
:10291000880FFF08F0EC3F1202C0D4013C900E0D6E
:102920001F1DC1CFF30180818823B9F02D813E8125
:1029300028573F4FD9012C91082E000C990B820F7C
:10294000911D27FD9A95080F191F0E191F091314C1
:1029500024F4030D111D37FC1A95C80126960FB6F5
:10296000F894DEBF0FBECDBFDF91CF911F910F91C5
:10297000FF90EF90DF90CF90BF90AF909F908F909F
:102980007F906F905F904F903F90089525EF3CE0CF
:10299000FC01338322830C941514FC01E657FF4F8E
:1029A000633010F46083089581E0808308950F936D
:1029B0001F93CF93DF938C01EB01FC018081918108
:1029C0000097B1F0688179816115710579F04281D4
:1029D00053812C813D814217530740F00E94253BD3
:1029E0008C819D81F8019583848313C00E94C13935
:1029F00088819981F801918380838A819B81938367
:102A000082838C819D8195838483198218821B82A5
:102A10001A821D821C82DF91CF911F910F91089520
:102A2000CF93DF93EC01FB0144815581608171817B
:102A30000E949228811103C0CE010E94C028CE01BD
:102A4000DF91CF910895CF92DF92EF92FF920F9393
:102A50001F93CF93DF936C012AE5C20ED11CD601E0
:102A60002D913C9111972617370709F4BCC0EB0153
:102A70007C016D937C93FB018491870103591F4F67
:102A8000D8018C933196E4911196EC931197FB0148
:102A90003296E4911296EC931297FB013396E491EF
:102AA0001396EC931397FB013496E4911496EC93F0
:102AB0001497FB013596E4911596EC931597FB015D
:102AC0003696E4911696EC931697FB013796E491AF
:102AD0001796EC931797FB013896E4911896EC93B0
:102AE0001897FB013996E4911996EC931997FB011D
:102AF0003A96E4911A96EC931A97FB013B96E4916F
:102B00001B96EC931B97FB013C96E4911C96EC936F
:102B10001C97FB013D96E4911D96EC931D97FB01DC
:102B20003E96E4911E96EC931E97FB013F96E4912E
:102B30001F96EC931F97FB017096E4915096EC93CF
:102B400061E1CE010E94FE24F801928B818B63E14A
:102B5000CE010E94FE24D80154969C938E935397E5
:102B600065E1CE010E94FE24F801968B858BD6018B
:102B70008D919C911197892BB1F13D968081E70150
:102B8000CA57DF4F8883319640819D964C933A9681
:102B90009081992341F1913069F439979081891797
:102BA0000CF49883F701E358FF4F80818417DCF41D
:102BB0008C9319C0F701E958FF4F3081329620817C
:102BC000082E000C990B622F022E000C770B630F5E
:102BD000711D37FD7A958617970714F4320F3883E5
:102BE00024170CF42C93DF91CF911F910F91FF903C
:102BF000EF90DF90CF9008950F931F93CF93DF93C3
:102C0000CDB7DEB7A2970FB6F894DEBF0FBECDBF2B
:102C10008C01CB01BA01F801118210821382128259
:102C2000158214822AE0AE014F5F5F4F0E94CD33C0
:102C3000BE016F5F7F4FC8010E940C29A2960FB69C
:102C4000F894DEBF0FBECDBFDF91CF911F910F91E2
:102C50000895CF92DF92EF92FF920F931F93CF933D
:102C6000DF936C01EB017B01E40EF51E00E010E048
:102C7000CE15DF0561F06991D601ED91FC910190CF
:102C8000F081E02DC6010995080F191FF1CFC80189
:102C9000DF91CF911F910F91FF90EF90DF90CF9038
:102CA000089580E090E00895CF93DF9382E00E9442
:102CB000E92AEC0183E00E94E92ACC0FDD1F8C2B6E
:102CC0009D2B2091EC023091ED02220F331F220F39
:102CD000331F282B392B2D30310549F02430310595
:102CE00031F02230310519F02B303105A1F440913B
:102CF000E8025091E9026091EA027091EB024F5FA5
:102D00005F4F6F4F7F4F4093E8025093E90260930B
:102D1000EA027093EB022E30310549F0A9014750C9
:102D200051094230510518F021303105A1F440918C
:102D3000E8025091E9026091EA027091EB02415081
:102D40005109610971094093E8025093E9026093C7
:102D5000EA027093EB029093ED028093EC02DF9114
:102D6000CF9108952F923F924F925F926F927F92F0
:102D70008F929F92AF92BF92CF92DF92EF92FF928B
:102D80000F931F93CF93DF9300D000D000D0CDB727
:102D9000DEB79E838D831C012BE5220E311CD101F1
:102DA000ED91FC91EE54FF4F8081811110C08FE3B3
:102DB00092E00E94D329181619064CF4F101808183
:102DC000918161E070E08E549F4F0E946113D101A8
:102DD0000D911C91F801EE54FF4F80818031F9F480
:102DE0000E94162CF801E756FF4F6083718382839F
:102DF000938300E010E00C37110509F4E6C1F101FE
:102E0000608171816B5C7F4F600F711F44E050E007
:102E10008FE392E00E94B1260C5F1F4FECCF81310F
:102E200009F035C160E570E08D819E810B960E94AE
:102E30006113ED81FE81E95AFF4F80819181A2816A
:102E4000B3818C339D42AE41BF4009F0BEC1D10178
:102E50000D911C91F801EF5BFF4FAD81BE811B9678
:102E60002D913D914D915C911E9760817181828180
:102E700093810E942834882379F00E94162C0F55E4
:102E80001F4F28EE33E040E050E00E94CB35F801C0
:102E90002083318342835383D1010D911C9198018A
:102EA0002F5B3F4FED81FE8183859485A585B68597
:102EB000F90180839183A283B383205D3F4FED812D
:102EC000FE8187859089A189B289F90180839183E8
:102ED000A283B383F496AD81BE81A15BBF4F8D9178
:102EE0009D910D90BC91A02D80839183A283B3838B
:102EF000ED81FE8183899489A589B689F801EB5615
:102F0000FF4F80839183A283B38328513109ED81E0
:102F1000FE8147A950AD61AD72ADF9014083518387
:102F2000628373837801FDE9EF0EF11C2D813E81F0
:102F3000255B3F4FF9014081518162817381F70127
:102F400040835183628373837801F9EAEF0EF11CA9
:102F50002D813E812D5A3F4FF9014081518162817F
:102F60007381F7014083518362837383892B8A2B9A
:102F70008B2B99F47801F1E9EF0EF11CAD81BE8144
:102F800057966D917D918D919C915A970E942D3409
:102F9000F70160837183828393839801275B3F4F9E
:102FA000ED81FE81838D948DA58DB68DF901808391
:102FB0009183A283B3832C5F3F4FED81FE81878D88
:102FC00090A1A1A1B2A1F90180839183A283B383CF
:102FD0002C5F3F4FED81FE8183A194A1A5A1B6A1F5
:102FE000F90180839183A283B3832C5F3F4FED81EE
:102FF000FE8187A190A5A1A5B2A5F9018083918347
:10300000A283B383205E3F4FED81FE8183A594A50B
:10301000A5A5B6A5F90180839183A283B3832C5F14
:103020003F4FED81FE8187A590A9A1A9B2A9F90121
:1030300080839183A283B3832C5F3F4FED81FE8118
:1030400083A994A9A5A9B6A9F90180839183A28334
:10305000B38328513109ED81FE8183AD94ADA5ADD7
:10306000B6ADF90180839183A283B3833496AD8199
:10307000BE81DF968D919D910D90BC91A02D808396
:103080009183A283B383E85BFF4F81E00FC080325E
:1030900079F4F801E359FF4F81E090E0A0E0B0E05F
:1030A00080839183A283B383EC5BFF4F80838DC0C9
:1030B000813221F4C8010E94F22587C0803309F0D3
:1030C0007FC0F801E75BFF4F80E09CE5A1E6B2EC32
:1030D00080839183A283B383349680E096E4A0E852
:1030E000B0E480839183A283B38334968EEB97E61A
:1030F000A4EABCEB80839183A283B383349680E2FD
:1031000090EFA0E4B8E380839183A283B3837497A4
:1031100080E090E0A4E3B3E480839183A283B3834F
:10312000F4968AE097EDA3E2BDE380839183A283C6
:10313000B383349687E197EBA1EDB8E38083918365
:10314000A283B38334968FE892ECA5E7BDE3808336
:103150009183A283B383B49781E090E0A0E0B0E0D4
:1031600080839183A283B3833C964AE057ED63E268
:103170007CE3408351836283738334964AE959E93F
:1031800069E97DEB4083518362837383F496808386
:103190009183A283B383BC974FEF50E060E070E06F
:1031A0004083518362837383F89680839183A283E3
:1031B000B383C8010E945925C8010E942C2605C06E
:1031C000813319F4C8010E945925D101ED91FC9178
:1031D0001197EE54FF4F10820D911C91F801FD964E
:1031E00080809180A280B380C501B4010E941A370B
:1031F0007B01CD80DE80B1E6CB0ED11CF601608173
:103200007181828193810E941A37E616F70659F080
:10321000D6018D929D92AD92BC92139781E0F801F8
:10322000EF54FF4F8083F801E359FF4F40815181F4
:103230006281738181E0411551056105710509F4D1
:1032400080E0ED80FE80B7E7EB0EF11CF701908186
:103250000D811E81035A1F4F9817E1F08083452B83
:10326000462B472B09F440C00E94162CED81FE81AD
:10327000E858FF4F6083718382839383D101ED917E
:10328000FC9115AA16AA17AA10AEF8011082118295
:1032900012821382D7018C91882331F10E94162C5F
:1032A000ED81FE81E858FF4FC080D180E280F3803D
:1032B0006C197D098E099F09ED81FE81E458FF4F4D
:1032C0006083718382839383F101E080F18028EE33
:1032D00033E040E050E00E94CB35D701D5962D93E6
:1032E0003D934D935C93D897F10120813181F90191
:1032F00085A996A9A7A9B0ADF80140815181628145
:10330000738184179507A607B70749F080839183D7
:10331000A283B383F901EF54FF4F81E080830D81D5
:103320001E8103591F4FED80FE80FFE6EF0EF11C5A
:10333000D7018D919C91F80191838083ED81FE816D
:10334000E559FF4F80810E94E92A21E030E0009793
:1033500011F020E030E0D7012D933C93F80120815B
:1033600031812130310591F5892B81F1D101ED9128
:10337000FC91E954FF4F8081811111C00D811E81A4
:1033800007591F4FF80180819181DC01ED91FC917B
:103390000480F581E02D0995F80191838083D101A6
:1033A0000D911C91F801EF54FF4F81E080830E9442
:1033B000162CF801ED54FF4F608371838283938351
:1033C000D101ED91FC91E954FF4F10820D811E81D6
:1033D0000D581F4FED80FE80B5E7EB0EF11CF70195
:1033E00080819181D8018D939C93ED81FE81EF586E
:1033F000FF4F80810E94E92A21E030E0009711F020
:1034000020E030E0F70131832083D8012D913C91F9
:103410002130310591F5892B81F1D101ED91FC919C
:10342000E954FF4F8081811111C00D811E81075920
:103430001F4FF80180819181DC01ED91FC910680A4
:10344000F781E02D0995F80191838083D1010D91D9
:103450001C91F801EF54FF4F81E080830E94162CED
:10346000F801ED54FF4F6083718382839383D10110
:10347000ED91FC91E954FF4F10824091E802509188
:10348000E9026091EA027091EB020D811E810B59F5
:103490001F4FF80180819181A281B3810396A11D04
:1034A000B11D84179507A607B70794F5D101ED91D3
:1034B000FC91E954FF4F8081811113C0F8014083D2
:1034C000518362837383ED81FE81E759FF4F8081D1
:1034D0009181DC01ED91FC910280F381E02D61E0AE
:1034E0000995F101E080F180F701EF54FF4F81E091
:1034F00080830E94162CF701ED54FF4F6083718387
:1035000082839383D101ED91FC91E954FF4F1082A6
:103510004091E8025091E9026091EA027091EB0259
:10352000F80180819181A281B3810397A109B1093A
:10353000481759076A077B0794F5D101ED91FC9173
:10354000E954FF4F8081811113C0F80140835183FA
:1035500062837383ED81FE81E759FF4F8081918102
:10356000DC01ED91FC910280F381E02D60E0099592
:10357000F10100811181F801EF54FF4F81E0808358
:103580000E94162CF801ED54FF4F608371838283F3
:103590009383D101ED91FC91E954FF4F10820E9479
:1035A000162C613D77408105910540F00E94162C54
:1035B000643378408105910508F46DC10E94162C92
:1035C000F101A081B181FD01ED54FF4F0081118116
:1035D00022813381AB01BC01401B510B620B730B89
:1035E00041365A4E6105710550F4D1018D919C917F
:1035F000FC01EF54FF4F2081211133C15AC1FD015D
:10360000E755FF4F4081518162817381452B462BE5
:10361000472B59F3FC974081518162817381452B7F
:10362000462B472B11F7FD01E954FF4F21E0208382
:10363000ED81FE81E759FF4F208131813A83298353
:10364000D90116968D919C91179704960E94472553
:10365000E981FA8184819581FC01E854FF4F2FEFC5
:1036600038E949E150E4208331834283538334961F
:1036700080E090E0A8E9B0E480839183A283B383E3
:10368000A0E5B0E0BC83AB83E981FA8184819581B8
:10369000FC01E454FF4FC080D180E280F380349776
:1036A00080809180A280B380C501B4010E946936F8
:1036B0009B01AC01C701B6010E948E342B013C0175
:1036C00020E030E0A9010E94B63720E030E040E081
:1036D0005FE387FD05C0C301B2010E94FD3504C050
:1036E000C301B2010E94FC350E941A378B01005CB5
:1036F0001F4FC501B4010E94D1389B01AC01C70125
:10370000B6010E948E346B017C0120E030E0A901FB
:103710000E94B63720E030E040E05FE387FD05C05F
:10372000C701B6010E94FD3504C0C701B6010E9461
:10373000FC350E941A37AB01405E5F4F003811051F
:1037400068F44034510550F4A981BA8116968D91E0
:103750009C911797B80104960E943F13E981FA8162
:10376000648075802301F0EC4F0E511CD2018D90C6
:103770009D90AD90BC90830108541F4F2FEF38E906
:1037800049E150E4C501B4010E94FD35F8012081F2
:103790003181428153810E94FD356B017C012BED0B
:1037A0003FE049EC50E40E94B63718163CF0D801CF
:1037B000CD92DD92ED92FC9213970DC02BED3FE080
:1037C00049EC50E4C701B6010E94FC35F801608362
:1037D000718382839383FCEB6F0E711C20E030E0D9
:1037E00040E45FE3D3016D917D918D919C910E94A6
:1037F000FD35F30160837183828393832B813C8148
:10380000215031093C832B83232B09F03DCF28E93C
:1038100034EC43E858E3C501B4010E94FD356B0167
:103820007C012BED3FE049EC50E40E94B63787FF66
:1038300007C0D201CD92DD92ED92FC92139705C0A4
:10384000F2011082118212821382A981BA81169626
:103850008D919C91179704960E941D258111F8CE99
:10386000C4CEFC01E954FF4F8081811122C0ED815B
:10387000FE81E759FF4F80819181DC01ED91FC9140
:103880000190F081E02D0995D101ED91FC91EF546B
:10389000FF4F10820EC0F10180819181FC01EB5538
:1038A000FF4F10821182128213823C9621E0208306
:1038B00085CE26960FB6F894DEBF0FBECDBFDF9142
:1038C000CF911F910F91FF90EF90DF90CF90BF901D
:1038D000AF909F908F907F906F905F904F903F90B0
:1038E0002F9008952F923F924F925F926F927F9206
:1038F0008F929F92AF92BF92CF92DF92EF92FF9200
:103900000F931F93CF93DF9300D000D0CDB7DEB7D6
:103910001C01DC011D960D90BC91A02DBC83AB83D6
:10392000FD01EB56FF4F80819181A281B3810B8114
:103930001C810F561F4F892B8A2B8B2B59F4F801B2
:1039400060817181828193810E941A37D1011B9617
:103950008C9102C1EB81FC81E359FF4F8081918101
:10396000A281B381892B8A2B8B2B09F4EBC0EB81CD
:10397000FC81FD962081318142815381EB81FC8164
:10398000EF5BFF4F60817181828193810E94FC35E2
:103990006B017C01F10163817481858196810E94B4
:1039A0002D349B01AC01C701B6010E948E346B011E
:1039B0007C01EB81FC81EB58FF4F208131814281FA
:1039C00053810E948E342B013C01EB81FC81EF5727
:1039D000FF4F6083718382839383EB81FC81E7587F
:1039E000FF4F2081318142815381C701B6010E947E
:1039F0008E342B813C812B573F4F3A832983D90149
:103A00002D913D914D915C910E94FD354B015C01E2
:103A100020E030E0A9010E942834E981FA8187FF83
:103A20008CC01082118212821382EB81FC81E357D9
:103A3000FF4F2081318142815381C701B6010E942D
:103A4000FC35EB81FC81E358FF4F208131814281BD
:103A500053810E948E344B015C012B813C8127579E
:103A60003F4FD9016D937D938D939C931397E9817B
:103A7000FA812081318142815381C301B2010E94C8
:103A8000FD35A50194010E94FD354B015C0120E04C
:103A900030E0A9010E94283487FD07C0D8018D922B
:103AA0009D92AD92BC92139705C0F80110821182CD
:103AB0001282138220E030E04FE753E4D8016D9189
:103AC0007D918D919C910E94B63718164CF480E040
:103AD00090E0AFE7B3E4F80180839183A283B383DE
:103AE000D8016D917D918D919C910E941A37F101C1
:103AF00083850E947D2BD1011D96ED91FC911E972F
:103B0000E357FF4FC082D182E282F3820F900F9081
:103B10000F900F90DF91CF911F910F91FF90EF9039
:103B2000DF90CF90BF90AF909F908F907F906F90DD
:103B30005F904F903F902F90089580829182A28253
:103B4000B38273CFD8011D921D921D921C921397C0
:103B500060E070E0F10183850F900F900F900F905F
:103B6000DF91CF911F910F91FF90EF90DF90CF9059
:103B7000BF90AF909F908F907F906F905F904F908D
:103B80003F902F900C947D2BFC0125853685D90123
:103B9000A359BF4F8D919D910D90BC91A02D892B64
:103BA0008A2B8B2B31F0D901AF58BF4F6D917C918F
:103BB00002C060E070E083850C947D2BCF92DF9291
:103BC000EF92FF920F931F93CF93DF93EC016C0161
:103BD00024E0C20ED11CFC01E057FF4F0190F081A0
:103BE000E02DC60109958E3F4FEF940770F58E01C9
:103BF0000C561F4FF801408151817E01F2E9EF0E12
:103C0000F11CF701608171819C01C6010E941612AE
:103C1000C059DF4F2881213049F030F0223061F067
:103C2000233099F4F80109C0F70101C0F80120819F
:103C30003181820F931F07C0F70120813181A901D3
:103C4000481B590BCA019183808381E090E0DF918A
:103C5000CF911F910F91FF90EF90DF90CF9008953B
:103C60002F923F924F925F926F927F928F929F928C
:103C7000AF92BF92CF92DF92EF92FF920F931F937A
:103C8000CF93DF93CDB7DEB768970FB6F894DEBF5A
:103C90000FBECDBF988F8F8BDC019B96ED90FC9073
:103CA0009C97D9960D911C91DA97F801FD96808129
:103CB0009181A281B38189879A87AB87BC8767018D
:103CC000CC0CDD1CCC0CDD1CAF89B88DCA0EDB1E04
:103CD00020E030E048EC53E469857A858B859C854B
:103CE0000E946E36F6016387748785879687F80190
:103CF000EF56FF4F20E030E04FE753E460817181E1
:103D0000828193810E946E36D6015B966D937D937E
:103D10008D939C935E97C7010196E4E0F0E0BF01AC
:103D20000E94FB389C01AF89B88D9C969C938E9322
:103D30009B971C01220C331C220C331C2A0E3B1EA9
:103D4000D1011B96CD90DD90ED90FC901E970196D1
:103D5000BF010E94FB38880F991F880F991F4F8958
:103D6000588D480F591F5E874D87DA011B968D903D
:103D70009D90AD90BC901E97C9010296BF010E9414
:103D8000FB38880F991F880F991FEF89F88DE80F6E
:103D9000F91FF88BEF8783859485A585B685898380
:103DA0009A83AB83BC832D5F3F4F23703327220F51
:103DB000331F220F331FEF89F88DE20FF31FFA8BA9
:103DC000E98B83859485A585B6858D839E83AF8396
:103DD000B88720E030E0A901C701B6010E948E3407
:103DE0002B013C0120E030E040E85EE3C501B40176
:103DF0000E948E349B01AC01C301B2010E94FD35CB
:103E00002B013C0120E030E040E05FE369817A81F2
:103E10008B819C810E948E349B01AC01C301B20155
:103E20000E94FD352B013C0120E030E040E45FE3DF
:103E30006D817E818F8198850E948E349B01AC01BB
:103E4000C301B2010E94FD3520E030E040EC5FE3A9
:103E50000E946E362B013C01A5019401C701B601F9
:103E60000E94FD3529813A814B815C810E94FD359C
:103E70002D813E814F8158850E94FD3520E030E044
:103E800040E85EE30E948E349B01AC01C301B201A5
:103E90000E94FC3524E535E545E55EE30E946E367B
:103EA0006B8B7C8B8D8B9E8BF801E35AFF4F60836D
:103EB000718382839383F101838C948CA58CB68C5F
:103EC000AD85BE855B964D905D906D907C905E97C4
:103ED000AF85B8895B96CD90DD90ED90FC905E97B4
:103EE000C982DA82EB82FC82A989BA895B96CD907D
:103EF000DD90ED90FC905E97CD82DE82EF82F886B9
:103F0000A3019201C501B4010E94FD3529813A81C6
:103F10004B815C810E94FD35A70196010E94FD3511
:103F20006B017C01EF89F88D65A776A787A790AB19
:103F300020E030E0A901C501B4010E948E344B019C
:103F40005C0120E030E040E85EE3C301B2010E9482
:103F50008E349B01AC01C501B4010E94FD354B01BB
:103F60005C0120E030E040E05FE369817A818B8191
:103F70009C810E948E349B01AC01C501B4010E945A
:103F8000FD354B015C0120E030E040E45FE36D81F2
:103F90007E818F8198850E948E349B01AC01C50182
:103FA000B4010E94FD35AF89B88DD1966D937D9394
:103FB0008D939C93D49720E030E040EC5FE30E9427
:103FC0006E364B015C0120E030E040E85EE3C70163
:103FD000B6010E948E349B01AC01C501B4010E9460
:103FE000FC3524E535E545E55EE30E946E364B0180
:103FF0005C01F801EF59FF4F6083718382839383E3
:10400000F80145A856A867A870ACAF89B88DD596B9
:10401000CD90DD90ED90FC90D897F7FAF094F7F8FA
:10402000F094C301B2010E942F3420E030E040E25E
:1040300052E40E94FC359B01AC01C701B6010E940D
:104040008E3420E030E040E252E40E946E360E945E
:10405000E8366B017C01F801E75AFF4F80819181BE
:10406000A281B381892B8A2B8B2B09F491C0B9E2F1
:104070004B165104610471040CF48AC0FC968081D3
:104080009181A281B381892B8A2B8B2B09F480C06B
:10409000E455F109208131814281538169857A8516
:1040A0008B859C850E94B63718160CF071C0F801FC
:1040B000EB59FF4F2081318142815381C701B60105
:1040C0000E948E349B01AC016B897C898D899E890D
:1040D0000E94B63718160CF05BC0F801E759FF4F85
:1040E0002081318142815381C701B6010E948E3403
:1040F0009B01AC01C501B4010E94283487FF48C070
:104100000E94162CEF89F88D01AD12AD28EE33E038
:1041100040E050E00E94CB35F801EF55FF4F808121
:104120009181A281B38169017A01C81AD90AEA0A88
:10413000FB0AD701C6010B97A105B10548F10E9402
:10414000162CF801ED54FF4F6083718382839383B3
:10415000AF89B88DD9968D919C91DA9768960FB6F4
:10416000F894DEBF0FBECDBFDF91CF911F910F91AD
:10417000FF90EF90DF90CF90BF90AF909F908F9087
:104180007F906F905F904F903F902F900C94F2250E
:1041900068960FB6F894DEBF0FBECDBFDF91CF910A
:1041A0001F910F91FF90EF90DF90CF90BF90AF9055
:1041B0009F908F907F906F905F904F903F902F9047
:1041C0000895AF92BF92CF92DF92EF92FF920F933A
:1041D0001F93CF93DF9300D000D01F92CDB7DEB7EF
:1041E0008C01DC01DA96AC90DA97DB96EC90DB97E9
:1041F000ED91FC91B188FE2CC12CD12CD801ED9110
:10420000FC9111978089D8964D915C91D9971C8229
:10421000FD828B83B8E08B9FC00111248C9D90019F
:104220008D9D300D9C9D300D1124CA01820F931F6E
:104230009A838983D8011496ED91FC9115979E017C
:104240002F5F3F4F41E06FE0C8010995F3948F2D38
:104250008E198A1528F4BFEFCB1ADB0AFB1470F213
:104260000F900F900F900F900F90DF91CF911F91B3
:104270000F91FF90EF90DF90CF90BF90AF90089597
:10428000FC01A081B18150969C9142AD949FA00108
:10429000112483E0440F551F8A95E1F760E070E038
:1042A00080AD91AD0C941E3BCF92DF92EF92FF92C6
:1042B0000F931F93CF93DF93EC01962F683109F48E
:1042C00042C0B901993158F4943179F0973109F02D
:1042D00026C150E08CED92E00E94692A32C09931EB
:1042E00009F454C0903269F11AC18C859D85AE8560
:1042F000BF85892B8A2B8B2B71F4E881F981A585E9
:10430000B0E020EA36E841E050E00E9481356C8759
:104310007D878E879F8710927F0610927E0610926F
:104320008106109280060E94BA2C8BE39AE2909349
:104330008806809387068CE39AE290938A0680939E
:10434000890681E0EDC02C853D854E855F8560E066
:1043500074E284EF90E00E94CB35DA01C901409706
:10436000A109B109B695A795979587958093B8004F
:104370008E8990E09595879591E090937D06809346
:1043800052061092810610928006DBCFD0918006F3
:10439000D13208F0BDC0C09152060E94F12B6B01D2
:1043A0007C0180918C06882311F180918306909185
:1043B0008406A0918506B0918606892B8A2B8B2BCB
:1043C00081F30E94F12B00918306109184062091C5
:1043D000850630918606DC01CB018C199D09AE095A
:1043E000BF09081719072A073B07D8F682C082E0E1
:1043F00080938C0681E080938E068FEF80938B06EE
:104400001092B006D093AF06ADE5B6E0EFE8F6E067
:1044100080E0D81721F09D9191938F5FFACF109291
:10442000B1069091B1068C2F880F892B8093B1062D
:1044300080918D06813089F510928D060E94F12BB6
:104440006B017C018091B1068093BB008091830653
:1044500090918406A0918506B0918606892B8A2BBF
:104460008B2BA9F00E94F12B0091830610918406FA
:104470002091850630918606DC01CB018C199D09BF
:10448000AE09BF09081719072A073B0790F1809169
:10449000BC0083FDD7CF85EC01C085EE8093BC00C6
:1044A0000E94F12B6B017C0180918C06823031F5EA
:1044B0008091830690918406A0918506B09186062E
:1044C000892B8A2B8B2B81F30E94F12B0091830681
:1044D000109184062091850630918606DC01CB017F
:1044E0008C199D09AE09BF09081719072A073B0750
:1044F000D8F6809182060E94D82C0AC080918B0643
:104500008F3F31F080918B06803211F080918B06C5
:10451000109281061092800610927D0612CF80E0E4
:10452000DF91CF911F910F91FF90EF90DF90CF908F
:1045300008958F929F92AF92BF92CF92DF92EF92A7
:10454000FF92CF93DF93EC016C3288F46A3208F06B
:1045500089C06832B9F0693209F06DC0C42ED12C1F
:10456000E12CF12C0E94F12B4B015C013DC06D321E
:1045700009F440C008F45FC084EB860F823008F471
:1045800048C059C07C012EE1E20EF11CD0E0F701D9
:1045900081917F018F3F39F0D03110F461E001C08B
:1045A00062E00E94412BDF5FD63189F75BC00E9439
:1045B000F12BDC01CB0188199909AA09BB09883EB6
:1045C0009340A105B10580F0F1E0CF1AD108E108D0
:1045D000F10828EE820E23E0921EA11CB11CC1142A
:1045E000D104E104F10419F7C114D104E104F10488
:1045F000F1F638C0433018F082E090E002C085E068
:1046000090E0880F991F880F991F05970197F1F780
:1046100029C0862F8F73C80FD11D411107C061E0DB
:104620008E8D0E94412B60E08E8D12C062E08E8DD7
:104630000E94412B17C06034B8F0962F9F73FE0183
:10464000E90FF11D868D8F3F69F0903120F4642FC2
:104650000E94122B07C00E94E92A21E0892B09F44D
:1046600020E0298F81E001C080E0DF91CF91FF90B1
:10467000EF90DF90CF90BF90AF909F908F90089574
:104680002F923F924F925F926F927F928F929F9262
:10469000AF92BF92CF92DF92EF92FF920F931F9350
:1046A000CF93DF93EC010D891E890530110509F0C8
:1046B000B8C01E8A1D8AFC013B96459660E070E0FA
:1046C00021913191620F731F8E179F07C9F70F88D1
:1046D000D88DC02D072E000C880B990B0E942F340B
:1046E00020E030E040EA50E40E946E369B01AC01CD
:1046F000FE01EB5BFF4F608371838283938360E0F5
:1047000070EC8FE794E40E946E3620E030E040E8E1
:104710005FE30E94FC359B01AC0160E070E583EC37
:1047200097E40E946E3620E030E543EC57E40E94A7
:104730006E360E94053820E030EE46E755E40E94D0
:104740006E362FE03FEC4BE55BE30E94FD359B01AD
:10475000AC0160E070E080E89FE30E946E3623E3E6
:1047600033E948E853E40E94FC3520E030E040E0C3
:1047700050E40E94FC356B017C0169AF7AAF8BAFCE
:104780009CAF20E030E040E450E40E9481384B01CF
:104790005C011E018DE3280E311CFE01E35BFF4F1F
:1047A0002081318142815381C701B6010E948E343C
:1047B000FE01E75BFF4F20813181428153810E94DE
:1047C000FD352B013C018E010F5A1F4FA7019601A9
:1047D000C701B6010E948E34F801208131814281E7
:1047E00053810E948E349B01AC01C301B2010E942F
:1047F000FD356B017C01CB5ADF4F288139814A811D
:104800005B81C501B4010E948E349B01AC01C701DC
:10481000B6010E94FD35F101608371838283938329
:104820000DC0C80101969E8B8D8B898D0E94DC2B5B
:10483000000F111FC00FD11F9C878B87DF91CF9175
:104840001F910F91FF90EF90DF90CF90BF90AF90AE
:104850009F908F907F906F905F904F903F902F90A0
:104860000895213069F038F0223079F4861B9109DF
:1048700067FD93950895860F911D67FD9A9508959C
:10488000841B910947FD93950895840F911D47FD61
:104890009A950895213069F038F0223079F4841B1C
:1048A000910947FD93950895840F911D47FD9A95B1
:1048B0000895860F911D67FD9A950895861B9109AD
:1048C00067FD939508953F924F925F926F927F920A
:1048D0008F929F92AF92BF92CF92DF92EF92FF9210
:1048E0000F931F93CF93DF937C01762E442EEC0120
:1048F000C25ADF4F1E815F806C018AE8C80ED11C4E
:104900006884611A372C671408F4362C8C809D80DB
:104910000E85202F452D612F8A819B810E94312495
:104920005C01202F452D612FC4010E944A24AC0157
:10493000442011F08C8504C08B85811109C08D85C0
:10494000F6018083232D30E0B501C7010E94D81005
:10495000761420F07618539410E0D2CF170D1E83F2
:104960005F82DF91CF911F910F91FF90EF90DF90C9
:10497000CF90BF90AF909F908F907F906F905F90FF
:104980004F903F900895DC011A964C911A97ED9143
:10499000FC911197249130E0042E02C035952795A3
:1049A0000A94E2F7842F860F883010F4E22F0DC0AE
:1049B00031961196FC93EE93E49198E0941B01C01C
:1049C000EE0F9A95EAF7E22B88501A968C9381E0C5
:1049D00090E001C0880F6A95EAF781508E23089510
:1049E000CF93C62F0E94C324C15021E030E001C004
:1049F000220FCA95EAF7821BCF910895FC01E60FBA
:104A0000F11D849190E0982F88273196E4918E0FC4
:104A1000911D0895CF93DF93EC016BAFEEA9FFA931
:104A20000190F081E02D0995EEA9FFA90280F381A4
:104A3000E02DCE01DF91CF9109941F93CF93DF93A7
:104A4000EC010E94E1201BAD8AAD180FE881F981CD
:104A50008189181750F0EC81FD8120E030E040E0C2
:104A600060E1CE01099580E00EC0FE01E557FF4FE1
:104A70008081882319F0CE010E944021612FCE0150
:104A80000E940A2581E0DF91CF911F910895CF9375
:104A9000DF93EC01FC01E557FF4F8081882319F07B
:104AA000CE010E94402160E0CE01DF91CF910C94B5
:104AB0000A25FF920F931F93CF93DF93FC01DC0134
:104AC000AF5BBF4F8D919D910D90BC91A02D85A3A3
:104AD00096A3A7A3B0A7DF01A75ABF4F81E04D91CE
:104AE0005D916D917C91452B462B472B09F480E01D
:104AF000848FDF01AB59BF4F8D919D910D90BC917B
:104B0000A02D858F968FA78FB0A3DF01A759BF4F28
:104B10008D919D910D90BC91A02D81A392A3A3A3F3
:104B2000B4A3DF01A356BF4F8D919D910D90BC9111
:104B3000A02D81A792A7A3A7B4A7DF01A755BF4FB8
:104B40008D919D910D90BC91A02D85A796A7A7A7AB
:104B5000B0ABDF01CF014096ED01C75BDF4F48816D
:104B600059816A817B814D935D936D937D938A1703
:104B70009B0791F7DF01AB58BF4FCF018F579F4F76
:104B80004D915D916D917D91ED01C956D10948839B
:104B900059836A837B838A179B0791F7DF01AF589C
:104BA000BF4F8D919D910D90BC91A02D81AB92AB8B
:104BB000A3ABB4ABEF0100E010E0F990C8010E9494
:104BC0004C35F81621F06F2DC8010E9454350F5F47
:104BD0001F4F0533110589F7DF91CF911F910F9179
:104BE000FF900895FC01E359FF4F10821182128259
:104BF0001382EC5BFF4F21E02083F097108211823B
:104C00001282138234961082118212821382349699
:104C100010821182128213823496108211821282C3
:104C2000138234961082118212821382F4971082BA
:104C300011821282138234961082118212821382A0
:104C4000B0974081518162817381FC0145A356A3D5
:104C500067A370A70C945925EF92FF920F931F93AF
:104C6000CF93DF93EC017C0100E010E0C8010E94CB
:104C70004C35D7018D937D010F5F1F4F0533110513
:104C8000A9F78DA19EA1AFA1B8A5FE01EF5BFF4FD3
:104C900080839183A283B3839E01F197D9014D91C3
:104CA0005D916D917D919D01CD018B5B9F4FDC01ED
:104CB0004D935D936D937C931397E217F30771F710
:104CC000CE014C964191519161917191DF01AF59A3
:104CD000BF4F4D935D936D937C9313978E179F07F2
:104CE00089F7FE01E75AFF4F8C8D90E0A0E0B0E01D
:104CF00080839183A283B3833C968D8D9E8DAF8DEF
:104D0000B8A180839183A283B383349689A19AA1A9
:104D1000ABA1BCA180839183A283B383F49689A5C0
:104D20009AA5ABA5BCA580839183A283B3833C964F
:104D30008DA59EA5AFA5B8A980839183A283B383D7
:104D4000F89789A99AA9ABA9BCA980839183A2836A
:104D5000B383DF91CF911F910F91FF90EF90089552
:104D60000895CF92DF92EF92FF920F931F93CF930C
:104D7000DF936C017A018B01C0E0D0E0CE15DF0536
:104D800081F0D8016D918D01D601ED91FC910190DA
:104D9000F081E02DC6010995892B11F02196EECF07
:104DA0007E01C701DF91CF911F910F91FF90EF908E
:104DB000DF90CF900895FC01538D448D252F30E076
:104DC000842F90E0821B930B541710F0CF96089518
:104DD00001970895FC01918D828D981761F0828D65
:104DE000DF01A80FB11D5D968C91928D9F5F9F731F
:104DF000928F90E008958FEF9FEF0895FC01918DC1
:104E0000828D981731F0828DE80FF11D858D90E02D
:104E100008958FEF9FEF08950E94103B0F931F930B
:104E2000CF93DF93EC0188819981009729F02A8143
:104E30003B812617370788F48B016F5F7F4F0E94F5
:104E40004A3A009761F0998388831B830A832C81F7
:104E50003D81232B11F4FC01108281E001C080E030
:104E6000DF91CF911F910F9108958FE392E00E94FF
:104E7000D32921E0892B09F420E0822F0895EF92B5
:104E8000FF920F931F93CF93DF93EC0181E0888F04
:104E90009B8D8C8D981305C0E889F989808185FDEB
:104EA00026C0F62E0B8D10E00F5F1F4F0F731127DA
:104EB000E02E8C8DE8120CC00FB607FCFACFE88903
:104EC000F989808185FFF5CFCE010E94C72AF1CFF5
:104ED0008B8DFE01E80FF11DE35AFF4FF0829FB763
:104EE000F8940B8FEA89FB89808180620AC09FB7A2
:104EF000F894EE89FF896083E889F989808183705D
:104F0000806480839FBF81E090E0DF91CF911F910B
:104F10000F91FF90EF900895CF93DF93EC01888D70
:104F20008823C9F0EA89FB89808185FD05C0A889AD
:104F3000B9898C9186FD0FC00FB607FCF5CF808133
:104F400085FFF2CFA889B9898C9185FFEDCFCE017D
:104F50000E94C72AE7CFDF91CF9108952F923F9209
:104F60004F925F926F927F928F929F92AF92BF9279
:104F7000CF92DF92EF92FF920F931F93CF93DF9325
:104F8000EC018B017A0187E2C82ED12C4601841AEC
:104F9000950A3B018CE3680E711CA401B301CE019C
:104FA0000E943F13C01AD10A27018CE3480E511CFE
:104FB000A601B201CE010E943F139CE3A92EB12CA1
:104FC0001501201A310AA401B101CE010E943F133C
:104FD000AE18BF08A601B501CE010E943F1387E2BB
:104FE000E80EF11CA701B301CE010E943F13095D39
:104FF0001F4FA801B201CE010E943F13A701B101CA
:10500000CE010E943F13A801B501CE01DF91CF91DF
:105010001F910F91FF90EF90DF90CF90BF90AF90D6
:105020009F908F907F906F905F904F903F902F90C8
:105030000C943F13AF92BF92CF92DF92EF92FF9208
:105040000F931F93CF93DF935C016B01EA017A0109
:10505000E20EF31E9B012A5F3F4F87010E94DA0F89
:10506000882369F0EC16FD0651F000E026E030E000
:10507000AE01B601C5010E94D8102196F3CFDF9191
:10508000CF911F910F91FF90EF90DF90CF90BF9045
:10509000AF900895EF92FF920F931F93CF93DF93FA
:1050A0007C01EB019B012A5F3F4F02E210E042E0EE
:1050B00050E00E94DA0F882329F100E026E030E07A
:1050C00042E050E0BE01C7010E94D81001E02EE18D
:1050D00030E043E050E0BE01C7010E94D810BE019D
:1050E0006B5F7F4F2EE130E043E050E0C7010E944C
:1050F000D81000E026E030E041E250E0BE01C701F8
:105100000E94D810DF91CF911F910F91FF90EF90E7
:1051100008959B01DC011896ED91FC91199741E0EF
:1051200067E10994EF92FF920F931F93CF93DF9360
:105130006115710511F480E01CC041155105C1F0E5
:105140007B01EC018C819D818A01080F191FB80138
:10515000CE010E940E27882371F3288139818C812A
:105160009D81B701820F931F0E94253B1D830C83F5
:1051700081E0DF91CF911F910F91FF90EF90089503
:10518000CF93DF93EC0188819981009711F00E9401
:10519000C139198218821D821C821B821A82DF91FA
:1051A000CF910895CF93DF93EC016115710561F004
:1051B000FB0101900020E9F73197AF01461B570B27
:1051C0000E949228811103C0CE010E94C028CE0106
:1051D000DF91CF910895EF92FF920F931F93CF939A
:1051E000DF93EC017B018A01BA010E940E27811135
:1051F00004C0CE010E94C02807C01D830C83B701E4
:10520000888199810E94253BCE01DF91CF911F912A
:105210000F91FF90EF900895CF93DF93EC0161150C
:10522000710559F0FB0101900020E9F73197AF01BA
:10523000461B570B0E94EB2802C00E94C028CE01DB
:10524000DF91CF9108950F931F93CF93DF93CDB745
:10525000DEB762970FB6F894DEBF0FBECDBF8C01EC
:10526000CB01F801118210821382128215821482FE
:105270004AE0BE016F5F7F4F0E94C233BE016F5F85
:105280007F4FC8010E940C2962960FB6F894DEBFCA
:105290000FBECDBFDF91CF911F910F910895CF9396
:1052A000DF93EC01FB018617970761F06081718144
:1052B0006115710529F0448155810E94EB2802C0D7
:1052C0000E94C028CE01DF91CF910895FC01118288
:1052D000108213821282158214826115710551F0B9
:1052E000FB0101900020E9F73197AF01461B570BF6
:1052F0000C94EB2808951F920F920FB60F92112471
:105300002F933F934F935F936F937F938F939F93CD
:10531000AF93BF93EF93FF938FE392E00E94C72A6E
:10532000FF91EF91BF91AF919F918F917F916F917D
:105330005F914F913F912F910F900FBE0F901F9053
:1053400018951F920F920FB60F9211242F938F93DF
:105350009F93EF93FF93E0914F02F0915002808171
:10536000E0915502F091560282FD12C09081809129
:1053700058028F5F8F7320915902821751F0E0918C
:105380005802F0E0E15CFD4F958F8093580201C018
:105390008081FF91EF919F918F912F910F900FBE80
:1053A0000F901F901895FC01918D228D892F90E010
:1053B000805C9F4F821B91098F739927089580E02D
:1053C00090E0892B29F00E94352781110C94000070
:1053D0000895833081F028F4813099F08230A1F073
:1053E00008958730A9F08830B9F08430D1F48091E5
:1053F00080008F7D03C0809180008F778093800034
:10540000089584B58F7702C084B58F7D84BD0895DB
:105410008091B0008F7703C08091B0008F7D809322
:10542000B000089508954091F306262F30E0240F30
:10543000311D21323105DCF420918C062430C9F471
:10544000FC0180E090E0861758F43091F30621913A
:10545000DC01AD52B94FA30FB11D2C930196F3CFD0
:105460008091F306680F6093F30680E0089581E071
:10547000089582E00895089508950895E0917F06C3
:1054800080917E06E81730F4F0E0EE54F94F808109
:1054900090E008958FEF9FEF089590917F0680919F
:1054A0007E06981750F4E92FF0E0EE54F94F208172
:1054B00030E09F5F90937F0602C02FEF3FEFC9015E
:1054C000089580917E0690E020917F06821B9109CD
:1054D0000895CF92DF92EF92FF920F931F93CF9395
:1054E000DF937C01CB018A0120917D06222389F084
:1054F000EB016B01C40ED51ECC15DD0569F0699179
:10550000D701ED91FC910190F081E02DC701099543
:10551000F3CF642F0E94132AC801DF91CF911F910E
:105520000F91FF90EF90DF90CF900895CF93DF938E
:105530001F92CDB7DEB7698320917D062223D1F07B
:1055400020918006203240F021E030E0FC013383DE
:10555000228380E090E015C080918106E82FF0E082
:10556000E35AF94F998190838F5F809381068093EE
:10557000800605C061E0CE0101960E94132A81E0F9
:1055800090E00F90DF91CF91089580E00895FC01A5
:10559000848DDF01A80FB11DA35ABF4F2C91848DBC
:1055A00090E001968F739927848FA689B7892C93F1
:1055B000A089B1898C91837080648C93938D848D44
:1055C000981306C00288F389E02D80818F7D808347
:1055D0000895CF93DF93282F30E0F901EB59F64F70
:1055E0008491F901EF5AF64FD491F901E35CF64F3B
:1055F000C491CC2391F081110E94E929EC2FF0E0B5
:10560000EE0FFF1FED5CF64FA591B491EC91ED23E9
:1056100081E090E021F480E002C080E090E0DF9142
:10562000CF9108951F93CF93DF93282F30E0F90196
:10563000EB59F64F8491F901EF5AF64FD491F901E5
:10564000E35CF64FC491CC23C1F0162F81110E9468
:10565000E929EC2FF0E0EE0FFF1FE75DF64FA59173
:10566000B4919FB7F894111104C08C91D095D823B0
:1056700002C0EC91DE2BDC939FBFDF91CF911F9195
:105680000895CF93DF9390E0FC01EF5AF64F2491F9
:10569000FC01E35CF64F8491882361F190E0880F70
:1056A000991FFC01E15EF64FC591D491FC01E75DC5
:1056B000F64FA591B491611109C09FB7F894888104
:1056C000209582238883EC912E230BC0623061F4F5
:1056D0009FB7F8948881322F309583238883EC918B
:1056E0002E2B2C939FBF06C08FB7F894E8812E2BEA
:1056F00028838FBFDF91CF9108951F93CF93DF93BE
:10570000182FEB0161E00E94412B209711F460E01B
:1057100004C0CF3FD10539F461E0812FDF91CF91F3
:105720001F910C94122BE12FF0E0EB59F64FE4910E
:10573000E330F9F048F4E130B9F0E230A1F584B596
:10574000806284BDC8BD34C0E730E9F0E83019F1AB
:10575000E43049F580918000806280938000D0938E
:105760008B00C0938A0024C084B5806884BDC7BD07
:105770001FC080918000806880938000D093890052
:10578000C093880015C08091B00080688093B000FD
:10579000C093B3000DC08091B00080628093B000D0
:1057A000C093B40005C0C038D1050CF0B5CFAFCF61
:1057B000DF91CF911F9108958E3008F08E50877041
:1057C000806480937C0080917A00806480937A006A
:1057D00080917A0086FDFCCF8091780090917900CD
:1057E00008953FB7F89480911B0790911C07A091F2
:1057F0001D07B0911E0726B5A89B05C02F3F19F0C5
:105800000196A11DB11D3FBFBA2FA92F982F882740
:10581000820F911DA11DB11DBC01CD0142E0660F9B
:10582000771F881F991F4A95D1F708952FB7F894CD
:1058300060911707709118078091190790911A07C6
:105840002FBF08951F920F920FB60F9211242F931E
:105850003F938F939F93AF93BF938091170790913E
:105860001807A0911907B0911A073091160723E085
:10587000230F2D3720F40196A11DB11D05C026E888
:10588000230F0296A11DB11D2093160780931707C1
:1058900090931807A0931907B0931A0780911B07DC
:1058A00090911C07A0911D07B0911E070196A11DA4
:1058B000B11D80931B0790931C07A0931D07B09305
:1058C0001E07BF91AF919F918F913F912F910F90A4
:1058D0000FBE0F901F9018951F920F920FB60F9248
:1058E00011242F933F934F935F936F937F938F93E5
:1058F0009F93AF93BF93EF93FF93E0910201F091D9
:1059000003010995FF91EF91BF91AF919F918F9105
:105910007F916F915F914F913F912F910F900FBEAB
:105920000F901F9018951F920F920FB60F9211248F
:105930002F933F934F935F936F937F938F939F9397
:10594000AF93BF93EF93FF93E0910001F0910101BA
:105950000995FF91EF91BF91AF919F918F917F91A9
:105960006F915F914F913F912F910F900FBE0F90CC
:105970001F90189510928C0681E080938E061092ED
:105980008D0661E082E10E94122B61E083E10E94BA
:10599000122BE9EBF0E080818E7F808380818D7F08
:1059A000808388E48093B80085E48093BC000895E8
:1059B000CF93DF9391E09093D2068823B9F0C09102
:1059C000B800D091BA008091BC008A7B8093BC0063
:1059D00060E082E10E94122B60E083E10E94122BC2
:1059E0000E94BA2CD093BA00C093B800DF91CF9137
:1059F000089585ED8093BC00809183069091840684
:105A0000A0918506B09186060796A11DB11D23E0E1
:105A1000B695A795979587952A95D1F72091BC00C3
:105A200024FF1CC040918306509184066091850636
:105A300070918606452B462B472B81F30097A105D5
:105A4000B10541F02AE22A95F1F700C00197A109BA
:105A5000B109E4CF809182060C94D82C10928C0668
:105A600008951F920F920FB60F9211242F933F9318
:105A70004F935F936F937F938F939F93AF93BF9356
:105A8000EF93FF938091B900887F803609F49CC022
:105A900068F5883209F45BC090F4803109F454C091
:105AA00038F4882309F4F6C0883009F44DC0F6C0F4
:105AB000883109F44CC0803209F45DC0EFC08034F5
:105AC00009F468C048F4803309F455C0883309F0FC
:105AD000E5C080938B06D8C0803509F44FC0883567
