:100000000C94B6040C94D62D0C94FD2D0C94DE04A7
:100010000C94DE040C94DE040C94DE040C94DE04D8
:100020000C94DE040C94DE040C94DE040C94DE04C8
:100030000C94DE040C94DE040C94DE040C94DE04B8
:100040000C94242E0C94DE040C946C2E0C94992E9B
:100050000C94DE040C94DE040C94DE040C94DE0498
:100060000C94B92C0C94DE04F0000C0302048108FB
:100070000109010801080108010801080108010837
:100080000606F80160006000F000080144028402E6
:100090000402040204020402040204020402040230
:1000A0000801F00060006000600090004801480115
:1000B00008010801080108010801080108010801F8
:1000C0000801F0006000600000000000230026002E
:1000D000290000000000250028002B00000000007F
:1000E000240027002A000404040404040404020277
:1000F00002020202030303030303010204081020A7
:1001000040800102040810200102040810200000B1
:1001100000080002010000030407000000000000C6
:10012000000000000000E003C0E703000000000042
:10013000003FE00300E003C0E70300000000000010
:100140007FE00300E003C0E7030000000000007F41
:10015000E00300E003C0E703000000000000FFE050
:100160000300E003C00700000000000000FFE00300
:1001700000E003C00700000000000000FFE103FFF3
:10018000E0F3C3E7F3F9E103FF071FFFE1C3FFE17A
:10019000FBC7E7F3FDE303DF071FDFE3E3FFE3FF55
:1001A000CFE7F3FFE7039F8F0FDFE3F3E3E7CFCF63
:1001B000E7F3EFE7031FDF079FE7F3C1E787DFE719
:1001C000F3C3E7031FFF039FE7F381EF03DFE7F3C9
:1001D00083EF031FFE031FEFF3FFEF03DFE7F3815E
:1001E000EF031FFC011FEFFBFFEF03DFE7F381EFDE
:1001F000031FFC001FFEFBFFEF03DFE7F381EF03AC
:100200001FFC011FFEF301E003DFE7F381EF031F93
:10021000FE031FFCF301E003DFE7F381EF831FFE22
:10022000031FFCF301E487DFE7F381EFC71FDF075C
:100230001FF8E387E7FFCFE7F381CFFF9F8F0F1F03
:10024000F8E3FFE7FFCFE7F381CFFFDF870F1FF072
:1002500083FFE7FBC7E7F3818F7FDF071F1FE00303
:10026000FEE0F181C7E381071FEF031E000C000AC7
:10027000C009300808098404620411020902090156
:10028000C6003C000006000D3C0F7A06FD00FF0092
:10029000FF00FF07FE0EBC0F800F000712020403D1
:1002A00004050103050E1500FC10FC11FC00000004
:1002B00000019920095EC33FFEFF97002A1B5EC321
:1002C0003F2E6687E54624660EC82A2B25E664C4C1
:1002D00066C6A2E2F11A002B105EC33F2E66B73B42
:1002E000A039A09BDD3D3E2C0F5EC33FFE9FC9920F
:1002F000D2CECACE0A022D0E5EC33F7E7930743054
:100300008FFF0C002E0D5EC33FFE9FC992D2CA63C1
:10031000042F185EC3A7B0ECD2D9D1D959D959D975
:1003200059D959D9596179EC0030235EC33FD0E4E3
:100330001905D5CC94D09A9A999A118999099199CD
:100340009A999AA16DA628C82EE97101310F5EC352
:100350003FD464DD61C8ECFEEF710132175EC33F2C
:1003600010E141D4CC58D4ECA6FB56F660E8601EF0
:100370006B00331C5EC33F0CE14198CCF0ACEC60E9
:10038000652DB1F0EC5494D4CCD8613D4E00341BB3
:100390005EC33F9CEC28CB428941893991B19131B0
:1003A00099A9039A03CAD9ED71351E5EC33FC48172
:1003B000D481D4ECDABB83B011B22861E15929456C
:1003C00024540781F5B800361C5EC33F14E1198937
:1003D00098EC8AB9032992A9A1FD4A686A64EE9053
:1003E0001E170037175EC33FC4C1D0C1ACECD2D9D1
:1003F00059D9A5B3B3B26BE5710438215EC33F4C44
:10040000E1D908D1AE66A62806EB26C88456094D68
:10041000CD4C09D14C1D04D6E30200391D5EC33F0B
:1004200010E1DDC8D490D4D0BEA13A103B885D2B3A
:1004300026427510488F13003A125EC33F9ECB923E
:10044000D2CAE3509694561E230000000004FFFF1A
:1004500000005F0203020304010204060D00FE090E
:10046000FE0AFF01A8036E04FA2007EEF8F95F0008
:10047000210AEEF8F1B4EF604E01220CEEF8E1240F
:100480004BB224E717002311EEF8A9499644839450
:1004900044839464494E062411EEF8F170486A4989
:1004A000382659920C614E01250FEEF8E128694A71
:1004B000D2B09A4449534E2610EEF8A961922561B4
:1004C000258B94285372182709EEF8F1B4CE4F000B
:1004D000280DEEF8A1300DD3CE699C2300290CEE37
:1004E000F8E3344E3BA6618E012A0CEEF8F12C297C
:1004F0004D492DE7112B0BEEF8596B8396E6CC0096
:100500002C09EEF8F95DAC63002D09EEF879197449
:100510009E002E09EEF8F93D1C73082F0DEEF849E8
:10052000699886D530CD69003013EEF8F13089B284
:10053000244BB2244BB22809730A00310CEEF8F1B7
:10054000504BD2DE061D06320EEEF8E1294BB234D6
:10055000EC3AE83000330DEEF8D1410D8B739A641C
:10056000D14E340FEEF82969A8255912950631CDE0
:1005700009350EEEF8D141492B929456B2682736D0
:1005800010EEF8E1294BD27488B2244BB2682737B9
:100590000DEEF8D1410DD3300DD33A093811EEF8F4
:1005A000E1294BB2248BA62CC9922CDA093910EE22
:1005B000F8E1294BB2248B86B492453B013A0CEE0C
:1005C000F859C331A785630E013B0BEEF859C331CF
:1005D000A789750C3C0AEEF84961E7EE30003D0B47
:1005E000EEF8390D3A3CE88C003E0AEEF8D1B863DB
:1005F000771A003F0EEEF8E1294BB234ACE6604EBC
:10060000014010EEF8E1294BB22452FA458A871CCA
:10061000064113EEF8F13089B2244BB26450B22493
:100620004BB21C06420EEEF8D1218B7ADAA25E861E
:100630009C00430CEEF8E1294BD2DEA29D00440C55
:10064000EEF8D1218BFA7F197202450EEEF8D141F6
:1006500049AB439456071D06460DEEF8D14149AB10
:100660004394B6D300470EEEF8E1294BD226254B32
:10067000B268274814EEF8D12CC9922CC99241C90E
:10068000922CC9922C87014909EEF8E131EDE34E35
:100690004A0BEEF8F131EDA9A653004B12EEF8D15A
:1006A0002CC992A892894916D5922C87014C0AEE42
:1006B000F8D1FE3AE830004D11EEF8D12CC9124BBA
:1006C000BF25599225590E034E12EEF8D12C9112E6
:1006D00029E9272552B224CB61004F12EEF8E12917
:1006E0004BB2244BB2244BB2248B76025010EEF85E
:1006F000D121CA922CC992214ADB69005112EEF82D
:10070000E1294BB2244BB2244BB2A469CE0152135F
:10071000EEF8D121CA922CC992214AB2A896643926
:100720000C530EEEF8E1294BD2784E932CDA095493
:100730000AEEF8D1414BFB9D025513EEF8D12CC9BE
:10074000922CC9922CC9922CC9A29D005613EEF886
:10075000D12CC9922CC9A2244BB2244C730A005745
:100760000FEEF8D12CC9922CC992FE4F494E581366
:10077000EEF8D12CC9A2244BC24A96445992E530D6
:1007800000590EEEF8D12CC9A2244BC2B43B055A35
:100790000EEEF8D1410DD3B01AA6830E035B0AEE1C
:1007A000F8B7B4BFEE08005C0CEEF8D1721A57E34C
:1007B0003487015D09EEF8D7FE6D47005E0AEEF85A
:1007C000F13089B29C1F5F08EEF8F9B74107600964
:1007D000EEF89138E7CF00610EEEF8B9CDD1906414
:1007E0004964C961006210EEF8D1D621CA922CC9C1
:1007F000922C197202630CEEF8B94D5992D6A29D53
:10080000006411EEF849696948B2244BB2248B8622
:100810001C06650DEEF8B94D5932286916ED0466CF
:100820000DEEF8712DAA864396B693006710EEF888
:10083000B94D5992255934A449164D006810EEF867
:10084000D12E9294644996644996C300690AEEF8E1
:10085000C939A676DC096A0BEEF8E939A676EAA66C
:10086000016B0EEEF8D14E954C4CB2A896C3006CBD
:1008700009EEF861B51F77026D0CEEF8392951D2F7
:10088000FF2D87016E10EEF8392592946449966425
:100890004996C3006F0EEEF8B94D5992255992450D
:1008A0003B01700FEEF8390D51966449960C515A80
:1008B00005710FEEF8B90D49966449160D690B00E4
:1008C000720CEEF839259294A4ED3400730CEEF816
:1008D000B94D59244759B413740CEEF8A9C5214BEE
:1008E0009B329D00750FEEF8396549966449964430
:1008F000961C06760FEEF83965499664519225618B
:100900004E01770CEEF839654996F44F494E780E52
:10091000EEF839655112A6611265390C7910EEF8BE
:100920003965499664496449932C9A007A0BEEF82C
:10093000390D62D74187017B0BEEF8212D6D93D3E2
:10094000661D7C09EEF8F1B4BF53007D0BEEB8E5EF
:10095000B4594BDB740C7E0BEEF8E128E994F30BF1
:100960000000000004FFFF000000E92F11241FBE5B
:10097000CFEFD8E0DEBFCDBF12E0A0E0B1E0E6E50A
:10098000F6E702C005900D92A434B107D9F727E02D
:10099000A4E4B2E001C01D92A934B207E1F714E06B
:1009A000C6EBD4E004C02197FE010E94DA36C53BB5
:1009B000D107C9F70E94BF2E0C94CB3A0C940000CB
:1009C00080E090E008950895CF92DF92EF92FF9239
:1009D0000F931F93CF93DF938C01EB016B01C40E38
:1009E000D51EE12CF12CCC15DD0551F4C701DF91AA
:1009F000CF911F910F91FF90EF90DF90CF900895CE
:100A0000D801ED91FC910190F081E02D6991C80130
:100A10000995E80EF91EE7CF611529F06A3019F043
:100A2000862F90E008958FEF9FEF0895FC01A48139
:100A3000B581AF54BF4F81E08C938281938108953B
:100A4000FC01848595856115C9F197FF0AC08285EF
:100A500093850196608571850E94C636938782874B
:100A60000895892B09F04CC00480F581E02DE356F0
:100A7000FF4F80819181A281B38185309105A105CD
:100A8000B10529F48AE090E0A0E0B0E012C0813026
:100A90009105A105B10529F485E090E0A0E0B0E062
:100AA00008C0892B8A2B8B2B59F581E090E0A0E0C0
:100AB000B0E080839183A283B383089597FF0BC036
:100AC0008285938501979387828797FF19C08085D8
:100AD00091850197C3CF892B99F40480F581E02D8E
:100AE000E356FF4F80819181A281B38185309105CA
:100AF000A105B105D1F20A97A105B10569F210F679
:100B0000089508950895BF92CF92DF92EF92FF92D9
:100B10000F931F93CF93DF9300D000D00F92CDB7E8
:100B2000DEB78C01DC01DA96BC90DA97DB96DC90BC
:100B3000DB97ED91FC91C188E12CF12CD801ED916E
:100B4000FC9111974089D8968D919C91D9971C82E0
:100B50002D2D2E0D2D834B834E9D90014F9D300DDD
:100B6000112443E0220F331F4A95E1F7820F931FB0
:100B70009A8389831496ED91FC919E012F5F3F4FDC
:100B800041E06FE0C801099581E08E0D8B1538F4C6
:100B9000BFEFEB1AFB0A8D2D8E0D8C1578F20F909E
:100BA0000F900F900F900F90DF91CF911F910F91A9
:100BB000FF90EF90DF90CF90BF900895CF93DF9399
:100BC000EC016BAFEEA9FFA90190F081E02D099532
:100BD000EEA9FFA90280F381E02DCE01DF91CF9134
:100BE0000994FC01E60FF11D849190E0982F88276D
:100BF0003196E4918E0F911D0895DC011A965C9157
:100C00001A97ED91FC911197249130E0052E02C0C6
:100C1000359527950A94E2F7452F460F822F4830E5
:100C200068F031961196FC93EE93849138E0351B71
:100C300001C0880F3A95EAF7822B48501A964C93D8
:100C40002FEF3FEFA90102C0440F551F6A95E2F74D
:100C5000BA01609586230895CF93C62F0E94FD05A3
:100C6000C15021E030E001C0220FCA95EAF7821B93
:100C7000CF910895FC01213051F0223069F021110B
:100C800010C0E40FF11D47FDFA95CF010895E60F5E
:100C9000F11D67FDFA95F9CFE41BF10947FDF395C6
:100CA000F4CFE61BF10967FDF395EFCFFC0121308E
:100CB00051F0223069F0211110C0E60FF11D67FDDF
:100CC000FA95CF010895E41BF10947FDF395F9CF9B
:100CD000E61BF10967FDF395F4CFE40FF11D47FD25
:100CE000FA95EFCF0F931F93CF93DF938C01EC0115
:100CF000C25ADF4F798368831A86FC01EF58FF4F91
:100D00006081CE010E94FD058887F801EE58FF4FF3
:100D10006081CE010E94FD058987F801E657FF4FEB
:100D200090819C8781E0911180E08D87DF91CF9148
:100D30001F910F910895EF92FF920F931F93CF93FE
:100D4000DF939C018B01FC01E65AFF4F808191816A
:100D50004796611541E0740740F5B6966136710516
:100D600030F46134710538F0F901E258FF4F208109
:100D70003181820F931F9C012F5F3F4FF9014491F6
:100D8000411509F440C0FC0144914017110641F49B
:100D90000296DF91CF911F910F91FF90EF900895F0
:100DA000F9012491820F911DE6CFF901EE57FF4F13
:100DB000C081D181C80FD91F7E0160E0C7010E94A8
:100DC000F105C80FD91F62E0C7010E94F105F4E0E8
:100DD000EF0EF11C8017910780F3FE01849190E0E3
:100DE000982F88273196E4918E2B009761F0081791
:100DF000190719F4CE010396CCCFFE013296E49187
:100E0000CE0FD11DEACF80E090E0C3CF80E090E02C
:100E100008958F929F92AF92BF92CF92DF92EF92FE
:100E2000FF920F931F93CF93DF937C01EB01FC01A3
:100E3000E65AFF4F808191818617970709F490C089
:100E400071836083FB018491870103591F4FD8018F
:100E50008C933196E4911196EC931197FB013296A5
:100E6000E4911296EC931297FB013396E49113965A
:100E7000EC931397FB013496E4911496EC9314973A
:100E8000FB013596E4911596EC931597FB01369688
:100E9000E4911696EC931697FB013796E49117961A
:100EA000EC931797FB013896E4911896EC931897FA
:100EB000FB013996E4911996EC931997FB013A9648
:100EC000C490F801C286FB013B96E4911B96EC931B
:100ED0001B97FB013C96D490F801D486FB013D960C
:100EE000B4901D96BC921D973196A490F801A686E9
:100EF000FB013F9684901F968C9231969490F80156
:100F0000908A61E1CE010E94F105D80152969C932E
:100F10008E93519763E1CE010E94F105F801948B05
:100F2000838B65E1CE010E94F105D80156969C9312
:100F30008E935597CD2BA1F0E701CA57DF4FB882AA
:100F4000F701E957FF4FA08258968C91811541F027
:100F5000813099F4B8140CF488829A140CF49082BD
:100F6000DF91CF911F910F91FF90EF90DF90CF9085
:100F7000BF90AF909F908F9008958D2D0D2C000CF9
:100F8000990B8C0D911DC7FC9A950B2C001C000829
:100F9000B816090614F4CD0CC882DA140CF7D08206
:100FA000DFCF3F924F925F926F927F928F929F928C
:100FB000AF92BF92CF92DF92EF92FF920F931F9367
:100FC000CF93DF9300D000D000D0CDB7DEB78D83B4
:100FD0009E83AD80BE8026E6A20EB11CD5011C9278
:100FE000ED81FE81108E6B0180EC382E00E010E068
:100FF000E12CF12CE857FF4F4F016D807E802EE5EC
:10100000620E711C8D819E818D589F4F9A838983BA
:10101000AD81BE81AC58BF4FBC83AB834D805E8039
:10102000B5E74B0E511CF60161916F01AD81BE8198
:101030001296ED91FC911397CD010995BC018F3F5C
:10104000980769F1029679F38D819E810E949B0633
:10105000BC0100E0892BC1F08D819E810E94720647
:10106000A981BA816C91C3010E942C06F40180838E
:10107000AB81BC816C91C3010E942C06F20160819E
:10108000C3010E942C06082F002E000C110BF0EC5F
:101090003F1202C0D4013C90E00EF11EC4CFF50116
:1010A00080818115B9F02D813E8128573F4FD901AC
:1010B0002C91082E000C990B820F911D27FD9A95FB
:1010C000E80EF91EE01AF10A131424F4E30CF11CE3
:1010D00037FCFA94C7010F900F900F900F900F906C
:1010E0000F90DF91CF911F910F91FF90EF90DF90C4
:1010F000CF90BF90AF909F908F907F906F905F90B8
:101100004F903F900895FC0182E59EE09383828397
:10111000CF010C94D1070F93CF93DF93DC01F9013A
:10112000EC01CC57DF4F8881811509F481C03097DD
:1011300009F47EC02130310509F472C00230F1F5A6
:101140006F5F7F4F621B730BED01C25BDF4F8881C6
:1011500099814817590708F46BC0229688819981B4
:101160004817590708F064C02497288139819A915B
:101170008A91E60FF71FE617F70708F055C06217C8
:10118000730708F050C0F90131978E179F0708F0D8
:101190004FC06817790708F4BC01E217F30708F499
:1011A0009F01261B370B00E0D696ED91FC91D79757
:1011B0000480F581E02DCD0109953AC0033081F519
:1011C0004F5F5F4F421B530BED01C65BDF4F8881C2
:1011D00099816817790760F122968881998168174B
:1011E000790730F52496288139819A918A91E40F04
:1011F000F51FE417F50708F542175307E8F4F9015E
:1012000031978E179F07A0F44817590708F4AC01CF
:10121000E217F30708F49F01241B350B01E0C4CF4C
:1012200000FDD2CF91CFBC016217730708F4ADCF98
:10123000DF91CF910F910895AC014217530708F346
:10124000F7CF2F923F924F925F926F927F928F9241
:101250009F92AF92BF92CF92DF92EF92FF920F9345
:101260001F93CF93DF936C01F62E542EEC01C25ADC
:10127000DF4F1E81EF805C018AE8A80EB11C388424
:10128000432C411A2F2C4F1408F4242C8C809D8061
:101290000E85202F4E2D612F8A819B810E9456063C
:1012A0003C01202F4E2D612FC4010E943A06AC0153
:1012B000511489F08C85F5018083222D30E0B30133
:1012C000C6010E948B081F0DF41450F0F12EF31884
:1012D000E39410E0D4CF8B858111F5CF8D85EBCFD2
:1012E0001E83EF82DF91CF911F910F91FF90EF90BE
:1012F000DF90CF90BF90AF909F908F907F906F9036
:101300005F904F903F902F9008950F93FC01E25B08
:10131000FF4F2081318142175307B8F03296208168
:1013200031814217530788F4369720813181621743
:10133000730758F03296208131816217730728F4C1
:1013400000E021E030E00E948B080F910895FC013D
:10135000E657FF4F608308950F931F93CF93DF935A
:10136000FC01DB01BA01A901C801EF01C25BDF4F3B
:10137000299139910990D881C02D6C177D0740F4CF
:101380002017310748F08617970730F080E017C024
:1013900020173107C0F3FACFEF01C65BDF4F88811A
:1013A0009981E45BFF4F20813181A217B30760F47C
:1013B0008417950768F081E04A175B0738F7DF91DB
:1013C000CF911F910F91089584179507A0F3DECF59
:1013D00081E0F5CF2F923F924F925F926F927F9272
:1013E0008F929F92AF92BF92CF92DF92EF92FF9235
:1013F0000F931F93CF93DF93CDB7DEB761970FB6EF
:10140000F894DEBF0FBECDBF6C014B01488B598BEA
:101410005901170128893989200F311F3E832D83F7
:10142000C501860F971F98878F8389019C01488982
:101430005989C6010E94AC09811509F45FC0C50134
:101440000796FC0183E0F695E7958A95E1F7FB871F
:10145000EA87960126573F4F3A832983AE86BF8697
:10146000C60187579F4F9D878C8798899B83E98901
:10147000EC83288939892F5F3F4F398B288B89016D
:101480002F813885492F5E2FB401C6010E94AC0917
:10149000582E811539F1E981FA814080F1E0F98710
:1014A0004110198634018E859F85152D5101F50156
:1014B0004491412320E030E07C01E21AF30AF50177
:1014C00041114BC054915123511589F1EC85FD8593
:1014D0008081811509F452C0C701EF2841F7E981E5
:1014E000FA8140822A853B85220E331E8D819E81A2
:1014F000E889F9898E179F0709F0B7CF61960FB673
:10150000F894DEBF0FBECDBFDF91CF911F910F9139
:10151000FF90EF90DF90CF90BF90AF909F908F9013
:101520007F906F905F904F903F902F9008952F5F26
:101530003F4FFFEF6F1A7F0A110F111104C05FEFC9
:10154000A51AB50A152D2817390709F0B5CFE12CD2
:10155000F12C411509F4BACF04C054915123511113
:10156000E6CFE981FA814082B301621B730B00E090
:101570004B815C81C6010E948B08AECF5985E98101
:10158000FA815083F1CF6F927F928F929F92AF92A8
:10159000BF92CF92DF92EF92FF920F931F93CF9360
:1015A000DF93EC016B015A018901FC01E459FF4F03
:1015B0008081823009F47DC058F47097811171C028
:1015C0000190F081E02DCE010995A80EB91E03C04F
:1015D000833009F479C0FE01E05AFF4FC192D192E5
:1015E000B182A082B801CE010E949B06BC0180E0BE
:1015F00090E06115710509F4AFC07E012EE5E20EA1
:10160000F11CCE010E947206FE01E959FF4F808055
:101610003C966081C7010E942C06682EFE01EC58A2
:10162000FF4F6081C7010E942C06182FFE01EB5866
:10163000FF4F6081C7010E942C06982EF70100859C
:1016400010160CF086C07684180D1195272D412FA9
:10165000662DC6010E9456066C01F70193838283B2
:10166000272D412F662DC5010E943A06AC01F701D6
:1016700095838483F2E07F1609F489C023E0721613
:1016800070F5002E000C110B882D082C000C990B06
:10169000711071C098012C0D3D1D8C01040F151F98
:1016A00024C00190F081E02DCE010995C81AD90A15
:1016B00092CFFE01E45AFF4F0190F081E02DCE0160
:1016C0000995A81AB90A87CFFE01E45AFF4F019085
:1016D000F081E02DCE010995C80ED91E7CCF33E0F4
:1016E000731609F46AC08C019601B601CE010E94FE
:1016F000AC09811571F1F701168217828E0101592B
:101700001F4F6E01F0E7CF0ED11CF8016081C701B9
:101710000E94FD05A82EF6016081C7010E94FD050B
:10172000B82E40E06A2DCE010E94210941E06B2DC8
:10173000CE010E94210961E0C7010E94FD058111CF
:10174000F0CFF7018781881504F3C657DF4F8485F2
:101750008883892D990C990BDF91CF911F910F915F
:10176000FF90EF90DF90CF90BF90AF909F908F90C1
:101770007F906F900895B601681B790B96012F5FDB
:101780003F4F040F151FFB0131966F01AECF81E073
:1017900090E0BC01601B710907FD739596012F5FF6
:1017A0003F4F8819910987FC93958A010F5F1F4F5E
:1017B000480F591FC60ED71E98CF9601280D311D10
:1017C00087FC3A9581E090E0801B910907FD939595
:1017D0008A010F5F1F4F480F591F87CFCF92DF92AB
:1017E000EF92FF920F931F93CF93DF93EC016C0165
:1017F00084E0C80ED11CFE01E057FF4F0190F0813C
:10180000E02DC60109959C018E3F9F4F28F58E0162
:101810000C561F4FF801408151817E01F2E9EF0E15
:10182000F11CF70160817181C6010E94C30A9C010D
:10183000C059DF4F88818230D1F058F4F80181110E
:1018400001C0F70180819181820F931F9183808372
:1018500003C0F801833061F081E090E0DF91CF9127
:101860001F910F91FF90EF90DF90CF900895F701B7
:1018700080819181821B930BE9CF8F929F92AF92CF
:10188000BF92CF92DF92EF92FF920F931F93CF936D
:10189000DF93EC018B017A01188E6901A12CB12C28
:1018A0004C018CE6880E911CF60161916F01EA8172
:1018B000FB81CE0109959C01019611F12E3F8FEF1E
:1018C000380791F3A701B801CE010E94C30A9C0119
:1018D000F4018081823071F028F4811108C0020F78
:1018E000131F02C0833049F0A20EB31EDDCFE20EFB
:1018F000F31EFACF021B130BF7CFE21AF30AF4CF51
:10190000C501DF91CF911F910F91FF90EF90DF9074
:10191000CF90BF90AF909F908F900895FC0182E58B
:101920009EE097838683CF0104960C943D0CAF9282
:10193000BF92CF92DF92EF92FF920F931F93CF93BC
:10194000DF93DC015B01FA01A9013E2F377081E0D2
:1019500090E0032E01C0880F0A94EAF7282FBD01FA
:1019600066577F4FEB01188190E0123020F4982FDA
:10197000113009F420E0E87F6F01D896ED91FC91D9
:10198000D997ED90FC901197E70188898C9D7001A3
:101990008D9DF00C1124E501CE0DDF1DEC0FFD1F18
:1019A000011119C04E0F5F1F8081892B82278193FF
:1019B000E417F507C9F7DF91CF911F910F91FF90C1
:1019C000EF90DF90CF90BF90AF900895990F220FC6
:1019D0004115510581F38081892B822780833F5FE8
:1019E0003770415051093111F1CFDC96CD91DC9126
:1019F000DD97EC0FFD1FEB018881823020F48130F0
:101A000021F491E0E5CF21E0E3CF21E0FACF0F937D
:101A10001F93CF93DF93FC01A081B18122AD822F70
:101A200090E048E0249F9001112437AF26AF5096F4
:101A30002C91509758E0259F9001112435AF24AF89
:101A400043AD642F70E058E0459F90011124EF01F1
:101A5000C05CDF4F3983288351965C9151978C018C
:101A6000040F111DC52FD0E05017110618F4CE0138
:101A7000861B970BEF01CE5BDF4F2993399343E031
:101A8000880F991F4A95E1F7820F931F89939993C5
:101A900054968D919C91559799838883E85BFF4F6D
:101AA00056968D919C9191838083DF91CF911F9168
:101AB0000F9108952F923F924F925F926F927F9273
:101AC0008F929F92AF92BF92CF92DF92EF92FF924E
:101AD0000F931F93CF93DF93CDB7DEB728970FB641
:101AE000F894DEBF0FBECDBF8F8398872F813885D6
:101AF000265B3F4F3A832983F90111821082EF81DF
:101B0000F885EA5BFF4F208031802F813885245B88
:101B10003F4F3C832B83F90131822082EF80F88490
:101B2000FEE4EF0EF11CF70111821082EF81F885BF
:101B3000E85BFF4F40805180EF81F885EC5BFF4F01
:101B4000208131814216530630F0C201821B930B73
:101B5000F70191838083EF81F885EE5BFF4F208151
:101B60003181421A530A2F813885205B3F4F3E83D3
:101B70002D83F90151824082EF81F885E85AFF4FA9
:101B800060807180EF81F885EC5AFF4FA080B180B2
:101B9000EF81F885EA5AFF4FC080D180EF81F88548
:101BA000EE5AFF4F8080918083019501A601B40118
:101BB0008F8198850E94AC092F8138852C573F4F23
:101BC00038872F8381111BC0F901108228960FB628
:101BD000F894DEBF0FBECDBFDF91CF911F910F9163
:101BE000FF90EF90DF90CF90BF90AF909F908F903D
:101BF0007F906F905F904F903F902F90089581E07D
:101C0000EF81F88580838114910421F0E981FA81C4
:101C100091828082A214B30420F4EB81FC81B18212
:101C2000A082F701808191818C159D0510F4D182ED
:101C3000C0826414750450F6ED81FE817182608269
:101C4000C5CF0F93DC01FC01E85BFF4F0190F081F1
:101C5000E02DCF01841B950BAC01FD01EA5BFF4F2A
:101C600080819181FC01E61BF70BBF01011113C0BC
:101C700041505109621B730BFD01E05CFF4F8081F5
:101C80009181481B590BD496ED91FC91D597CD01CC
:101C900009950F910895013079F761507109421B40
:101CA000530BEACFFC016115B9F16A30A9F1208D1F
:101CB000211122C06C3F48F0617085E0808F70E098
:101CC000738B628B8EEF9FEF0895683F18F06370FF
:101CD00084E0F4CF603F18F0677083E0EFCF603EA0
:101CE00018F06F7082E0EACF603C18F06F7181E00D
:101CF000E5CF862F90E008952150208F8289938927
:101D000036E0880F991F3A95E1F76F73862B938B16
:101D1000828B2111D7CF08958FEF9FEF0895DC01BB
:101D20001A96ED91FC9120E030E0099480E008954E
:101D30008091440690914506891B990B08959091D6
:101D40004506809144062FEF3FEF981748F4E92F9E
:101D5000F0E0E15EF94F208130E09F5F909345060F
:101D6000C9010895E091450680914406E81730F4D2
:101D7000F0E0E15EF94F808190E008958FEF9FEFF2
:101D80000895089520911E06260F3327331F213210
:101D90003105ECF420916C06FC0180E090E02430E9
:101DA00069F082E00895A0911E062191AC01425095
:101DB0005A4FA40FB52FB11D2C930196861798F397
:101DC00080911E06680F60931E0680E0089581E0F2
:101DD0000895CF93DF930F92CDB7DEB7FC016983EF
:101DE000809172068115F1F080919506803250F055
:101DF00081E090E09383828380E090E00F90DF9118
:101E0000CF91089580917306E82FF0E0EC58F94FD8
:101E1000998190838F5F809373068093950681E00C
:101E200090E0ECCF61E0CE0101960E94C20EF7CFA8
:101E3000CF92DF92EF92FF920F931F93CF93DF9396
:101E40007C01CB018A01209172062115D9F0EB01AA
:101E50006B01C40ED51ECC15DD0551F4C801DF9110
:101E6000CF911F910F91FF90EF90DF90CF90089549
:101E70006991D701ED91FC910190F081E02DC701AE
:101E80000995E9CF642F0E94C20EE8CF08952FB7BD
:101E9000F8946091D7057091D8058091D9059091FB
:101EA000DA052FBF08958F929F92AF92BF92CF9283
:101EB000DF92EF92FF920F931F93CF93DF937C01FA
:101EC000C62FDC011496ED91FC916F01B1E4CB0EAD
:101ED000D11CD6018D909D90AD90BC90E356FF4FE4
:101EE00060817181828193810E9409369B01AC01DE
:101EF000C501B401C115D1F00E942B358B01D82F3B
:101F0000C92F20E030E046E653E40E94C13618169F
:101F1000D4F4DF91CF911F910F91FF90EF90DF905C
:101F2000CF90BF90AF909F908F9008950E942A35D8
:101F30008B01D82FC92F20E030E040EA51E40E9405
:101F4000FE3787FDE6CFC801AD2FBC2FF601808399
:101F50009183A283B3830E94470FD7011496CD913A
:101F6000DC91CF55DF4F28EE33E040E050E00E9497
:101F70009A3A288339834A835B83CBCF3FB7F8945F
:101F80008091D2059091D305A091D405B091D5054B
:101F900026B5A89B05C02F3F19F00196A11DB11DC4
:101FA0003FBFBA2FA92F982F8827BC01CD01620F00
:101FB000711D811D911D42E0660F771F881F991FBB
:101FC0004A95D1F708958E3008F08E50877080645E
:101FD00080937C0080917A00806480937A00809165
:101FE0007A0086FDFCCF8091780090917900089569
:101FF000CF93DF9390E0FC01E650FF4F24918A518C
:102000009F4FFC0184918115C9F090E0880F991FC2
:10201000FC01E452FF4FA591B591FC01EE52FF4F38
:10202000C591D5919FB761110CC0F8948C91209502
:1020300082238C938881282328839FBFDF91CF91AF
:102040000895623051F4F8943C91822F8095832357
:102050008C938881822B8883F0CFF8948C91822B8B
:102060008C93EBCF843081F050F48230A9F0833030
:1020700079F4809180008F77809380000895873075
:1020800071F0883091F00895809180008F7DF4CFB9
:1020900084B58F7784BD089584B58F7DFBCF809103
:1020A000B0008F778093B00008958091B0008F7D4D
:1020B000F9CF1F93CF93DF93162F282F30E0F9012C
:1020C000E25FFE4F8491F901E650FF4FD491F90190
:1020D000EA51FF4FC491C115A1F081110E94321045
:1020E000EC2FF0E0EE0FFF1FEE52FF4FA591B591E0
:1020F0009FB7F8948C91111108C0D095D823DC9328
:102100009FBFDF91CF911F9108958D2B8C93F8CFB6
:1021100010926C0681E080936B061092460661E097
:1021200082E10E94591061E083E10E945910E9EBBD
:10213000F0E080818E7F808380818D7F808388E442
:102140008093B80085E48093BC000895CF93DF931B
:1021500091E09093FD058115B9F0C091B800D09140
:10216000BA008091BC008A7B8093BC0060E082E171
:102170000E94591060E083E10E9459100E9488106B
:10218000D093BA00C093B800DF91CF910895CF9259
:10219000DF92EF92FF920F931F93CF93DF93EC01A7
:1021A000862FB901883109F449C070F48431C9F02F
:1021B000873189F080E0DF91CF911F910F91FF90DF
:1021C000EF90DF90CF900895893109F457C08032A5
:1021D00089F781E0F0CF50E086E996E00E94180F81
:1021E000F8CF8C859D85AE85BF85892B8A2B8B2B5F
:1021F00071F4E881F981A585B0E020EA36E841E094
:1022000050E00E94503A6C877D878E879F8710929E
:1022100045061092440610927306109295060E948D
:10222000881081E895E0909343068093420682E807
:1022300095E09093410680934006CBCF2C853D8559
:102240004E855F8560E074E284EF90E00E949A3AE8
:1022500020513109410951095695479537952795E0
:102260002093B8008E89869591E0909372068093B2
:1022700094061092730610929506ABCFD0919506F6
:10228000D13208F096C0C09194060E94BE0F6B0137
:102290007C0180916C06811167C082E080936C069E
:1022A00081E080936B068FEF80936A061092690637
:1022B000D093680624E736E0A8E4B6E0F9018E2F53
:1022C000821B8D1708F47CC0109247068091470648
:1022D000CC0FC82BC093470680914606813009F089
:1022E00072C0109246060E94BE0F6B017C01809165
:1022F00047068093BB0080916E0690916F06A09177
:102300007006B0917106892B8A2B8B2B99F00E9455
:10231000BE0F00916E0610916F06209170063091ED
:1023200071066C197D098E099F0906171707280782
:102330003907D8F18091BC0083FDD9CF85EC80931B
:10234000BC000E94BE0F6B017C0180916C06823044
:10235000E1F180916A068F3F61F180916A068032D7
:1023600041F180916A0625C080916E0690916F06BA
:10237000A0917006B0917106892B8A2B8B2B09F4E2
:1023800088CF0E94BE0F00916E0610916F062091BB
:102390007006309171066C197D098E099F09061728
:1023A00017072807390708F074CF80916D060E943F
:1023B000A61010927306109295061092720609CF1D
:1023C00081918D937CCF85EEBACF80916E069091EE
:1023D0006F06A0917006B0917106892B8A2B8B2B0A
:1023E00009F4B3CF0E94BE0F00916E0610916F06E4
:1023F00020917006309171066C197D098E099F0934
:10240000061717072807390708F09FCFCECF1F936D
:10241000CF93DF93182FEB0161E00E94F80F209714
:1024200039F460E0812FDF91CF911F910C94591006
:10243000CF3FD10511F461E0F5CFE12FF0E0E25F8D
:10244000FE4FE491E43071F150F4E230E1F0E3301A
:10245000F9F0E13081F0C038D1051CF3ECCFE73062
:1024600059F1E830C1F78091B00080628093B000EC
:10247000C093B40004C084B5806884BDC7BDDF913B
:10248000CF911F91089584B5806284BDC8BDF7CFF8
:1024900080918000806880938000D0938900C093F1
:1024A0008800EDCF80918000806280938000D0937F
:1024B0008B00C0938A00E3CF8091B0008068809346
:1024C000B000C093B300DBCFFC0125853685838542
:1024D000F901E359FF4F4081518162817381452B9E
:1024E000462B472B29F03496608171810C9407129A
:1024F00060E070E0FBCF2F923F924F925F926F921D
:102500007F928F929F92AF92BF92CF92DF92EF9283
:10251000FF920F931F93CF93DF9300D000D000D092
:102520000F92CDB7DEB71C01DC011D960D90BC915A
:10253000A02DBF83AE83FC01F385FA83FD01EB562A
:10254000FF4F80819181A281B3812E813F812F56DF
:102550003F4F3C832B83892B8A2B8B2B11F5D90181
:102560006D917D918D919C910E948B368A812796E9
:102570000FB6F894DEBF0FBECDBFDF91CF911F9194
:102580000F91FF90EF90DF90CF90BF90AF909F9012
:102590008F907F906F905F904F903F902F900C9412
:1025A0000712EE81FF81E359FF4F80819181A28163
:1025B000B381892B8A2B8B2B09F4FCC0EE81FF8120
:1025C000FD962081318142815381EE81FF81EF5B55
:1025D000FF4F60817181828193810E942A357B0146
:1025E0008C01F10163817481858196810E94093695
:1025F0009B01AC01B701C8010E9487367B018C01A9
:10260000EE81FF81EB58FF4F208131814281538160
:102610000E9487366983472E582E9D83862F942DDE
:10262000A52DBD81EE81FF81EF57FF4F8083918300
:10263000A283B383EE81FF81E758FF4F2081318170
:1026400042815381B701C8010E9487368E809F80E6
:10265000F5E88F0E911CF401208131814281538174
:102660000E942B355B016C0120E030E0A9017B2D3D
:102670008C2D9D2D0E94FE3787FDA6C07A2D6B2DD7
:102680009C2D8D2DAB019C01852F962FA32FB22F52
:10269000F40180839183A283B383EE81FF81E357AA
:1026A000FF4F2081318142815381B701C8010E94CF
:1026B0002A35EE81FF81E358FF4F2081318142812D
:1026C00053810E9487363B014C012981342D452DD1
:1026D0005D816A2D7B2D8C2D9D2D0E942B359301C4
:1026E000A4010E942B355B016C0120E030E0A901C0
:1026F0007B2D8C2D9D2D0E94FE3787FD6EC020E026
:1027000030E04FE753E46A2D7B2D8C2D9D2D0E94E8
:10271000C136181634F4A12CB12C8FE7C82E93E4DF
:10272000D92E2E813F8127573F4FC301D401F90194
:1027300080839183A283B3835A2D4B2D3C2D2D2D65
:102740008A2D9B2DAC2DBD2DEB81FC818083918347
:10275000A283B383DA01F9016B2F7A2F8F2F9E2F7B
:102760000E948B368A810E940712D1011D96ED913D
:10277000FC91E357FF4FC701D80180839183A28367
:10278000B38327960FB6F894DEBF0FBECDBFDF919F
:10279000CF911F910F91FF90EF90DF90CF90BF905E
:1027A000AF909F908F907F906F905F904F903F90F1
:1027B0002F900895AB81BC811D921D921D921C9299
:1027C000139760E070E0D2CE70E060E090E080E0CF
:1027D000A12CB12CC12CD12C55CFA12CB12CC12CAA
:1027E000D12C9FCFCF93DF93282F30E0F901E25F08
:1027F000FE4F8491F901E650FF4FD491F901EA515F
:10280000FF4FC491C11581F081110E943210EC2F4D
:10281000F0E0EE0FFF1FE853FF4FA591B591EC914B
:10282000ED2381E0E11101C080E090E0DF91CF91E4
:102830000895CF93DF9382E00E94F213EC0183E0CE
:102840000E94F213CC0FDD1FC82BD92BE091A206FA
:10285000F091A306EE0FFF1FEE0FFF1FEC2BFD2BD9
:102860003197EE30F105B8F4E35EF44C0C94DA36AF
:102870008091A4069091A506A091A606B091A70606
:102880000196A11DB11D8093A4069093A506A09367
:10289000A606B093A706D093A306C093A206DF9125
:1028A000CF9108958091A4069091A506A091A606C7
:1028B000B091A7060197A109B109E5CF8F929F9228
:1028C000AF92BF92CF92DF92EF92FF92CF93DF93BE
:1028D0007C01C62F642FCC3240F4CA3290F5C83246
:1028E000C1F0C932D1F180E02DC0CD3209F459C018
:1028F00084EB8C0F823008F06AC0CF73CE0DDF2DD1
:10290000D11D8E8D411509F45AC062E00E94F80F66
:1029100018C02EE1E20EF11C90E0F70181917F01D9
:10292000C1E0C90F8F3F51F0903128F461E00E945F
:10293000F80F9C2FF2CF62E00E94F80F9C2FC63157
:1029400061F781E0DF91CF91FF90EF90DF90CF9022
:10295000BF90AF909F908F900895C42ED12CE12C02
:10296000F12C0E94BE0F4B015C01C114D104E104A3
:10297000F10439F30E94BE0F681979098A099B098D
:10298000683E73408105910580F3F1E0CF1AD108CC
:10299000E108F10828EE820E23E0921EA11CB11C72
:1029A000E4CF85E090E0433010F082E090E0880FC3
:1029B000991F880F991F05970197F1F7C2CF61E022
:1029C0000E94F80F60E08E8D0E945910BACFC0347B
:1029D00008F489CFEC2FEF73EE0DFF2DF11D868DDE
:1029E0008F3F09F4AECFC073C11571F30E94F2138B
:1029F000F701818FA6CFFC01A48DA80FB92FB11DBF
:102A0000A35ABF4F2C91848D90E001968F73992724
:102A1000848FA689B7892C93A089B1898C91837002
:102A200080648C93938D848D981306C00288F389FB
:102A3000E02D80818F7D80830895FC01818D228D22
:102A400090E0805C9F4F821B91098F7399270895B6
:102A500088EA96E00E941D159C0181E0232B09F471
:102A600080E0089580E090E0892B29F00E942815ED
:102A700081110C9400000895FC01918D828D9817AE
:102A800031F0828DE80FF11D858D90E008958FEF74
:102A90009FEF0895FC01918D828D981761F0A28DB2
:102AA000AE0FBF2FB11D5D968C91928D9F5F9F736E
:102AB000928F90E008958FEF9FEF0895FC01538D62
:102AC000448D842F90E0252F30E0821B930B541708
:102AD00010F0CF96089501970895CF93DF93EC01FE
:102AE000888D81110FC0DF91CF9108950FB607FC3B
:102AF0000DC08C9185FF0AC0808185FF07C0CE0183
:102B00000E94FB14AA89BB89E889F9898C9185FD0B
:102B1000EDCF808186FFEACFE6CFEF92FF920F9351
:102B20001F93CF93DF93EC01F62E81E0888F9B8D6E
:102B30008C8D98131AC0E889F989808185FF15C0AA
:102B40009FB7F894EE89FF896083E889F9898081CD
:102B50008370806480839FBF81E090E0DF91CF919C
:102B60001F910F91FF90EF9008950B8D10E00F5F74
:102B70001F4F0F731127E02E8C8D8E1579F0EB8D82
:102B8000EC0FFD2FF11DE35AFF4FF0829FB7F89431
:102B90000B8FEA89FB8980818062DCCF0FB607FC4E
:102BA000EBCFE889F989808185FFE6CFCE010E94CD
:102BB000FB14E2CFCF92DF92EF92FF920F931F931D
:102BC000CF93DF937C016A0100E010E00C151D0536
:102BD00051F4C801DF91CF911F910F91FF90EF90B9
:102BE000DF90CF900895EB01D701ED91FC9101901A
:102BF000F081E02D6991C7010995892B51F30F5F91
:102C00001F4FBE01E3CFEF92FF920F931F93CF931D
:102C1000DF937C01EB019B012A5F3F4F02E210E052
:102C200042E050E00E94AC09811529F100E026E065
:102C300030E042E050E0BE01C7010E948B0801E095
:102C40002EE130E043E050E0BE01C7010E948B0856
:102C5000BE016B5F7F4F2EE130E043E050E0C701E3
:102C60000E948B0800E026E030E041E250E0BE0127
:102C7000C7010E948B08DF91CF911F910F91FF90A8
:102C8000EF900895AF92BF92CF92DF92EF92FF92B2
:102C90000F931F93CF93DF93B82EA92E7B01EA01E8
:102CA0006A01C20ED31E9B012A5F3F4F86010E941C
:102CB000AC09811115C0DF91CF911F910F91FF9049
:102CC000EF90DF90CF90BF90AF90089500E026E0A6
:102CD00030E0AE01B7018B2D9A2D0E948B08219612
:102CE000CC16DD0699F7E7CF2F923F924F925F9275
:102CF0006F927F928F929F92AF92BF92CF92DF920C
:102D0000EF92FF920F931F93CF93DF932C01EB0170
:102D10008A0187E2E82EF12C5701A41AB50A6B014B
:102D20008CE3C80ED11CA501B601C2010E94850921
:102D3000EC1AFD0A48018CE3880E911CA701B4012E
:102D4000C2010E9485099CE3692E712C13012C1A83
:102D50003D0AA501B101C2010E948509601A710AEC
:102D6000A701B301C2010E948509095D1F4FA80197
:102D7000B601C2010E948509A796AE01B401C20145
:102D80000E948509A801B101C2010E948509AE0116
:102D9000B301C201DF91CF911F910F91FF90EF908E
:102DA000DF90CF90BF90AF909F908F907F906F906B
:102DB0005F904F903F902F900C9485098F929F9237
:102DC000AF92BF92EF92FF920F931F93CF93DF9337
:102DD0008C017B01C0E0D0E00E94470F6093B006F9
:102DE0007093B1068093B2069093B30688EA96E09A
:102DF0000E944A159C012F3F320739F50E94470F68
:102E00008090B0069090B106A090B206B090B30644
:102E1000681979098A099B098090AC069090AD06E3
:102E2000A090AE06B090AF06681579058A059B059F
:102E3000E8F2CE01DF91CF911F910F91FF90EF90BB
:102E4000BF90AF909F908F900895F80121932196A5
:102E5000CE15DF0571F38F01BFCFDC019B01189602
:102E6000ED91FC9141E067E10994DC011696ED914A
:102E7000FC9120E030E040E069E10994DC01169625
:102E8000ED91FC9120E030E040E068E10994DC0144
:102E90009A011696ED91FC91462F67E10994EF9205
:102EA000FF920F931F93CF93DF930F92CDB7DEB7AF
:102EB0007C018B01D8016C916A3170F4683178F52E
:102EC000673111F1653190F40F90DF91CF911F912F
:102ED0000F91FF90EF9008956E3FB1F7F801418197
:102EE000498369E2C7010E948F0E0BC0F80141813E
:102EF0004983D7011696ED91FC9120E030E0C7019F
:102F000009950E5F1F4FD6CFF80181818983AE01ED
:102F10004F5F5F4F61E0C7010E944717F2CF0F5F1D
:102F20001F4FD7011696ED91FC9120E030E040E074
:102F3000C7010995BFCFDC01462F1696ED91FC9194
:102F400020E030E066E10994DC01462F1696ED9111
:102F5000FC9120E030E065E10994EF92FF920F933D
:102F60001F93CF93DF93EC01142F79016E3009F496
:102F70006AC008F041C06B3009F448C06D3009F4F4
:102F80004FC0693009F49AC06A30C1F5EA85FB8503
:102F900020E030E040E068E20995EE81FF8120E02A
:102FA00030E040E064E1CE01099541E06BE4CE0100
:102FB0000E948F0EE881F981448169E2CE010E946E
:102FC0008F0E40E06BE4CE010E948F0EE881F98104
:102FD000448169E2CE010E948F0E41E06BE4CE0194
:102FE0000E948F0EE881F981458169E2CE010E943D
:102FF0008F0E6AEA71E010C06F30A1F180E0DF91BE
:10300000CF911F910F91FF90EF9008956DE871E0BF
:10301000411511F068E871E0CE010E944F1720C001
:10302000411109C061E871E00E944F17E881F98100
:1030300082898C8B15C06AE771E00E944F17E88186
:10304000F9818389F6CF0E943E1761E8CE010E9484
:10305000A417612FCE010E949B17CE010E94351745
:1030600081E0CDCF0E943E17F7010381000F000FD2
:10307000000F8C89080F60E4CE010E94A417602F16
:1030800062956F706061CE010E94A417602F6F700F
:10309000CE010E949B17F7016481606BCE010E94F4
:1030A0009B17F701408151816281660F660F660FA1
:1030B000CE010E9447171A95A1F7CFCF82E991E080
:1030C0009983888382E0B5CFDC011896ED91FC915D
:1030D00020E030E040E069E10994DC011896ED91D0
:1030E000FC9120E030E040E068E10994CF93DF9369
:1030F0000F92CDB7DEB76983BE016F5F7F4F0E942D
:103100002D170F90DF91CF910895FF920F931F938A
:10311000CF93DF93EC01162FF42E052F0E946D182C
:1031200060E4CE010E947618E885F9852F2D302FB6
:10313000412F67E1CE010995CE01DF91CF911F911B
:103140000F91FF900C946418EF92FF921F93CF930E
:10315000DF93EC01142F79016731B1F170F465311F
:10316000C1F0663169F1643109F448C080E0DF9153
:10317000CF911F91FF90EF900895683199F16931D7
:10318000A9F780913F06811569F1CE010E9464186C
:1031900029C080913F06811519F0CE010E94641864
:1031A000CE010E946D1860E0CE010E947618612F5A
:1031B000CE010E94761881E080933F0681E0D7CF50
:1031C000642F0E947618FACF80913F06811519F07E
:1031D000CE010E946418A701193138F4612FCE0185
:1031E0000E94851810923F06E9CF68E1CE010E9447
:1031F0008518185188E1E80EF11CEDCF8E898F3FBC
:1032000011F488E78E8BE885F9859701412F64E1F9
:10321000CE01DF91CF911F91FF90EF900994EF9233
:10322000FF920F931F93CF93DF93EC017C0100E09B
:1032300010E0C8010E941B3AF70181937F010F5FE4
:103240001F4F05331105A9F7FE01EF5BFF4F8DA15D
:103250009EA1AFA1B8A580839183A283B383DE0131
:10326000A75BBF4F80E1FE0101900D928A95E1F7C7
:10327000DE01AB58BF4FFE0170968CE001900D92BD
:103280008A95E1F7FE01E75AFF4F8C8D90E0A0E0B0
:10329000B0E080839183A283B3833C968D8D9E8D15
:1032A000AF8DB8A181939193A193B19389A19AA174
:1032B000ABA1BCA180839183A283B383F49689A53B
:1032C0009AA5ABA5BCA580839183A283B3833C96CA
:1032D0008DA59EA5AFA5B8A980839183A283B38352
:1032E000F89789A99AA9ABA9BCA980839183A283E5
:1032F000B383DF91CF911F910F91FF90EF900895CD
:10330000FF920F931F93CF93DF93EC01FC01EF5BD0
:10331000FF4F80819181A281B3818DA39EA3AFA332
:10332000B8A7789681E04081518162817381452BF5
:10333000462B472B09F480E08C8FFE01EB59FF4FA1
:1033400081919191A191B1918D8F9E8FAF8FB8A3F3
:1033500080819181A281B38189A39AA3ABA3BCA3ED
:10336000F49680819181A281B38189A79AA7ABA7A6
:10337000BCA73C9680819181A281B3818DA79EA735
:10338000AFA7B8ABE056F10980E1DE0101900D92E4
:103390008A95E1F7DE015096FE01EB58FF4F8CE075
:1033A00001900D928A95E1F7FE01EF58FF4F808161
:1033B0009181A281B38189AB9AABABABBCAB00E08E
:1033C00010E0F8802196C8010E941B3AF81621F0FF
:1033D0006F2DC8010E94233A0F5F1F4F053311055F
:1033E00081F7DF91CF911F910F91FF9008950F9377
:1033F0001F93CF93DF93EC018A859B85009769F437
:103400008C859D8597FF04C01D861C86CE013DC01E
:103410008FEF9FEF9D878C87F9CF81309105F1F475
:103420008C819D81FC01E75AFF4F41E050E060E054
:1034300070E00081118122813381012B022B032B4B
:1034400019F040E050E0BA014083518362837383F6
:10345000FC01EF54FF4F81E08083D8CF823091058B
:1034600031F48C819D81FC01E755FF4FDECF03973E
:1034700069F68C819D810E948019EC81FD81EF5459
:10348000FF4F81E080838A819B81DF91CF911F91E3
:103490000F910895CF93DF93EC018C819D810E9461
:1034A0008019EC81FD81EF54FF4F81E080838A8198
:1034B0009B81DF91CF910895FC01DC01A359BF4F9F
:1034C0001D921D921D921C921397AC5BBF4F81E021
:1034D0008C93D0971D921D921D921D921D921D924C
:1034E0001D921D921D921D921D921D921D921D9264
:1034F0001D921D921D921D921D921C921397D4979E
:103500001D921D921D921D921D921D921D921C9244
:10351000139790978D919D910D90BC91A02D85A3AF
:1035200096A3A7A3B0A7CF010C9480192F923F9226
:103530004F925F926F927F928F929F92AF92BF92C3
:10354000CF92DF92EF92FF920F931F93CF93DF936F
:10355000CDB7DEB767970FB6F894DEBF0FBECDBF0D
:103560001C01DC01D5968D909C90D697F401FD96B8
:10357000E080F18002811381EF86F88A098B1A8B33
:103580009B960D911C911A830983000F111F000F48
:10359000111F020D131D20E030E048EC53E46F854D
:1035A000788989899A890E949735D8011B966D93ED
:1035B0007D938D939C931E97F401EF56FF4F20E06F
:1035C00030E04FE753E460817181828193810E94F2
:1035D0009735F801638F748F858F968F89819A81D3
:1035E0000196E4E0F0E0BF010E94C6369C01D101E3
:1035F0009C969C938E939B97880F991F880F991F79
:103600007101E80EF91EFA86E986D7011B96ED9046
:10361000FD900D911C911E97E982FA820B831C8309
:10362000C9010196BF010E94C636880F991F880FF5
:10363000991F7101E80EF91EFC86EB86D7011B96D7
:103640004D905D906D907C901E97C9010296BF01D0
:103650000E94C636880F991F880F991F7101E80EC6
:10366000F91EFE86ED86D7011B96CD90DD90ED907C
:10367000FC901E972D5F3F4F23703327220F331F7F
:10368000220F331F8101020F131F1C8B0B8BD801DC
:103690001B968D919D910D90BC91A02D8D839E8345
:1036A000AF83B88720E030E0A90169817A818B81FE
:1036B0009C810E9487368B018E8B9D8B20E030E0B1
:1036C00040E85EE3C301B2010E9487369B01AC0172
:1036D000B8018E899D890E942B358B018E8B9D8B25
:1036E00020E030E040E05FE3C701B6010E9487368A
:1036F0009B01AC01B8018E899D890E942B358B01FD
:103700008E8B9D8B20E030E040E45FE36D817E8115
:103710008F8198850E9487369B01AC01B8018E8904
:103720009D890E942B3520E030E040EC5FE30E9451
:1037300097358B018E8B9D8BA301920169817A81D4
:103740008B819C810E942B35A70196010E942B350D
:103750002D813E814F8158850E942B3520E030E03D
:1037600040E85EE30E9487369B01AC01B8018E8978
:103770009D890E942A3524E535E545E55EE30E94F2
:1037800097356D8B7E8B5C01F401E35AFF4FCB01C3
:10379000D50180839183A283B383A985BA855B9683
:1037A000ED90FD900D911C915E97E982FA820B835A
:1037B0001C83EB85FC85438C548C658C768CAD85A5
:1037C000BE855B96ED90FD900D911C915E97ED820C
:1037D000FE820F831887EB89FC89C38CD48CE58C1F
:1037E000F68CA301920169817A818B819C810E9470
:1037F0002B352D813E814F8158850E942B35A701A5
:1038000096010E942B3569877B878F8B9B8BCB0121
:10381000AF89BB89F10185A796A7A7A7B0AB20E028
:1038200030E0A90169817A818B819C810E94873671
:1038300069837D878C0120E030E040E85EE3C301CE
:10384000B2010E9487369B01AC0169817D85C80168
:103850000E942B353B018C0120E030E040E05FE32B
:103860006D817E818F8198850E9487369B01AC0196
:10387000B301C8010E942B353B018C0120E030E0F0
:1038800040E45FE3C701B6010E9487369B01AC01AB
:10389000B301C8010E942B35B62FA72F462F572FF3
:1038A000682F792FF10141AB52AB63AB74AB20E0D1
:1038B00030E040EC5FE36B2F7A2F0E9497357B015D
:1038C0008C0120E030E040E85EE369857B858F89EC
:1038D0009B890E9487369B01AC01B701C8010E94F9
:1038E0002A3524E535E545E55EE30E9497358B01F1
:1038F0008D839983F401EF59FF4FCB01AD81B981DD
:1039000080839183A283B383389780819181A28140
:10391000B381892B8A2B8B2B09F4AEC0D401D596A9
:10392000CD90DD90ED90FC90D897BDE3CB16D104FF
:10393000E104F1040CF4A0C0FC9680819181A28185
:10394000B381892B8A2B8B2B09F496C0E455F1099E
:1039500020813181428153816F85788989899A8953
:103960000E94C13618160CF087C0C701B6010E942C
:103970000B3620E030E040EF52E40E942A3524E587
:103980003FE94CE85FEB0E94873620E030E040EFF3
:1039900052E40E9497350E94D9326B017C01F401F8
:1039A000EB59FF4F20813181428153810E9487363C
:1039B0009B01AC016D897E89C5010E94C136181634
:1039C0000CF05AC0F401E759FF4F20813181428148
:1039D0005381B601C7010E9487369B01AC01B80133
:1039E0008D8199810E94FE3787FF46C00E94470F54
:1039F00028EE33E040E050E00E949A3AD101D5969B
:103A0000ED91FC91EF55FF4F80819181A281B381AF
:103A100079018A01E81AF90A0A0B1B0BD801C701C0
:103A20000B97A105B10540F10E94470FD101D59632
:103A30002D913C91F901ED54FF4F60837183828396
:103A40009383C90167960FB6F894DEBF0FBECDBF52
:103A5000DF91CF911F910F91FF90EF90DF90CF906A
:103A6000BF90AF909F908F907F906F905F904F909E
:103A70003F902F900C945C1A67960FB6F894DEBFB7
:103A80000FBECDBFDF91CF911F910F91FF90EF90AF
:103A9000DF90CF90BF90AF909F908F907F906F906E
:103AA0005F904F903F902F900895CF93DF93EC015C
:103AB0008C819D81FC01E359FF4F408151816281DE
:103AC0007381452B462B472B81F441E050E060E0A9
:103AD00070E04083518362837383EC5BFF4F81E02E
:103AE0008083CE01DF91CF9108950E945C1AF9CFB7
:103AF0002F923F924F925F926F927F928F929F92FE
:103B0000AF92BF92CF92DF92EF92FF920F931F93EB
:103B1000CF93DF93EC010D891E890530110509F063
:103B2000EEC01E8A1D8A6D857E858B859C85680FFB
:103B3000791F8F859889680F791F89899A89680FFD
:103B4000791F0F89188D8B899C89680F791F072E23
:103B5000000C880B990B0E940B3620E030E040EA05
:103B600050E40E949735F62FE72FD801AB5BBF4F8B
:103B7000462F572FBC014D935D936D937C93139704
:103B80002F2F3E2FAC0160E070EC8FE794E40E9491
:103B9000973520E030E040E85FE30E942A359B0142
:103BA000AC0160E070E583EC97E40E94973520E07B
:103BB00030E543EC57E40E9497350E94ED3320E056
:103BC00030EE46E755E40E9497352FE03FEC4BE599
:103BD0005BE30E942B359B01AC0160E070E080E864
:103BE0009FE30E94973523E333E948E853E40E94BA
:103BF0002A3520E030E040E050E40E942A357B0185
:103C0000D82FC92FCB01AD2FBC2FF80181AF92AFB8
:103C1000A3AFB4AF20E030E040E450E4B7018D2F13
:103C20009C2F0E94D2343B014C016801FDE3CF0E72
:103C3000D11CF801E35BFF4F208131814281538128
:103C4000B7018D2F9C2F0E948736B62FA72FB82E35
:103C5000A92EC801875B9F4FFC01208131814281E1
:103C600053816B2F7A2F8B2D9A2D0E942B351B01A0
:103C70002C015801F1E5AF0EB11C97014D2F5C2FBF
:103C8000B7018D2F9C2F0E948736E501288139814D
:103C90004A815B810E9487369B01AC01B101C20160
:103CA0000E942B357B01D82FC92FF801EB5AFF4F0B
:103CB0002081318142815381B301C4010E94873642
:103CC0009B01AC01B7018D2F9C2F0E942B35F60173
:103CD0006083718382839383DF91CF911F910F91D2
:103CE000FF90EF90DF90CF90BF90AF909F908F901C
:103CF0007F906F905F904F903F902F900895C801F4
:103D000001969E8B8D8B898D0E94E30F000F111FF2
:103D1000FE01E00FF11F94878387DECFFC01A081B5
:103D2000B18150964C9182AD489FA001112483E04F
:103D3000440F551F8A95E1F760E070E080AD91ADCA
:103D40000C940D3ACF93DF93EC01FC01E557FF4F44
:103D50008081811519F0CE010E948E1E60E0CE0197
:103D6000DF91CF910C94DE051F93CF93DF93EC018D
:103D70000E9483051BAD8AAD180FE881F981818906
:103D8000181768F0EC81FD8120E030E040E060E150
:103D9000CE01099580E0DF91CF911F910895FE013A
:103DA000E557FF4F8081811519F0CE010E948E1ECC
:103DB000612FCE010E94DE0581E0EDCF2F923F9270
:103DC0004F925F926F927F928F929F92AF92BF922B
:103DD000CF92DF92EF92FF920F931F93CF93DF93D7
:103DE00000D000D000D0CDB7DEB78D839E83CD80CC
:103DF000DE802BE5C20ED11CD6010D911C910E5414
:103E00001F4FF801808181110BC088EA96E00E9463
:103E10001D15892B29F061E070E0C8010E94DE16B3
:103E2000D6010D911C91F801EE54FF4F8081803135
:103E300009F048C20E94470FF801E756FF4F608320
:103E400071838283938300E010E0F60160817181C9
:103E50006B5C7F4F600F711F44E050E088EA96E092
:103E60000E94DA150C5F1F4F0C37110571F7D60150
:103E70000D911C91F801EE54FF4F1082E557F109A6
:103E80004080518062807380C301B2010E948B36F2
:103E90007B01AD80BE80B1E6AB0EB11CF501608147
:103EA0007181828193810E948B36E616F70659F064
:103EB000D5014D925D926D927C92139781E0F8014D
:103EC000EF54FF4F8083F801E359FF4F4081518148
:103ED0006281738181E0411551056105710509F425
:103EE00080E0ED80FE80B7E7EB0EF11CF7019081DA
:103EF0000D811E81035A1F4F9817E1F08083452BD7
:103F0000462B472B09F440C00E94470FED81FE81EC
:103F1000E858FF4F6083718382839383D601ED91CC
:103F2000FC9115AA16AA17AA10AEF80110821182E8
:103F300012821382D7018C91811531F10E94470FB3
:103F4000ED81FE81E858FF4F80809180A280B38090
:103F5000681979098A099B09ED81FE81E458FF4FB0
:103F60006083718382839383F601E080F18028EE81
:103F700033E040E050E00E949A3AD701D5962D9365
:103F80003D934D935C93D897F60120813181F901DF
:103F900085A996A9A7A9B0ADF80140815181628198
:103FA000738184179507A607B70749F0808391832B
:103FB000A283B383F901EF54FF4F81E08083ED804A
:103FC000FE80FFE6EF0EF11CD7018D919C910D81D3
:103FD0001E8103591F4FF80191838083ED81FE817B
:103FE000E559FF4F80810E94F2139C01F1E08F2779
:103FF000D7018D939C93F80180819181019781F580
:104000002130310569F5D601ED91FC91E954FF4F5E
:104010008081811111C00D811E8107591F4FF80148
:1040200080819181DC01ED91FC910480F581E02D8E
:104030000995F80191838083D601ED91FC91EF54AD
:10404000FF4F81E080830E94470FF601208131817C
:10405000F901ED54FF4F6193719381939193108215
:10406000ED80FE80F5E7EF0EF11CD7018D919C915C
:104070000D811E810D581F4FF80191838083ED81C2
:10408000FE81EF58FF4F80810E94F2139C01F1E006
:104090008F27D7018D939C93F8018081918101979F
:1040A00081F52130310569F5D601ED91FC91E95496
:1040B000FF4F8081811111C00D811E8107591F4F53
:1040C000F80180819181DC01ED91FC910680F781FE
:1040D000E02D0995F80191838083D601ED91FC9143
:1040E000EF54FF4F81E080830E94470FF60120814B
:1040F0003181F901ED54FF4F619371938193919355
:1041000010824091A4065091A5066091A606709178
:10411000A7060D811E810B591F4FF80180819181E7
:10412000A281B3810396A11DB11D84179507A6072F
:10413000B7077CF5D601ED91FC91E954FF4F8081E2
:10414000811113C0F8014083518362837383ED8131
:10415000FE81E759FF4F80819181DC01ED91FC9157
:104160000280F381E02D61E00995D601ED91FC918B
:10417000EF54FF4F81E080830E94470FF6012081BA
:104180003181F901ED54FF4F6193719381939193C4
:1041900010824091A4065091A5066091A6067091E8
:1041A000A706F80180819181A281B3810397A109BB
:1041B000B109481759076A077B077CF5D601ED91CD
:1041C000FC91E954FF4F8081811113C0F8014083B5
:1041D000518362837383ED81FE81E759FF4F8081B4
:1041E0009181DC01ED91FC910280F381E02D60E092
:1041F0000995D601ED91FC91EF54FF4F81E080834A
:104200000E94470FF60120813181F901ED54FF4FE3
:10421000619371938193919310820E94470F613D46
:10422000774081059105A0F00E94470F64337840E4
:104230008105910568F4D6018D919C91FC01EB55A7
:10424000FF4F10821182128213823C9681E080839C
:104250000E94470FF601A081B181FD01ED54FF4F8F
:104260000081118122813381AB01BC01401B510BC4
:10427000620B730B41365A4E6105710508F0F0C1AF
:10428000D6018D919C91FC01EF54FF4F20812111AB
:1042900014C30F900F900F900F900F900F90DF911D
:1042A000CF911F910F91FF90EF90DF90CF90BF9033
:1042B000AF909F908F907F906F905F904F903F90C6
:1042C0002F900895813109F032C160E570E08D8151
:1042D0009E810B960E94DE16ED81FE81E95AFF4F0A
:1042E00080819181A281B3818C339D42AE41BF40D8
:1042F00009F0BDCDD6010D911C91F801EF5BFF4F88
:10430000AD81BE811B962D913D914D915C911E9783
:1043100060817181828193810E94FE378115A9F0AD
:104320000E94470FF601008111817801F1EAEF0E3A
:10433000F11C28EE33E040E050E00E949A3AD701A9
:104340002D933D934D935C931397ED81FE8183856F
:104350009485A585B685F801EF5BFF4F8083918337
:10436000A283B383ED81FE8187859089A189B2897B
:10437000F801EF58FF4F80839183A283B383ED81CF
:10438000FE81E15BFF4F80819181A281B381F801C1
:10439000EB55FF4F80839183A283B383ED81FE8130
:1043A00083899489A589B689F801EB56FF4F8083EC
:1043B0009183A283B383ED81FE8147A950AD61ADA6
:1043C00072ADF801E75AFF4F4083518362837383D4
:1043D000ED81FE81E55BFF4F4081518162817381F8
:1043E000F801E356FF4F4083518362837383ED816D
:1043F000FE81ED5AFF4F4081518162817381F80146
:10440000E755FF4F4083518362837383892B8A2B47
:104410008B2B99F47801F1E9EF0EF11CAD81BE818F
:1044200057966D917D918D919C915A970E94093676
:10443000F70160837183828393839801275B3F4FE9
:10444000ED81FE81838D948DA58DB68DF9018083DC
:104450009183A283B3832C5F3F4FED81FE81878DD3
:1044600090A1A1A1B2A1F90180839183A283B3831A
:104470002C5F3F4FED81FE8183A194A1A5A1B6A140
:10448000F90180839183A283B3832C5F3F4FED8139
:10449000FE8187A190A5A1A5B2A5F9018083918392
:1044A000A283B383205E3F4FED81FE8183A594A557
:1044B000A5A5B6A5F90180839183A283B3832C5F60
:1044C0003F4FED81FE8187A590A9A1A9B2A9F9016D
:1044D00080839183A283B3832C5F3F4FED81FE8164
:1044E00083A994A9A5A9B6A9F90180839183A28380
:1044F000B38328513109ED81FE8183AD94ADA5AD23
:10450000B6ADF90181939193A193B193AD81BE8131
:10451000DF968D919D910D90BC91A02D808391830C
:10452000A283B383E85BFF4F81E08083A0CC80321D
:1045300071F4F801E359FF4F81E090E0A0E0B0E0B2
:1045400080839183A283B383EC5BFF4FEECF8132F4
:1045500021F4C8010E945C1A8ACC803309F079C02A
:10456000F801E75BFF4F80E09CE5A1E6B2EC8193A8
:104570009193A193B19380E096E4A0E8B0E4819395
:104580009193A193B1938EEB97E6A4EABCEB819350
:104590009193A193B19380E290EFA0E4B8E380837C
:1045A0009183A283B383749780E090E0A4E3B3E4A3
:1045B00080839183A283B383F4968AE097EDA3E28C
:1045C000BDE381939193A193B19387E197EBA1ED23
:1045D000B8E381939193A193B1938FE892ECA5E70F
:1045E000BDE380839183A283B383B49781E090E09D
:1045F000A0E0B0E080839183A283B3833C964AE03D
:1046000057ED63E27CE341935193619371934AE9DF
:1046100059E969E97DEB4083518362837383F496A2
:1046200080839183A283B383BC974FEF50E060E017
:1046300070E04083518362837383F8968083918313
:10464000A283B383C8010E948019C8010E940F1978
:104650000ECC813309F00BCCC8010E94801907CC25
:10466000FD01E755FF4F4081518162817381452BE8
:10467000462B472B09F404CEFC974081518162817F
:104680007381452B462B472B09F0FACDE65BFF4F94
:1046900081E08083ED81FE81E759FF4F20803180EA
:1046A000F1018681978104960E94A21ED101149681
:1046B0000D911C91F801E854FF4F8FEF98E9A9E1A3
:1046C000B0E481939193A193B19350E040E038E935
:1046D00020E4852F942FA32FB22F80839183A28370
:1046E000B383A0E5B0E0BA83A983812C912C88E93B
:1046F000E82E90E4F92EF801E854FF4F40805180F5
:1047000062807380C301B2010E94CC32282D392D02
:104710004E2D5F2D0E9487365B018C0120E030E03A
:10472000A9010E94C13620E030E040E05FE3B5011E
:1047300087FDBBC0C8010E942B350E948B368B01C0
:10474000005C1F4FC301B2010E942235282D392D74
:104750004E2D5F2D0E9487365B017C0120E030E00A
:10476000A9010E94C13620E030E040E05FE3B501DE
:1047700087FD9FC0C7010E942B350E948B36462FB4
:10478000572F405E5F4F0038110550F440345105FB
:1047900038F4F10186819781B80104960E94850959
:1047A000D10114960D911C91F801E054FF4FFC8348
:1047B000EB8340805180628073807801F8EBEF0ECC
:1047C000F11C2FEF38E949E150E4C301B2010E9426
:1047D0002B35F70120813181428153810E942B3595
:1047E0004B015C012BED3FE049EC50E40E94C136E7
:1047F000181654F42BED3FE049EC50E4B401C50128
:104800000E942A354B015C01C401D501F701808368
:104810009183A283B38320E030E040E45FE358015A
:10482000FCEBAF0EB11CD5016D917D918D919C91EA
:104830000E942B354B017C01862F992DAE2DBF2D6B
:10484000F50180839183A283B38389819A81019743
:104850009A838983892B09F04ECF28E934EC43E809
:1048600058E3C301B2010E942B357B018C012BED73
:104870003FE049EC50E40E94C13687FD04C0E12CC2
:10488000F12C00E010E0C701D801EB81FC818083AE
:104890009183A283B383D10116968D919C91049646
:1048A0000E94B41E811102CFEBCCC8010E942A35B0
:1048B00044CFC7010E942A3560CFFC01E954FF4F65
:1048C00080818111E6CCED81FE81E759FF4F808127
:1048D0009181DC01ED91FC910190F081E02D099531
:1048E000D601ED91FC91EF54FF4F1082D2CC85EDB3
:1048F0008093BC0080916E0690916F06A091700627
:10490000B09171060796A11DB11D23E0B695A7953C
:10491000979587952A95D1F72091BC0024FD03C077
:1049200010926C06089540916E0650916F0660914A
:10493000700670917106452B462B472B69F3009743
:10494000A105B10541F02AE22A95F1F700C00197CF
:10495000A109B109E1CF80916D060C94A610FC016C
:1049600080819181009711F00C94BD380895CF9308
:10497000DF93EC0188819981009711F00E94BD3886
:10498000198218821D821C821B821A82DF91CF91AC
:1049900008950F931F93CF93DF93EC018B018881D0
:1049A0009981009729F02A813B812617370790F4D7
:1049B000B8016F5F7F4F0E944E39FC0180E0309755
:1049C00051F0F983E8831B830A838C819D81892BB5
:1049D00009F4108281E0DF91CF911F910F9108952A
:1049E0000F931F93CF93DF938C01EB01FC01808128
:1049F0009181009771F0688179816115710539F0B5
:104A0000428153812C813D8142175307A0F40E94BB
:104A1000BD3888819981F801918380838A819B8147
:104A2000938382838C819D819583848319821882EC
:104A30001B821A8207C00E94143A8C819D81F80162
:104A4000958384831D821C82DF91CF911F910F91EA
:104A50000895EF92FF920F931F93CF93DF93EC0192
:104A60007B01CA01672B41F480E0DF91CF911F9158
:104A70000F91FF90EF900895892BA9F00C811D8173
:104A8000040F151FB801CE010E94C924811561F3DE
:104A9000288139818C819D81B701820F931F0E94EB
:104AA000143A1D830C8381E0E0CFCF93DF93D82F9E
:104AB000C92FFB0144815581608171810E942925A4
:104AC000811104C08D2F9C2F0E94B7248D2F9C2F05
:104AD000DF91CF910895EF92FF920F931F93CF93A1
:104AE000DF93EC017B018A01BA010E94C924811184
:104AF00009C0CE01DF91CF911F910F91FF90EF90F0
:104B00000C94B7240C831D83B70188819981DF91B0
:104B1000CF911F910F91FF90EF900C94143ACF9387
:104B2000DF93EC01FB018617970749F060817181E3
:104B30006115710541F0448155810E946B25CE01BC
:104B4000DF91CF9108950E94B724F9CFCF93DF93DF
:104B5000D82FC92FDB010D900020E9F71197AD0187
:104B6000461B570B0E946B258D2F9C2FDF91CF91F9
:104B70000895DB010D900020E9F71197AD01461B68
:104B8000570B0C946B252F923F924F925F926F922E
:104B90007F928F929F92AF92BF92CF92DF92EF92CD
:104BA000FF920F931F93CF93DF93CDB7DEB7CC5413
:104BB000D1090FB6F894DEBF0FBECDBF2C01DC01CA
:104BC00014968D919C911597FC01EB55FF4F4081F8
:104BD000518162817381452B462B472BD9F1169663
:104BE0008D919C9104960E94A21EF201868197816C
:104BF00072E2E72E71E0F72E06E110E026E730E0E2
:104C000045E150E065E070E004960E94EA09D201B7
:104C100016968D919C9104960E94B41E8111E5CF49
:104C2000C45BDF4F0FB6F894DEBF0FBECDBFDF9180
:104C3000CF911F910F91FF90EF90DF90CF90BF9099
:104C4000AF909F908F907F906F905F904F903F902C
:104C50002F900895FC01EF54FF4F81E080831AAA42
:104C600019AA1CAA1BAA18AA1FA667E272E0CE0105
:104C70008F960E94B9250FA518A9F201E480F5804E
:104C8000F701E359FF4F80819181A281B381892B84
:104C90008A2B8B2B09F495C3B49660817181828134
:104CA00093810E948B36161617060CF08AC3F70103
:104CB000FD96A080B180C280D38020E030E040EA41
:104CC00051E46A2D7B2D8C2D9D2D0E94FE3787FD92
:104CD0009AC320E030E046E653E46A2D7B2D8C2D0C
:104CE0009D2D0E94C13618160CF08AC3A12CB12C40
:104CF00096E683E4A9AEBAAE9BAF8CAF20E030E07D
:104D000040EA51E4B9ADAAADFBADECAD6B2F7A2F03
:104D10008F2F9E2F0E942A3520E030E040E052E4A1
:104D20000E94873620E030E042E553E40E94973548
:104D30005B016C0120E030E0A9010E94C13620E057
:104D400030E040E05FE3B50187FD64C3C6010E9427
:104D50002B35862E972E5C01C501B4010E948B363F
:104D600027967FAF6EAF2797F701EF5BFF4FC080AD
:104D7000D180E280F38020E030E040EA51E46C2D05
:104D80007D2D8E2D9F2D0E94FE3787FD4AC320E08A
:104D900030E046E653E46C2D7D2D8E2D9F2D0E9434
:104DA000C13618160CF03AC3C12CD12C96E683E418
:104DB00020E030E040EA51E4FC016C2D7D2D8F2F86
:104DC0009E2F0E942A3520E030E040E052E40E940D
:104DD000873620E030E042E553E40E9497356B01CE
:104DE0007C0120E030E0A9010E94C13620E030E0E3
:104DF00040E05FE3B60187FD19C3C7010E942B3570
:104E0000C62ED72E7C01C701B6010E948B3629968B
:104E10007FAF6EAF2997D20116968D919C91049623
:104E20000E94A21E3E01BFE26B0E711C82E290E066
:104E3000FC0127962EAD3FAD2797E21BF30B2B9677
:104E4000FFAFEEAF2B97AC012996AEADBFAD299762
:104E50004A1B5B0B2D965FAF4EAF2D97FE0131962F
:104E60005F011E01F3E22F0E311C9E01275D3F4FB3
:104E70003EAB2DABD2011696ED90FC90B4E0EB0E5C
:104E8000F11C62E574E0C7010E94090761E0C701F7
:104E90000E94A70918AB0FA765EE71E0C3010E943D
:104EA000A6250FA518A9F201E680F780B801C70171
:104EB00004960E94830864E370E0681B790B9801F4
:104EC0004BE050E0C7010E948E0C6AEE71E0C30116
:104ED0000E94A6252FA538A94BE050E06CE470E0B5
:104EE000D20116968D919C910E948E0CF2018681C2
:104EF000978168E370E004960E940316D20116962B
:104F00008D919C9127962EAD3FAD27972B964EAD58
:104F10005FAD2B9768E370E004960E944216F201A1
:104F20008681978162E470E004960E940316D201A4
:104F300016968D919C9129962EAD3FAD29972D9671
:104F40004EAD5FAD2D9762E470E004960E9442166C
:104F5000F201868197816CE972E004960E9409074C
:104F60001CA21BA21EA21DA218A61FA259AD4AADCB
:104F70003BAD2CAD652F742F832F922F0E948B3663
:104F8000362F272F4AE0B501832F922F0E949837A2
:104F9000B501C1010E94A625B101C3010E94F02400
:104FA000CFA4D8A8C1010E94AF24D20116960D91BA
:104FB0001C917801B4E0EB0EF11C2CE035E0F80117
:104FC00037832683B601C7010E94D107ECE0F5E0E4
:104FD000D8011796FC93EE93169764E370E0681B74
:104FE000790B960142E250E0C7010E943D0CD201CC
:104FF0001496ED91FC91EF5BFF4F6081718182818E
:1050000093810E948B36362F272F1CA21BA21EA233
:105010001DA218A61FA24AE0B501832F922F0E945D
:105020009837B501C1010E94A625B101C3010E94B4
:10503000F0240FA518A9C1010E94AF24D201169631
:10504000ED91FC912CE035E037832683980142E214
:1050500050E06CE470E0CF0104960E943D0CD20158
:1050600016968D919C9162E574E004960E94090762
:105070001A8219821C821B821E821D826FEE71E0D1
:10508000C5010E94B925B501C3010E94F0240FA5F6
:1050900018A9C5010E94AF2498014EE250E061E4D6
:1050A00070E0F201868197810E948E0CD2011696E3
:1050B0008D919C91FC0134962196FFAFEEAF219724
:1050C0000AE210E02FE330E045E250E06AE370E0EE
:1050D000CF010E94AC096DAE7EAEAFAAB8AE2496E9
:1050E0002FAE249725963FAE25978111A3C1D201FB
:1050F0001496ED91FC91DF01A359BF4F8D919D91C5
:105100000D90BC91A02D892B8A2B8B2B01F165A9C9
:1051100076A987A990AD23E030E040E050E00E94FE
:10512000313A660F771FFB01E152FE4FE080F180BC
:10513000D20116968D919C9100E110E02CE030E0B8
:105140004EE250E063E170E004960E94EA09F20149
:10515000068117810480F581E02DEF5BFF4F20E091
:1051600030E044E353E460817181828193810E9445
:10517000C136282FC801049634E8E32E32E0F32E1E
:10518000121624F02CE6E22E22E0F22E0CE010E0C3
:105190002CE030E042E350E060E670E00E94EA0973
:1051A000D2011496ED91FC9165A976A987A990ADDD
:1051B0002CE330E040E050E00E94313A1AA619A6F4
:1051C0001CA61BA61EA61DA62AE04FA958AD0E942C
:1051D000A3376FA978ADCE0189960E94A625D2018A
:1051E0001496ED91FC9165A976A987A990AD2CE361
:1051F00030E040E050E00E94313ACA01B9011CA2FF
:105200001BA21EA21DA218A61FA22AE04FA958ADDC
:105210000E94A3376FA978AD24968FAD2497259669
:105220009FAD25970E94A6251A8219821C821B8297
:105230001E821D8224966FAD249725967FAD2597FB
:105240008FA998AD0E948F2541E050E061EF71E099
:105250008FA998AD0E942925EDA8FEA8811104C050
:105260008FA998AD0E94B724B7018FA998AD0E946D
:1052700055258C0141E050E063EF71E00E94292543
:10528000811103C0C8010E94B724B8018DAD9EAD45
:105290000E948F250FA518A98FA998AD0E94AF2451
:1052A00024968FAD249725969FAD25970E94AF2415
:1052B000C7010E94AF24D2011496ED91FC91DF0149
:1052C000A359BF4F8D919D910D90BC91A02D892B1D
:1052D0008A2B8B2B09F585A996A9A7A9B0AD1A82AF
:1052E00019821C821B821E821D82892B8A2B8B2B8A
:1052F00009F0E1C065EF71E08FA998AD0E94B92572
:105300006FA978AD8DAD9EAD0E94F0240FA518A9B0
:105310008FA998AD0E94AF24F201C680D780B80152
:10532000C60104960E948308D2011696ED90FC9067
:1053300060E870E0681B790B80E090E00E9409361D
:1053400020E030E040E05FE30E94873620E030E07C
:10535000A9010E94C136282FC7010496B80127FD74
:10536000B1C00E94830860E870E0681B790B80E0A0
:1053700090E00E94093620E030E040E05FE30E94C8
:10538000873620E030E040E05FE30E942B350E944A
:105390008B3698014EE350E0E62FF72FBF01C60190
:1053A0000E948E0CF2018681978104960E94B41EA1
:1053B000811160CD18AB0FA78DAD9EAD0E94AF24BB
:1053C0002FCCD701D996AC90D997DA96BC90DA97C2
:1053D000DB96CC90DB97DC96DC9020E030E040EA76
:1053E00051E46A2D7B2D8C2D9D2D0E94FE3787FF69
:1053F00070CC19AE1AAEF0EAFBAF21E42CAF7ECC34
:105400009C2D8D2D77CC19AE1AAEB0EABBAFE1E47E
:10541000ECAF74CCC6010E942A359BCC9E2D8F2DFB
:10542000C7CCC12CD12C90EA81E4C2CCC7010E9428
:105430002A35E6CC42E050E060E070E021968EAD87
:105440009FAD21970E947416E1E0F0E02396FFAF34
:10545000EEAF2397C12CD12C52E0E52EF12C6CEF4E
:10546000862E99249A940FEF1FEF3FEFC31AD30AA9
:1054700023964EAD5FAD23974E5F5F4F23965FAF90
:105480004EAF2397040F151FA701B60121968EADCD
:105490009FAD21970E947416CE14DF0408F027CE2A
:1054A00017FDE3CFF1E0EF1AF10822E0820E911C24
:1054B000080D191DDACF6DAD7EAD8FA998AD0E9494
:1054C0008F251ECF0E94830860E870E0681B790B6F
:1054D00080E090E00E94093620E030E040E05FE3A9
:1054E0000E94873620E030E040E05FE30E942A35EA
:1054F0004ECF2F923F924F925F926F927F928F92F8
:105500009F92AF92BF92CF92DF92EF92FF920F9352
:105510001F93CF93DF93CDB7DEB7C154D1090FB638
:10552000F894DEBF0FBECDBF8C011FAA1EAA19AE14
:1055300018AE1DAA1CAA5E0124E3A20EB11C67E2EC
:1055400072E0C5010E94B925ECA8FDA8D801169605
:10555000CD90DC90B4E0CB0ED11C62E574E0C601C6
:105560000E940907C6010E94A21EAAAEBBAEAE01F0
:10557000425D5F4F9E01285D3F4FCE01829660E8FD
:10558000462E512C7FEFA72E71E0B72EECEF2E2E7A
:10559000E1E03E2E4CAF5DAF2EAF3FAF21968FAF17
:1055A000219722969FAF2297F8018681978161E02B
:1055B00004960E94A709C12CD12CF801668077803F
:1055C0008085918593012C5F3F4F4901C816D9060C
:1055D0002CF1C9010E94B41E8111E6CFFDAAECAAEC
:1055E0008AAD9BAD0E94AF24CF5BDF4F0FB6F8941E
:1055F000DEBF0FBECDBFDF91CF911F910F91FF9006
:10560000EF90DF90CF90BF90AF909F908F907F9062
:105610006F905F904F903F902F900895D8011A9609
:105620008D919C911B978C159D0529F41C968D914D
:105630009C9160E097FF61E0C4010E94A709C1143A
:10564000D10409F09FC022E032E04DE050E060E07C
:1056500070E0C3010E948E0CF8018681978122853B
:1056600033850496232B29F42485358560E0232B8C
:1056700009F061E00E94A7091FA61EA619AA18AA90
:105680001BAA1AAA66E272E08CAD9DAD0E94B925F4
:10569000D8011496ED91FC91E356FF4F6081718122
:1056A0008281938119A618A61BA61AA61DA61CA660
:1056B0002AE0AE014F5F5F4F0E94B237BE016F5FBD
:1056C0007F4F8EAD9FAD0E94A6251A8219821C8243
:1056D0001B821E821D8266E272E0CE0101960E944C
:1056E000B9251BA21AA21DA21CA21FA21EA2BE01A6
:1056F0006F5F7F4F21968FAD219722969FAD2297A6
:105700000E948F256EAD7FAD21968FAD2197229699
:105710009FAD22970E9455256CAD7DAD0E94552509
:10572000BC01FDAAECAA8AAD9BAD0E948F25ECA816
:10573000FDA821968FAD219722969FAD22970E94BA
:10574000AF24CE0101960E94AF248EAD9FAD0E9482
:10575000AF248CAD9DAD0E94AF24F8018680978068
:10576000B701C40104960E948308B201681B790B3B
:1057700097014DE050E0C4010E948E0CBFEFCB1AA0
:10578000DB0A1BCFF1E0CF16D10409F049C025E1B7
:1057900032E04AE150E060E070E0C3010E948E0C0C
:1057A000D8011496ED91FC91E75AFF4F80819181C9
:1057B000A281B381B101892B8A2B8B2B09F4B5010E
:1057C0001A8219821C821B821E821D82CE010196C2
:1057D0000E94B925FDAAECAABE016F5F7F4F8AAD7A
:1057E0009BAD0E94F024ECA8FDA8CE0101960E947A
:1057F000AF24F801668077804301F4E08F0E911C9E
:1058000061E0C4010E94A709B701C4010E94830896
:10581000B201681B790B97014AE150E0C301ACCF9C
:1058200022E0C216D10409F048C028E232E047E283
:1058300050E060E070E0C3010E948E0CD801149625
:10584000ED91FC91E755FF4F80819181A281B38159
:10585000B101892B8A2B8B2B09F4B5011A8219828D
:105860001C821B821E821D82CE0101960E94B925D8
:10587000FDAAECAABE016F5F7F4F8AAD9BAD0E946F
:10588000F024ECA8FDA8CE0101960E94AF24F801F7
:10589000668077804301F4E08F0E911C61E0C401C3
:1058A0000E94A709B701C4010E948308B201681BC6
:1058B000790B970147E250E0B1CF23E0C216D10443
:1058C00009F05CCF6BE372E0C4010E948308D80149
:1058D00016968D909C90B201681B790B80E090E049
:1058E0000E94093620E030E040E05FE30E94873606
:1058F00020E030E0A9010E94C136282FC40104969F
:105900006BE372E027FD1FC00E948308B201681B91
:10591000790B80E090E00E94093620E030E040E022
:105920005FE30E94873620E030E040E05FE30E94C2
:105930002B350E948B362BE332E044E350E0E62F18
:10594000F72FBF016BCF0E948308B201681B790B50
:1059500080E090E00E94093620E030E040E05FE324
:105960000E94873620E030E040E05FE30E942A3565
:10597000E0CF1F920F920FB60F9211242F933F93F7
:105980004F935F936F937F938F939F93AF93BF9347
:10599000EF93FF939091B900892F887F803509F4A8
:1059A000C0C008F042C0803309F4B6C098F5883111
:1059B00001F1D0F4883009F4A7C0803109F4A4C003
:1059C000811509F4F0C0FF91EF91BF91AF919F91C4
:1059D0008F917F916F915F914F913F912F910F9098
:1059E0000FBE0F901F901895803209F495C0883231
:1059F00051F79091690680916806981778F5E091C3
:105A0000690681E08E0F80936906F0E0E85BF94F4C
:105A100080817CC0803409F490C0883409F47EC051
:105A2000883389F680936A066DC0803A09F49FC076
:105A3000B8F5803809F489C050F5803611F1D8F4F2
:105A4000883509F6E091690681E08E0F809369063A
:105A50008091BB00F0E0E85BF94F808380916B069A
:105A600081115CC081E08093460684EA8093BC008B
:105A700010926C06A8CF803721F0987E983609F0F6
:105A8000A2CF83E080936C061092FC0541C0803960
:105A900009F45BC0987E983809F095CF85E839C045
:105AA000883BD9F058F5883A19F0803B09F08BCF44
:105AB00084E080936C061092DB0510921E06E09144
:105AC0004206F0914306099580911E06811105C09A
:105AD00081E080931E061092FE05E091DB0581E0D7
